{
  "contractName": "AssetProvider",
  "abi": [
    {
      "inputs": [
        {
          "internalType": "address",
          "name": "rcAddr",
          "type": "address"
        }
      ],
      "payable": false,
      "stateMutability": "nonpayable",
      "type": "constructor"
    },
    {
      "anonymous": false,
      "inputs": [
        {
          "indexed": true,
          "internalType": "address",
          "name": "_id",
          "type": "address"
        },
        {
          "indexed": true,
          "internalType": "string",
          "name": "_name",
          "type": "string"
        },
        {
          "indexed": false,
          "internalType": "string",
          "name": "_desc",
          "type": "string"
        },
        {
          "indexed": true,
          "internalType": "uint256",
          "name": "_code",
          "type": "uint256"
        }
      ],
      "name": "EnterprizeRegistered",
      "type": "event"
    },
    {
      "anonymous": false,
      "inputs": [
        {
          "indexed": true,
          "internalType": "address",
          "name": "_id",
          "type": "address"
        },
        {
          "indexed": true,
          "internalType": "uint256",
          "name": "_code",
          "type": "uint256"
        }
      ],
      "name": "ProviderAdded",
      "type": "event"
    },
    {
      "constant": false,
      "inputs": [
        {
          "internalType": "address",
          "name": "_id",
          "type": "address"
        },
        {
          "internalType": "string",
          "name": "_name",
          "type": "string"
        },
        {
          "internalType": "string",
          "name": "_desc",
          "type": "string"
        }
      ],
      "name": "registerEnterprize",
      "outputs": [],
      "payable": false,
      "stateMutability": "nonpayable",
      "type": "function"
    },
    {
      "constant": false,
      "inputs": [
        {
          "internalType": "address",
          "name": "_id",
          "type": "address"
        },
        {
          "internalType": "string",
          "name": "_name",
          "type": "string"
        },
        {
          "internalType": "string",
          "name": "_desc",
          "type": "string"
        }
      ],
      "name": "updateEnterprize",
      "outputs": [],
      "payable": false,
      "stateMutability": "nonpayable",
      "type": "function"
    },
    {
      "constant": false,
      "inputs": [
        {
          "internalType": "address",
          "name": "_id",
          "type": "address"
        }
      ],
      "name": "addProvider",
      "outputs": [],
      "payable": false,
      "stateMutability": "nonpayable",
      "type": "function"
    },
    {
      "constant": false,
      "inputs": [
        {
          "internalType": "address",
          "name": "_id",
          "type": "address"
        }
      ],
      "name": "updateProvider",
      "outputs": [],
      "payable": false,
      "stateMutability": "nonpayable",
      "type": "function"
    },
    {
      "constant": true,
      "inputs": [
        {
          "internalType": "address",
          "name": "_id",
          "type": "address"
        }
      ],
      "name": "isProvider",
      "outputs": [
        {
          "internalType": "bool",
          "name": "",
          "type": "bool"
        }
      ],
      "payable": false,
      "stateMutability": "view",
      "type": "function"
    },
    {
      "constant": true,
      "inputs": [
        {
          "internalType": "address",
          "name": "_id",
          "type": "address"
        }
      ],
      "name": "isEnterprize",
      "outputs": [
        {
          "internalType": "bool",
          "name": "",
          "type": "bool"
        }
      ],
      "payable": false,
      "stateMutability": "view",
      "type": "function"
    },
    {
      "constant": true,
      "inputs": [
        {
          "internalType": "address",
          "name": "_id",
          "type": "address"
        }
      ],
      "name": "getEnterprizebyId",
      "outputs": [
        {
          "internalType": "string",
          "name": "name",
          "type": "string"
        },
        {
          "internalType": "string",
          "name": "desc",
          "type": "string"
        }
      ],
      "payable": false,
      "stateMutability": "view",
      "type": "function"
    },
    {
      "constant": true,
      "inputs": [
        {
          "internalType": "address[]",
          "name": "_idx",
          "type": "address[]"
        }
      ],
      "name": "getIssuerNames",
      "outputs": [
        {
          "internalType": "string[]",
          "name": "names",
          "type": "string[]"
        }
      ],
      "payable": false,
      "stateMutability": "view",
      "type": "function"
    }
  ],
  "bytecode": "0x60806040523480156200001157600080fd5b50604051620016303803806200163083398101604081905262000034916200006d565b600280546001600160a01b0319166001600160a01b0392909216919091179055620000c2565b80516200006781620000a8565b92915050565b6000602082840312156200008057600080fd5b60006200008e84846200005a565b949350505050565b60006001600160a01b03821662000067565b620000b38162000096565b8114620000bf57600080fd5b50565b61155e80620000d26000396000f3fe608060405234801561001057600080fd5b50600436106100885760003560e01c8063b144fd9d1161005b578063b144fd9d146100f1578063ef70768a14610112578063f9dbe84d14610125578063ffc28be41461014557610088565b80630d4370b21461008d57806346e2577a146100b65780636b074a07146100cb578063b08ccb4a146100de575b600080fd5b6100a061009b36600461112a565b610158565b6040516100ad9190611396565b60405180910390f35b6100c96100c436600461112a565b610179565b005b6100a06100d936600461112a565b610589565b6100c96100ec366004611150565b6105aa565b6101046100ff36600461112a565b610a4e565b6040516100ad9291906113b5565b6100c961012036600461112a565b610bb4565b6101386101333660046111cd565b610d31565b6040516100ad9190611385565b6100c9610153366004611150565b610e37565b6001600160a01b039081166000818152602081905260409020549091161490565b6002546040805163e61bcaef60e01b815290516001600160a01b039092169163a1a63f65913391849163e61bcaef916004808301926020929190829003018186803b1580156101c757600080fd5b505afa1580156101db573d6000803e3d6000fd5b505050506040513d601f19601f820116820180604052506101ff9190810190611220565b6040518363ffffffff1660e01b815260040161021c92919061135c565b60206040518083038186803b15801561023457600080fd5b505afa158015610248573d6000803e3d6000fd5b505050506040513d601f19601f8201168201806040525061026c9190810190611202565b61031d57600260009054906101000a90046001600160a01b03166001600160a01b031663803aa5f66040518163ffffffff1660e01b815260040160206040518083038186803b1580156102be57600080fd5b505afa1580156102d2573d6000803e3d6000fd5b505050506040513d601f19601f820116820180604052506102f69190810190611220565b6040516001600160a01b038316906000805160206114fc83398151915290600090a3610586565b60025460408051631af0ab1d60e01b815290516001600160a01b039092169163505ef22f9184918491631af0ab1d916004808301926020929190829003018186803b15801561036b57600080fd5b505afa15801561037f573d6000803e3d6000fd5b505050506040513d601f19601f820116820180604052506103a39190810190611220565b6040518363ffffffff1660e01b81526004016103c0929190611377565b60206040518083038186803b1580156103d857600080fd5b505afa1580156103ec573d6000803e3d6000fd5b505050506040513d601f19601f820116820180604052506104109190810190611202565b6104ea5760025460408051631af0ab1d60e01b815290516001600160a01b0390921691637fde1c8a9184918491631af0ab1d916004808301926020929190829003018186803b15801561046257600080fd5b505afa158015610476573d6000803e3d6000fd5b505050506040513d601f19601f8201168201806040525061049a9190810190611220565b6040518363ffffffff1660e01b81526004016104b7929190611377565b600060405180830381600087803b1580156104d157600080fd5b505af11580156104e5573d6000803e3d6000fd5b505050505b6104f381610589565b15610523576040516107d3906001600160a01b038316906000805160206114fc83398151915290600090a3610586565b6040805180820182526001600160a01b0383811680835260006020808501828152838352600191829052868320955186546001600160a01b03191695169490941785559251939092019290925591516000805160206114fc833981519152908390a35b50565b6001600160a01b039081166000818152600160205260409020549091161490565b600254604080516344ab97c560e11b815290516001600160a01b039092169163a1a63f6591339184916389572f8a916004808301926020929190829003018186803b1580156105f857600080fd5b505afa15801561060c573d6000803e3d6000fd5b505050506040513d601f19601f820116820180604052506106309190810190611220565b6040518363ffffffff1660e01b815260040161064d92919061135c565b60206040518083038186803b15801561066557600080fd5b505afa158015610679573d6000803e3d6000fd5b505050506040513d601f19601f8201168201806040525061069d9190810190611202565b61078357600260009054906101000a90046001600160a01b03166001600160a01b031663803aa5f66040518163ffffffff1660e01b815260040160206040518083038186803b1580156106ef57600080fd5b505afa158015610703573d6000803e3d6000fd5b505050506040513d601f19601f820116820180604052506107279190810190611220565b826040516107359190611350565b6040518091039020846001600160a01b03167f556c77495db239e508d2fab01281e801aa33a190a57c18ccad901f8e40123da78460405161077691906113a4565b60405180910390a4610a49565b60025460408051633bac774360e21b815290516001600160a01b039092169163505ef22f918691849163eeb1dd0c916004808301926020929190829003018186803b1580156107d157600080fd5b505afa1580156107e5573d6000803e3d6000fd5b505050506040513d601f19601f820116820180604052506108099190810190611220565b6040518363ffffffff1660e01b8152600401610826929190611377565b60206040518083038186803b15801561083e57600080fd5b505afa158015610852573d6000803e3d6000fd5b505050506040513d601f19601f820116820180604052506108769190810190611202565b6109505760025460408051633bac774360e21b815290516001600160a01b0390921691637fde1c8a918691849163eeb1dd0c916004808301926020929190829003018186803b1580156108c857600080fd5b505afa1580156108dc573d6000803e3d6000fd5b505050506040513d601f19601f820116820180604052506109009190810190611220565b6040518363ffffffff1660e01b815260040161091d929190611377565b600060405180830381600087803b15801561093757600080fd5b505af115801561094b573d6000803e3d6000fd5b505050505b61095983610158565b1561096f576107d1826040516107359190611350565b604080516060810182526001600160a01b038581168083526020808401878152848601879052600092835282825294909120835181546001600160a01b031916931692909217825592518051929391926109cf9260018501920190610f9a565b50604082015180516109eb916002840191602090910190610f9a565b509050506000826040516109ff9190611350565b6040518091039020846001600160a01b03167f556c77495db239e508d2fab01281e801aa33a190a57c18ccad901f8e40123da784604051610a4091906113a4565b60405180910390a45b505050565b606080610a5a83610158565b610a6357600080fd5b6001600160a01b03831660009081526020818152604091829020600190810180548451600293821615610100026000190190911692909204601f810184900484028301840190945283825290929091830182828015610b035780601f10610ad857610100808354040283529160200191610b03565b820191906000526020600020905b815481529060010190602001808311610ae657829003601f168201915b505050506001600160a01b038516600090815260208181526040918290206002908101805484516001821615610100026000190190911692909204601f8101849004840283018401909452838252949650939250830182828015610ba85780601f10610b7d57610100808354040283529160200191610ba8565b820191906000526020600020905b815481529060010190602001808311610b8b57829003601f168201915b50505050509050915091565b6002546040805163e61bcaef60e01b815290516001600160a01b039092169163a1a63f65913391849163e61bcaef916004808301926020929190829003018186803b158015610c0257600080fd5b505afa158015610c16573d6000803e3d6000fd5b505050506040513d601f19601f82011682018060405250610c3a9190810190611220565b6040518363ffffffff1660e01b8152600401610c5792919061135c565b60206040518083038186803b158015610c6f57600080fd5b505afa158015610c83573d6000803e3d6000fd5b505050506040513d601f19601f82011682018060405250610ca79190810190611202565b610cf957600260009054906101000a90046001600160a01b03166001600160a01b031663803aa5f66040518163ffffffff1660e01b815260040160206040518083038186803b1580156102be57600080fd5b610d0281610589565b610523576040516107d4906001600160a01b038316906000805160206114fc83398151915290600090a3610586565b606060005b8251811015610e3157600080848381518110610d4e57fe5b60200260200101516001600160a01b03166001600160a01b031681526020019081526020016000206001018054600181600116156101000203166002900480601f016020809104026020016040519081016040528092919081815260200182805460018160011615610100020316600290048015610e0d5780601f10610de257610100808354040283529160200191610e0d565b820191906000526020600020905b815481529060010190602001808311610df057829003601f168201915b5050505050828281518110610e1e57fe5b6020908102919091010152600101610d36565b50919050565b600254604080516344ab97c560e11b815290516001600160a01b039092169163a1a63f6591339184916389572f8a916004808301926020929190829003018186803b158015610e8557600080fd5b505afa158015610e99573d6000803e3d6000fd5b505050506040513d601f19601f82011682018060405250610ebd9190810190611220565b6040518363ffffffff1660e01b8152600401610eda92919061135c565b60206040518083038186803b158015610ef257600080fd5b505afa158015610f06573d6000803e3d6000fd5b505050506040513d601f19601f82011682018060405250610f2a9190810190611202565b610f7c57600260009054906101000a90046001600160a01b03166001600160a01b031663803aa5f66040518163ffffffff1660e01b815260040160206040518083038186803b1580156106ef57600080fd5b610f8583610158565b61096f576107d2826040516107359190611350565b828054600181600116156101000203166002900490600052602060002090601f016020900481019282601f10610fdb57805160ff1916838001178555611008565b82800160010185558215611008579182015b82811115611008578251825591602001919060010190610fed565b50611014929150611018565b5090565b61103291905b80821115611014576000815560010161101e565b90565b8035611040816114d5565b92915050565b600082601f83011261105757600080fd5b813561106a61106582611401565b6113da565b9150818183526020840193506020810190508385602084028201111561108f57600080fd5b60005b838110156110bb57816110a58882611035565b8452506020928301929190910190600101611092565b5050505092915050565b8051611040816114e9565b600082601f8301126110e157600080fd5b81356110ef61106582611422565b9150808252602083016020830185838301111561110b57600080fd5b61111683828461148f565b50505092915050565b8051611040816114f2565b60006020828403121561113c57600080fd5b60006111488484611035565b949350505050565b60008060006060848603121561116557600080fd5b60006111718686611035565b935050602084013567ffffffffffffffff81111561118e57600080fd5b61119a868287016110d0565b925050604084013567ffffffffffffffff8111156111b757600080fd5b6111c3868287016110d0565b9150509250925092565b6000602082840312156111df57600080fd5b813567ffffffffffffffff8111156111f657600080fd5b61114884828501611046565b60006020828403121561121457600080fd5b600061114884846110c5565b60006020828403121561123257600080fd5b6000611148848461111f565b600061124a83836112e0565b9392505050565b61125a8161147e565b82525050565b61125a81611462565b600061127482611450565b61127e8185611454565b9350836020820285016112908561144a565b8060005b858110156112ca57848403895281516112ad858261123e565b94506112b88361144a565b60209a909a0199925050600101611294565b5091979650505050505050565b61125a8161146d565b60006112eb82611450565b6112f58185611454565b935061130581856020860161149b565b61130e816114cb565b9093019392505050565b600061132382611450565b61132d818561145d565b935061133d81856020860161149b565b9290920192915050565b61125a81611032565b600061124a8284611318565b6040810161136a8285611251565b61124a6020830184611347565b6040810161136a8285611260565b6020808252810161124a8184611269565b6020810161104082846112d7565b6020808252810161124a81846112e0565b604080825281016113c681856112e0565b9050818103602083015261114881846112e0565b60405181810167ffffffffffffffff811182821017156113f957600080fd5b604052919050565b600067ffffffffffffffff82111561141857600080fd5b5060209081020190565b600067ffffffffffffffff82111561143957600080fd5b506020601f91909101601f19160190565b60200190565b5190565b90815260200190565b919050565b600061104082611472565b151590565b6001600160a01b031690565b600061104082600061104082611462565b82818337506000910152565b60005b838110156114b657818101518382015260200161149e565b838111156114c5576000848401525b50505050565b601f01601f191690565b6114de81611462565b811461058657600080fd5b6114de8161146d565b6114de8161103256fe7611bed4d4cecb0ffd91f83265a1def050ff505765b584fe17e8812cd4da43dca365627a7a723158201e548125e49cecc8fbac3d5f7e066ef48d0d8f3fc267970904f7af645f8dda076c6578706572696d656e74616cf564736f6c63430005110040",
  "source": "pragma solidity 0.5.17;\npragma experimental ABIEncoderV2;\n\n// Copyright 2021 The dt-contracts Authors\n// This file is part of the dt-contracts library.\n//\n// The dt-contracts library is free software: you can redistribute it and/or modify\n// it under the terms of the GNU Lesser General Public License as published by\n// the Free Software Foundation, either version 3 of the License, or\n// (at your option) any later version.\n//\n// The dt-contracts library is distributed in the hope that it will be useful,\n// but WITHOUT ANY WARRANTY; without even the implied warranty of\n// MERCHANTABILITY or FITNESS FOR A PARTICULAR PURPOSE. See the\n// GNU Lesser General Public License for more details.\n//\n// You should have received a copy of the GNU Lesser General Public License\n// along with the dt-contracts library. If not, see <http://www.gnu.org/licenses/>.\n\nimport \"./RoleController.sol\";\n\n/**\n * @title AssetProvider\n */\ncontract AssetProvider {\n    uint256 private constant SUCCESS = 0;\n    uint256 private constant ENTERPRIZE_EXISTS = 2001;\n    uint256 private constant ENTERPRIZE_NOT_EXISTS = 2002;\n    uint256 private constant PROVIDER_EXISTS = 2003;\n    uint256 private constant PROVIDER_NOT_EXISTS = 2004;\n\n    struct Enterprize {\n        address identity;\n        string name;\n        string desc;\n    }\n\n    struct Provider {\n        address identity;\n        uint256 reputation;\n    }\n\n    mapping(address => Enterprize) enterprizeList;\n    mapping(address => Provider) providerList;\n\n    event EnterprizeRegistered(\n        address indexed _id,\n        string indexed _name,\n        string _desc,\n        uint256 indexed _code\n    );\n\n    event ProviderAdded(address indexed _id, uint256 indexed _code);\n\n    RoleController private rc;\n\n    /**\n     * @dev constructor\n     *      contract deployment\n     * @param rcAddr refers to the RoleController address\n     */\n    constructor(address rcAddr) public {\n        rc = RoleController(rcAddr);\n    }\n\n    /**\n     * @dev registerEnterprize\n     *      registers new enterprize on-chain by the admin.\n     * @param _id refers to the enterprize identifier\n     * @param _name refers to the enterprize name\n     * @param _desc refers to the enterprize description\n     */\n    function registerEnterprize(\n        address _id,\n        string memory _name,\n        string memory _desc\n    ) public {\n        if (!rc.checkPermission(msg.sender, rc.MODIFY_ENTERPRIZE())) {\n            emit EnterprizeRegistered(\n                _id,\n                _name,\n                _desc,\n                rc.ERROR_NO_PERMISSION()\n            );\n            return;\n        }\n\n        if (!rc.checkRole(_id, rc.ROLE_ENTERPRIZE())) {\n            rc.addRole(_id, rc.ROLE_ENTERPRIZE());\n        }\n\n        if (isEnterprize(_id)) {\n            emit EnterprizeRegistered(_id, _name, _desc, ENTERPRIZE_EXISTS);\n            return;\n        }\n\n        enterprizeList[_id] = Enterprize({\n            identity: _id,\n            name: _name,\n            desc: _desc\n        });\n\n        emit EnterprizeRegistered(_id, _name, _desc, SUCCESS);\n    }\n\n    /**\n     * @dev updateEnterprize\n     *      updates the enterprize on-chain by the admin.\n     * @param _id refers to the enterprize identifier\n     * @param _name refers to the enterprize name\n     * @param _desc refers to the enterprize description\n     */\n    function updateEnterprize(\n        address _id,\n        string memory _name,\n        string memory _desc\n    ) public {\n        if (!rc.checkPermission(msg.sender, rc.MODIFY_ENTERPRIZE())) {\n            emit EnterprizeRegistered(\n                _id,\n                _name,\n                _desc,\n                rc.ERROR_NO_PERMISSION()\n            );\n            return;\n        }\n\n        if (!isEnterprize(_id)) {\n            emit EnterprizeRegistered(_id, _name, _desc, ENTERPRIZE_NOT_EXISTS);\n            return;\n        }\n\n        enterprizeList[_id] = Enterprize({\n            identity: _id,\n            name: _name,\n            desc: _desc\n        });\n\n        emit EnterprizeRegistered(_id, _name, _desc, SUCCESS);\n    }\n\n    /**\n     * @dev addProvider\n     *      adds new provider on-chain by the enterprize.\n     * @param _id refers to the provider identifier\n     */\n    function addProvider(address _id) public {\n        if (!rc.checkPermission(msg.sender, rc.MODIFY_PROVIDER())) {\n            emit ProviderAdded(_id, rc.ERROR_NO_PERMISSION());\n            return;\n        }\n\n        if (!rc.checkRole(_id, rc.ROLE_PROVIDER())) {\n            rc.addRole(_id, rc.ROLE_PROVIDER());\n        }\n\n        if (isProvider(_id)) {\n            emit ProviderAdded(_id, PROVIDER_EXISTS);\n            return;\n        }\n\n        providerList[_id] = Provider({identity: _id, reputation: 0});\n\n        emit ProviderAdded(_id, SUCCESS);\n    }\n\n    /**\n     * @dev updateProvider\n     *      update the provider on-chain by the enterprize.\n     * @param _id refers to the provider identifier\n     */\n    function updateProvider(address _id) public {\n        if (!rc.checkPermission(msg.sender, rc.MODIFY_PROVIDER())) {\n            emit ProviderAdded(_id, rc.ERROR_NO_PERMISSION());\n            return;\n        }\n\n        if (!isProvider(_id)) {\n            emit ProviderAdded(_id, PROVIDER_NOT_EXISTS);\n            return;\n        }\n\n        providerList[_id] = Provider({identity: _id, reputation: 0});\n\n        emit ProviderAdded(_id, SUCCESS);\n    }\n\n    /**\n     * @dev isProvider\n     *      checks provider role.\n     * @param _id refers to the address identifier\n     * @return bool.\n     */\n    function isProvider(address _id) public view returns (bool) {\n        return providerList[_id].identity == _id;\n    }\n\n    /**\n     * @dev isEnterprize\n     *      checks enterprize role.\n     * @param _id refers to the address identifier\n     * @return bool.\n     */\n    function isEnterprize(address _id) public view returns (bool) {\n        return enterprizeList[_id].identity == _id;\n    }\n\n    /**\n     * @dev getEnterprizebyId\n     *      returns the enterprize records.\n     * @param _id refers to the enterprize identifier\n     * @return Enterprize struct.\n     */\n    function getEnterprizebyId(address _id)\n        public\n        view\n        returns (string memory name, string memory desc)\n    {\n        require(isEnterprize(_id));\n\n        name = enterprizeList[_id].name;\n        desc = enterprizeList[_id].desc;\n    }\n\n    /**\n     * @dev getIssuerNames\n     *      returns the list of names of issuers/enterprizes.\n     * @param _idx refers to the enterprize identifiers\n     * @return string[].\n     */\n    function getIssuerNames(address[] memory _idx)\n        public\n        view\n        returns (string[] memory names)\n    {\n        for (uint i = 0; i < _idx.length; i++) {\n            names[i] = enterprizeList[_idx[i]].name;\n        }\n    }\n}\n",
  "sourcePath": "/Users/liqibing/Research/blockchain/ownership/datatoken/dt-contracts/contracts/AssetProvider.sol",
  "compiler": {
    "name": "solc",
    "version": "0.5.17+commit.d117da36.Emscripten.clang"
  },
  "schemaVersion": "3.0.19",
  "updatedAt": "2021-04-10T14:08:11.023Z",
  "devdoc": {
    "methods": {
      "addProvider(address)": {
        "details": "addProvider     adds new provider on-chain by the enterprize.",
        "params": {
          "_id": "refers to the provider identifier"
        }
      },
      "constructor": {
        "details": "constructor     contract deployment",
        "params": {
          "rcAddr": "refers to the RoleController address"
        }
      },
      "getEnterprizebyId(address)": {
        "details": "getEnterprizebyId     returns the enterprize records.",
        "params": {
          "_id": "refers to the enterprize identifier"
        },
        "return": "Enterprize struct."
      },
      "getIssuerNames(address[])": {
        "details": "getIssuerNames     returns the list of names of issuers/enterprizes.",
        "params": {
          "_idx": "refers to the enterprize identifiers"
        },
        "return": "string[]."
      },
      "isEnterprize(address)": {
        "details": "isEnterprize     checks enterprize role.",
        "params": {
          "_id": "refers to the address identifier"
        },
        "return": "bool."
      },
      "isProvider(address)": {
        "details": "isProvider     checks provider role.",
        "params": {
          "_id": "refers to the address identifier"
        },
        "return": "bool."
      },
      "registerEnterprize(address,string,string)": {
        "details": "registerEnterprize     registers new enterprize on-chain by the admin.",
        "params": {
          "_desc": "refers to the enterprize description",
          "_id": "refers to the enterprize identifier",
          "_name": "refers to the enterprize name"
        }
      },
      "updateEnterprize(address,string,string)": {
        "details": "updateEnterprize     updates the enterprize on-chain by the admin.",
        "params": {
          "_desc": "refers to the enterprize description",
          "_id": "refers to the enterprize identifier",
          "_name": "refers to the enterprize name"
        }
      },
      "updateProvider(address)": {
        "details": "updateProvider     update the provider on-chain by the enterprize.",
        "params": {
          "_id": "refers to the provider identifier"
        }
      }
    },
    "title": "AssetProvider"
  },
  "userdoc": {
    "methods": {}
  }
}