{
  "contractName": "AssetProvider",
  "abi": [
    {
      "inputs": [
        {
          "internalType": "address",
          "name": "rcAddr",
          "type": "address"
        }
      ],
      "payable": false,
      "stateMutability": "nonpayable",
      "type": "constructor"
    },
    {
      "anonymous": false,
      "inputs": [
        {
          "indexed": true,
          "internalType": "address",
          "name": "_id",
          "type": "address"
        },
        {
          "indexed": true,
          "internalType": "string",
          "name": "_name",
          "type": "string"
        },
        {
          "indexed": false,
          "internalType": "string",
          "name": "_desc",
          "type": "string"
        },
        {
          "indexed": true,
          "internalType": "uint256",
          "name": "_code",
          "type": "uint256"
        }
      ],
      "name": "EnterprizeRegistered",
      "type": "event"
    },
    {
      "anonymous": false,
      "inputs": [
        {
          "indexed": true,
          "internalType": "address",
          "name": "_id",
          "type": "address"
        },
        {
          "indexed": true,
          "internalType": "uint256",
          "name": "_code",
          "type": "uint256"
        }
      ],
      "name": "ProviderAdded",
      "type": "event"
    },
    {
      "constant": false,
      "inputs": [
        {
          "internalType": "address",
          "name": "_id",
          "type": "address"
        },
        {
          "internalType": "string",
          "name": "_name",
          "type": "string"
        },
        {
          "internalType": "string",
          "name": "_desc",
          "type": "string"
        }
      ],
      "name": "registerEnterprize",
      "outputs": [],
      "payable": false,
      "stateMutability": "nonpayable",
      "type": "function"
    },
    {
      "constant": false,
      "inputs": [
        {
          "internalType": "address",
          "name": "_id",
          "type": "address"
        },
        {
          "internalType": "string",
          "name": "_name",
          "type": "string"
        },
        {
          "internalType": "string",
          "name": "_desc",
          "type": "string"
        }
      ],
      "name": "updateEnterprize",
      "outputs": [],
      "payable": false,
      "stateMutability": "nonpayable",
      "type": "function"
    },
    {
      "constant": false,
      "inputs": [
        {
          "internalType": "address",
          "name": "_id",
          "type": "address"
        }
      ],
      "name": "addProvider",
      "outputs": [],
      "payable": false,
      "stateMutability": "nonpayable",
      "type": "function"
    },
    {
      "constant": false,
      "inputs": [
        {
          "internalType": "address",
          "name": "_id",
          "type": "address"
        }
      ],
      "name": "updateProvider",
      "outputs": [],
      "payable": false,
      "stateMutability": "nonpayable",
      "type": "function"
    },
    {
      "constant": true,
      "inputs": [
        {
          "internalType": "address",
          "name": "_id",
          "type": "address"
        }
      ],
      "name": "isProvider",
      "outputs": [
        {
          "internalType": "bool",
          "name": "",
          "type": "bool"
        }
      ],
      "payable": false,
      "stateMutability": "view",
      "type": "function"
    },
    {
      "constant": true,
      "inputs": [
        {
          "internalType": "address",
          "name": "_id",
          "type": "address"
        }
      ],
      "name": "isEnterprize",
      "outputs": [
        {
          "internalType": "bool",
          "name": "",
          "type": "bool"
        }
      ],
      "payable": false,
      "stateMutability": "view",
      "type": "function"
    },
    {
      "constant": true,
      "inputs": [
        {
          "internalType": "address",
          "name": "_id",
          "type": "address"
        }
      ],
      "name": "getEnterprizebyId",
      "outputs": [
        {
          "internalType": "string",
          "name": "name",
          "type": "string"
        },
        {
          "internalType": "string",
          "name": "desc",
          "type": "string"
        }
      ],
      "payable": false,
      "stateMutability": "view",
      "type": "function"
    }
  ],
  "bytecode": "0x608060405234801561001057600080fd5b506040516114b93803806114b98339818101604052602081101561003357600080fd5b5051600280546001600160a01b0319166001600160a01b03909216919091179055611456806100636000396000f3fe608060405234801561001057600080fd5b506004361061007d5760003560e01c8063b08ccb4a1161005b578063b08ccb4a1461010a578063b144fd9d14610243578063ef70768a14610347578063ffc28be41461036d5761007d565b80630d4370b21461008257806346e2577a146100bc5780636b074a07146100e4575b600080fd5b6100a86004803603602081101561009857600080fd5b50356001600160a01b03166104a6565b604080519115158252519081900360200190f35b6100e2600480360360208110156100d257600080fd5b50356001600160a01b03166104c7565b005b6100a8600480360360208110156100fa57600080fd5b50356001600160a01b03166108d6565b6100e26004803603606081101561012057600080fd5b6001600160a01b038235169190810190604081016020820135600160201b81111561014a57600080fd5b82018360208201111561015c57600080fd5b803590602001918460018302840111600160201b8311171561017d57600080fd5b91908080601f0160208091040260200160405190810160405280939291908181526020018383808284376000920191909152509295949360208101935035915050600160201b8111156101cf57600080fd5b8201836020820111156101e157600080fd5b803590602001918460018302840111600160201b8311171561020257600080fd5b91908080601f0160208091040260200160405190810160405280939291908181526020018383808284376000920191909152509295506108f7945050505050565b6102696004803603602081101561025957600080fd5b50356001600160a01b0316610eff565b604051808060200180602001838103835285818151815260200191508051906020019080838360005b838110156102aa578181015183820152602001610292565b50505050905090810190601f1680156102d75780820380516001836020036101000a031916815260200191505b50838103825284518152845160209182019186019080838360005b8381101561030a5781810151838201526020016102f2565b50505050905090810190601f1680156103375780820380516001836020036101000a031916815260200191505b5094505050505060405180910390f35b6100e26004803603602081101561035d57600080fd5b50356001600160a01b0316611065565b6100e26004803603606081101561038357600080fd5b6001600160a01b038235169190810190604081016020820135600160201b8111156103ad57600080fd5b8201836020820111156103bf57600080fd5b803590602001918460018302840111600160201b831117156103e057600080fd5b91908080601f0160208091040260200160405190810160405280939291908181526020018383808284376000920191909152509295949360208101935035915050600160201b81111561043257600080fd5b82018360208201111561044457600080fd5b803590602001918460018302840111600160201b8311171561046557600080fd5b91908080601f0160208091040260200160405190810160405280939291908181526020018383808284376000920191909152509295506111e2945050505050565b6001600160a01b039081166000818152602081905260409020549091161490565b6002546040805163e61bcaef60e01b815290516001600160a01b039092169163a1a63f65913391849163e61bcaef916004808301926020929190829003018186803b15801561051557600080fd5b505afa158015610529573d6000803e3d6000fd5b505050506040513d602081101561053f57600080fd5b5051604080516001600160e01b031960e086901b1681526001600160a01b0390931660048401526024830191909152516044808301926020929190829003018186803b15801561058e57600080fd5b505afa1580156105a2573d6000803e3d6000fd5b505050506040513d60208110156105b857600080fd5b505161065f57600260009054906101000a90046001600160a01b03166001600160a01b031663803aa5f66040518163ffffffff1660e01b815260040160206040518083038186803b15801561060c57600080fd5b505afa158015610620573d6000803e3d6000fd5b505050506040513d602081101561063657600080fd5b50516040516001600160a01b0383169060008051602061140283398151915290600090a36108d3565b60025460408051631af0ab1d60e01b815290516001600160a01b039092169163505ef22f9184918491631af0ab1d916004808301926020929190829003018186803b1580156106ad57600080fd5b505afa1580156106c1573d6000803e3d6000fd5b505050506040513d60208110156106d757600080fd5b5051604080516001600160e01b031960e086901b1681526001600160a01b0390931660048401526024830191909152516044808301926020929190829003018186803b15801561072657600080fd5b505afa15801561073a573d6000803e3d6000fd5b505050506040513d602081101561075057600080fd5b50516108375760025460408051631af0ab1d60e01b815290516001600160a01b0390921691637fde1c8a9184918491631af0ab1d916004808301926020929190829003018186803b1580156107a457600080fd5b505afa1580156107b8573d6000803e3d6000fd5b505050506040513d60208110156107ce57600080fd5b5051604080516001600160e01b031960e086901b1681526001600160a01b039093166004840152602483019190915251604480830192600092919082900301818387803b15801561081e57600080fd5b505af1158015610832573d6000803e3d6000fd5b505050505b610840816108d6565b15610870576040516107d3906001600160a01b0383169060008051602061140283398151915290600090a36108d3565b6040805180820182526001600160a01b0383811680835260006020808501828152838352600191829052868320955186546001600160a01b0319169516949094178555925193909201929092559151600080516020611402833981519152908390a35b50565b6001600160a01b039081166000818152600160205260409020549091161490565b600254604080516344ab97c560e11b815290516001600160a01b039092169163a1a63f6591339184916389572f8a916004808301926020929190829003018186803b15801561094557600080fd5b505afa158015610959573d6000803e3d6000fd5b505050506040513d602081101561096f57600080fd5b5051604080516001600160e01b031960e086901b1681526001600160a01b0390931660048401526024830191909152516044808301926020929190829003018186803b1580156109be57600080fd5b505afa1580156109d2573d6000803e3d6000fd5b505050506040513d60208110156109e857600080fd5b5051610b6757600260009054906101000a90046001600160a01b03166001600160a01b031663803aa5f66040518163ffffffff1660e01b815260040160206040518083038186803b158015610a3c57600080fd5b505afa158015610a50573d6000803e3d6000fd5b505050506040513d6020811015610a6657600080fd5b50516040518351849190819060208401908083835b60208310610a9a5780518252601f199092019160209182019101610a7b565b51815160209384036101000a60001901801990921691161790526040805192909401829003822081835288518383015288519096506001600160a01b038b1695507f556c77495db239e508d2fab01281e801aa33a190a57c18ccad901f8e40123da7948994508392908301919085019080838360005b83811015610b28578181015183820152602001610b10565b50505050905090810190601f168015610b555780820380516001836020036101000a031916815260200191505b509250505060405180910390a4610efa565b60025460408051633bac774360e21b815290516001600160a01b039092169163505ef22f918691849163eeb1dd0c916004808301926020929190829003018186803b158015610bb557600080fd5b505afa158015610bc9573d6000803e3d6000fd5b505050506040513d6020811015610bdf57600080fd5b5051604080516001600160e01b031960e086901b1681526001600160a01b0390931660048401526024830191909152516044808301926020929190829003018186803b158015610c2e57600080fd5b505afa158015610c42573d6000803e3d6000fd5b505050506040513d6020811015610c5857600080fd5b5051610d3f5760025460408051633bac774360e21b815290516001600160a01b0390921691637fde1c8a918691849163eeb1dd0c916004808301926020929190829003018186803b158015610cac57600080fd5b505afa158015610cc0573d6000803e3d6000fd5b505050506040513d6020811015610cd657600080fd5b5051604080516001600160e01b031960e086901b1681526001600160a01b039093166004840152602483019190915251604480830192600092919082900301818387803b158015610d2657600080fd5b505af1158015610d3a573d6000803e3d6000fd5b505050505b610d48836104a6565b15610d7f576107d18260405180828051906020019080838360208310610a9a5780518252601f199092019160209182019101610a7b565b604080516060810182526001600160a01b038581168083526020808401878152848601879052600092835282825294909120835181546001600160a01b03191693169290921782559251805192939192610ddf9260018501920190611366565b5060408201518051610dfb916002840191602090910190611366565b509050506000826040518082805190602001908083835b60208310610e315780518252601f199092019160209182019101610e12565b51815160209384036101000a60001901801990921691161790526040805192909401829003822081835288518383015288519096506001600160a01b038b1695507f556c77495db239e508d2fab01281e801aa33a190a57c18ccad901f8e40123da7948994508392908301919085019080838360005b83811015610ebf578181015183820152602001610ea7565b50505050905090810190601f168015610eec5780820380516001836020036101000a031916815260200191505b509250505060405180910390a45b505050565b606080610f0b836104a6565b610f1457600080fd5b6001600160a01b03831660009081526020818152604091829020600190810180548451600293821615610100026000190190911692909204601f810184900484028301840190945283825290929091830182828015610fb45780601f10610f8957610100808354040283529160200191610fb4565b820191906000526020600020905b815481529060010190602001808311610f9757829003601f168201915b505050506001600160a01b038516600090815260208181526040918290206002908101805484516001821615610100026000190190911692909204601f81018490048402830184019094528382529496509392508301828280156110595780601f1061102e57610100808354040283529160200191611059565b820191906000526020600020905b81548152906001019060200180831161103c57829003601f168201915b50505050509050915091565b6002546040805163e61bcaef60e01b815290516001600160a01b039092169163a1a63f65913391849163e61bcaef916004808301926020929190829003018186803b1580156110b357600080fd5b505afa1580156110c7573d6000803e3d6000fd5b505050506040513d60208110156110dd57600080fd5b5051604080516001600160e01b031960e086901b1681526001600160a01b0390931660048401526024830191909152516044808301926020929190829003018186803b15801561112c57600080fd5b505afa158015611140573d6000803e3d6000fd5b505050506040513d602081101561115657600080fd5b50516111aa57600260009054906101000a90046001600160a01b03166001600160a01b031663803aa5f66040518163ffffffff1660e01b815260040160206040518083038186803b15801561060c57600080fd5b6111b3816108d6565b610870576040516107d4906001600160a01b0383169060008051602061140283398151915290600090a36108d3565b600254604080516344ab97c560e11b815290516001600160a01b039092169163a1a63f6591339184916389572f8a916004808301926020929190829003018186803b15801561123057600080fd5b505afa158015611244573d6000803e3d6000fd5b505050506040513d602081101561125a57600080fd5b5051604080516001600160e01b031960e086901b1681526001600160a01b0390931660048401526024830191909152516044808301926020929190829003018186803b1580156112a957600080fd5b505afa1580156112bd573d6000803e3d6000fd5b505050506040513d60208110156112d357600080fd5b505161132757600260009054906101000a90046001600160a01b03166001600160a01b031663803aa5f66040518163ffffffff1660e01b815260040160206040518083038186803b158015610a3c57600080fd5b611330836104a6565b610d7f576107d28260405180828051906020019080838360208310610a9a5780518252601f199092019160209182019101610a7b565b828054600181600116156101000203166002900490600052602060002090601f016020900481019282601f106113a757805160ff19168380011785556113d4565b828001600101855582156113d4579182015b828111156113d45782518255916020019190600101906113b9565b506113e09291506113e4565b5090565b6113fe91905b808211156113e057600081556001016113ea565b9056fe7611bed4d4cecb0ffd91f83265a1def050ff505765b584fe17e8812cd4da43dca265627a7a723158209e902003203b2d02b1bfdf2fa3cb23f9149073383b223e4c4c273a73ceb1630764736f6c63430005110032",
  "source": "pragma solidity 0.5.17;\n\n// Copyright 2021 The dt-contracts Authors\n// This file is part of the dt-contracts library.\n//\n// The dt-contracts library is free software: you can redistribute it and/or modify\n// it under the terms of the GNU Lesser General Public License as published by\n// the Free Software Foundation, either version 3 of the License, or\n// (at your option) any later version.\n//\n// The dt-contracts library is distributed in the hope that it will be useful,\n// but WITHOUT ANY WARRANTY; without even the implied warranty of\n// MERCHANTABILITY or FITNESS FOR A PARTICULAR PURPOSE. See the\n// GNU Lesser General Public License for more details.\n//\n// You should have received a copy of the GNU Lesser General Public License\n// along with the dt-contracts library. If not, see <http://www.gnu.org/licenses/>.\n\nimport \"./RoleController.sol\";\n\n/**\n * @title AssetProvider\n */\ncontract AssetProvider {\n    uint256 private constant SUCCESS = 0;\n    uint256 private constant ENTERPRIZE_EXISTS = 2001;\n    uint256 private constant ENTERPRIZE_NOT_EXISTS = 2002;\n    uint256 private constant PROVIDER_EXISTS = 2003;\n    uint256 private constant PROVIDER_NOT_EXISTS = 2004;\n\n    struct Enterprize {\n        address identity;\n        string name;\n        string desc;\n    }\n\n    struct Provider {\n        address identity;\n        uint256 reputation;\n    }\n\n    mapping(address => Enterprize) enterprizeList;\n    mapping(address => Provider) providerList;\n\n    event EnterprizeRegistered(\n        address indexed _id,\n        string indexed _name,\n        string _desc,\n        uint256 indexed _code\n    );\n\n    event ProviderAdded(address indexed _id, uint256 indexed _code);\n\n    RoleController private rc;\n\n    /**\n     * @dev constructor\n     *      contract deployment\n     * @param rcAddr refers to the RoleController address\n     */\n    constructor(address rcAddr) public {\n        rc = RoleController(rcAddr);\n    }\n\n    /**\n     * @dev registerEnterprize\n     *      registers new enterprize on-chain by the admin.\n     * @param _id refers to the enterprize identifier\n     * @param _name refers to the enterprize name\n     * @param _desc refers to the enterprize description\n     */\n    function registerEnterprize(\n        address _id,\n        string memory _name,\n        string memory _desc\n    ) public {\n        if (!rc.checkPermission(msg.sender, rc.MODIFY_ENTERPRIZE())) {\n            emit EnterprizeRegistered(\n                _id,\n                _name,\n                _desc,\n                rc.ERROR_NO_PERMISSION()\n            );\n            return;\n        }\n\n        if (!rc.checkRole(_id, rc.ROLE_ENTERPRIZE())) {\n            rc.addRole(_id, rc.ROLE_ENTERPRIZE());\n        }\n\n        if (isEnterprize(_id)) {\n            emit EnterprizeRegistered(_id, _name, _desc, ENTERPRIZE_EXISTS);\n            return;\n        }\n\n        enterprizeList[_id] = Enterprize({\n            identity: _id,\n            name: _name,\n            desc: _desc\n        });\n\n        emit EnterprizeRegistered(_id, _name, _desc, SUCCESS);\n    }\n\n    /**\n     * @dev updateEnterprize\n     *      updates the enterprize on-chain by the admin.\n     * @param _id refers to the enterprize identifier\n     * @param _name refers to the enterprize name\n     * @param _desc refers to the enterprize description\n     */\n    function updateEnterprize(\n        address _id,\n        string memory _name,\n        string memory _desc\n    ) public {\n        if (!rc.checkPermission(msg.sender, rc.MODIFY_ENTERPRIZE())) {\n            emit EnterprizeRegistered(\n                _id,\n                _name,\n                _desc,\n                rc.ERROR_NO_PERMISSION()\n            );\n            return;\n        }\n\n        if (!isEnterprize(_id)) {\n            emit EnterprizeRegistered(_id, _name, _desc, ENTERPRIZE_NOT_EXISTS);\n            return;\n        }\n\n        enterprizeList[_id] = Enterprize({\n            identity: _id,\n            name: _name,\n            desc: _desc\n        });\n\n        emit EnterprizeRegistered(_id, _name, _desc, SUCCESS);\n    }\n\n    /**\n     * @dev addProvider\n     *      adds new provider on-chain by the enterprize.\n     * @param _id refers to the provider identifier\n     */\n    function addProvider(address _id) public {\n        if (!rc.checkPermission(msg.sender, rc.MODIFY_PROVIDER())) {\n            emit ProviderAdded(_id, rc.ERROR_NO_PERMISSION());\n            return;\n        }\n\n        if (!rc.checkRole(_id, rc.ROLE_PROVIDER())) {\n            rc.addRole(_id, rc.ROLE_PROVIDER());\n        }\n\n        if (isProvider(_id)) {\n            emit ProviderAdded(_id, PROVIDER_EXISTS);\n            return;\n        }\n\n        providerList[_id] = Provider({identity: _id, reputation: 0});\n\n        emit ProviderAdded(_id, SUCCESS);\n    }\n\n    /**\n     * @dev updateProvider\n     *      update the provider on-chain by the enterprize.\n     * @param _id refers to the provider identifier\n     */\n    function updateProvider(address _id) public {\n        if (!rc.checkPermission(msg.sender, rc.MODIFY_PROVIDER())) {\n            emit ProviderAdded(_id, rc.ERROR_NO_PERMISSION());\n            return;\n        }\n\n        if (!isProvider(_id)) {\n            emit ProviderAdded(_id, PROVIDER_NOT_EXISTS);\n            return;\n        }\n\n        providerList[_id] = Provider({identity: _id, reputation: 0});\n\n        emit ProviderAdded(_id, SUCCESS);\n    }\n\n    /**\n     * @dev isProvider\n     *      checks provider role.\n     * @param _id refers to the address identifier\n     * @return bool.\n     */\n    function isProvider(address _id) public view returns (bool) {\n        return providerList[_id].identity == _id;\n    }\n\n    /**\n     * @dev isEnterprize\n     *      checks enterprize role.\n     * @param _id refers to the address identifier\n     * @return bool.\n     */\n    function isEnterprize(address _id) public view returns (bool) {\n        return enterprizeList[_id].identity == _id;\n    }\n\n    /**\n     * @dev getEnterprizebyId\n     *      returns the enterprize records.\n     * @param _id refers to the enterprize identifier\n     * @return Enterprize struct.\n     */\n    function getEnterprizebyId(address _id)\n        public\n        view\n        returns (string memory name, string memory desc)\n    {\n        require(isEnterprize(_id));\n\n        name = enterprizeList[_id].name;\n        desc = enterprizeList[_id].desc;\n    }\n}\n",
  "sourcePath": "/Users/liqibing/Research/blockchain/ownership/datatoken/dt-contracts/contracts/AssetProvider.sol",
  "compiler": {
    "name": "solc",
    "version": "0.5.17+commit.d117da36.Emscripten.clang"
  },
  "schemaVersion": "3.0.19",
  "updatedAt": "2021-02-21T10:18:23.514Z",
  "devdoc": {
    "methods": {
      "addProvider(address)": {
        "details": "addProvider     adds new provider on-chain by the enterprize.",
        "params": {
          "_id": "refers to the provider identifier"
        }
      },
      "constructor": {
        "details": "constructor     contract deployment",
        "params": {
          "rcAddr": "refers to the RoleController address"
        }
      },
      "getEnterprizebyId(address)": {
        "details": "getEnterprizebyId     returns the enterprize records.",
        "params": {
          "_id": "refers to the enterprize identifier"
        },
        "return": "Enterprize struct."
      },
      "isEnterprize(address)": {
        "details": "isEnterprize     checks enterprize role.",
        "params": {
          "_id": "refers to the address identifier"
        },
        "return": "bool."
      },
      "isProvider(address)": {
        "details": "isProvider     checks provider role.",
        "params": {
          "_id": "refers to the address identifier"
        },
        "return": "bool."
      },
      "registerEnterprize(address,string,string)": {
        "details": "registerEnterprize     registers new enterprize on-chain by the admin.",
        "params": {
          "_desc": "refers to the enterprize description",
          "_id": "refers to the enterprize identifier",
          "_name": "refers to the enterprize name"
        }
      },
      "updateEnterprize(address,string,string)": {
        "details": "updateEnterprize     updates the enterprize on-chain by the admin.",
        "params": {
          "_desc": "refers to the enterprize description",
          "_id": "refers to the enterprize identifier",
          "_name": "refers to the enterprize name"
        }
      },
      "updateProvider(address)": {
        "details": "updateProvider     update the provider on-chain by the enterprize.",
        "params": {
          "_id": "refers to the provider identifier"
        }
      }
    },
    "title": "AssetProvider"
  },
  "userdoc": {
    "methods": {}
  }
}