{
  "contractName": "DTFactory",
  "abi": [
    {
      "inputs": [
        {
          "internalType": "address",
          "name": "rcAddr",
          "type": "address"
        }
      ],
      "payable": false,
      "stateMutability": "nonpayable",
      "type": "constructor"
    },
    {
      "anonymous": false,
      "inputs": [
        {
          "indexed": true,
          "internalType": "bytes32",
          "name": "_cdt",
          "type": "bytes32"
        },
        {
          "indexed": true,
          "internalType": "bytes32[]",
          "name": "_childDTs",
          "type": "bytes32[]"
        },
        {
          "indexed": false,
          "internalType": "uint256",
          "name": "_code",
          "type": "uint256"
        }
      ],
      "name": "CDTMinted",
      "type": "event"
    },
    {
      "anonymous": false,
      "inputs": [
        {
          "indexed": true,
          "internalType": "bytes32",
          "name": "_dt",
          "type": "bytes32"
        },
        {
          "indexed": false,
          "internalType": "address",
          "name": "_owner",
          "type": "address"
        },
        {
          "indexed": true,
          "internalType": "bytes32",
          "name": "_grantee",
          "type": "bytes32"
        },
        {
          "indexed": true,
          "internalType": "uint256",
          "name": "_code",
          "type": "uint256"
        }
      ],
      "name": "DataTokenGranted",
      "type": "event"
    },
    {
      "anonymous": false,
      "inputs": [
        {
          "indexed": false,
          "internalType": "bytes32",
          "name": "_dt",
          "type": "bytes32"
        },
        {
          "indexed": true,
          "internalType": "address",
          "name": "_owner",
          "type": "address"
        },
        {
          "indexed": false,
          "internalType": "address",
          "name": "_minter",
          "type": "address"
        },
        {
          "indexed": false,
          "internalType": "bool",
          "name": "_isLeaf",
          "type": "bool"
        },
        {
          "indexed": false,
          "internalType": "bytes32",
          "name": "_checksum",
          "type": "bytes32"
        },
        {
          "indexed": false,
          "internalType": "string",
          "name": "_ipfsPath",
          "type": "string"
        },
        {
          "indexed": false,
          "internalType": "uint256",
          "name": "_blockUpdated",
          "type": "uint256"
        },
        {
          "indexed": true,
          "internalType": "uint256",
          "name": "_code",
          "type": "uint256"
        }
      ],
      "name": "DataTokenMinted",
      "type": "event"
    },
    {
      "constant": true,
      "inputs": [
        {
          "internalType": "uint256",
          "name": "",
          "type": "uint256"
        }
      ],
      "name": "dts",
      "outputs": [
        {
          "internalType": "bytes32",
          "name": "",
          "type": "bytes32"
        }
      ],
      "payable": false,
      "stateMutability": "view",
      "type": "function"
    },
    {
      "constant": false,
      "inputs": [
        {
          "internalType": "bytes32",
          "name": "_dt",
          "type": "bytes32"
        },
        {
          "internalType": "address",
          "name": "_owner",
          "type": "address"
        },
        {
          "internalType": "bool",
          "name": "_isLeaf",
          "type": "bool"
        },
        {
          "internalType": "bytes32",
          "name": "_checksum",
          "type": "bytes32"
        },
        {
          "internalType": "string",
          "name": "_ipfsPath",
          "type": "string"
        }
      ],
      "name": "mintDataToken",
      "outputs": [],
      "payable": false,
      "stateMutability": "nonpayable",
      "type": "function"
    },
    {
      "constant": false,
      "inputs": [
        {
          "internalType": "bytes32",
          "name": "_dt",
          "type": "bytes32"
        },
        {
          "internalType": "bytes32",
          "name": "_grantee",
          "type": "bytes32"
        }
      ],
      "name": "grantPermission",
      "outputs": [],
      "payable": false,
      "stateMutability": "nonpayable",
      "type": "function"
    },
    {
      "constant": false,
      "inputs": [
        {
          "internalType": "bytes32",
          "name": "_cdt",
          "type": "bytes32"
        },
        {
          "internalType": "bytes32[]",
          "name": "_childDTs",
          "type": "bytes32[]"
        }
      ],
      "name": "startComposeDT",
      "outputs": [],
      "payable": false,
      "stateMutability": "nonpayable",
      "type": "function"
    },
    {
      "constant": true,
      "inputs": [
        {
          "internalType": "bytes32",
          "name": "_cdt",
          "type": "bytes32"
        },
        {
          "internalType": "bytes32[]",
          "name": "_childDTs",
          "type": "bytes32[]"
        }
      ],
      "name": "CLinksCheck",
      "outputs": [
        {
          "internalType": "bool",
          "name": "",
          "type": "bool"
        }
      ],
      "payable": false,
      "stateMutability": "view",
      "type": "function"
    },
    {
      "constant": true,
      "inputs": [
        {
          "internalType": "bytes32",
          "name": "_dt",
          "type": "bytes32"
        }
      ],
      "name": "isDTAvailable",
      "outputs": [
        {
          "internalType": "bool",
          "name": "",
          "type": "bool"
        }
      ],
      "payable": false,
      "stateMutability": "view",
      "type": "function"
    },
    {
      "constant": true,
      "inputs": [
        {
          "internalType": "bytes32",
          "name": "_cdt",
          "type": "bytes32"
        }
      ],
      "name": "isCDTAvailable",
      "outputs": [
        {
          "internalType": "bool",
          "name": "",
          "type": "bool"
        }
      ],
      "payable": false,
      "stateMutability": "view",
      "type": "function"
    },
    {
      "constant": true,
      "inputs": [
        {
          "internalType": "bytes32",
          "name": "_dt",
          "type": "bytes32"
        },
        {
          "internalType": "bytes32",
          "name": "_grantee",
          "type": "bytes32"
        }
      ],
      "name": "getPermission",
      "outputs": [
        {
          "internalType": "bool",
          "name": "",
          "type": "bool"
        }
      ],
      "payable": false,
      "stateMutability": "view",
      "type": "function"
    },
    {
      "constant": true,
      "inputs": [
        {
          "internalType": "bytes32",
          "name": "_dt",
          "type": "bytes32"
        }
      ],
      "name": "getDTOwner",
      "outputs": [
        {
          "internalType": "address",
          "name": "",
          "type": "address"
        }
      ],
      "payable": false,
      "stateMutability": "view",
      "type": "function"
    },
    {
      "constant": true,
      "inputs": [
        {
          "internalType": "bytes32",
          "name": "_dt",
          "type": "bytes32"
        }
      ],
      "name": "getBlockNumberUpdated",
      "outputs": [
        {
          "internalType": "uint256",
          "name": "blockUpdated",
          "type": "uint256"
        }
      ],
      "payable": false,
      "stateMutability": "view",
      "type": "function"
    },
    {
      "constant": true,
      "inputs": [
        {
          "internalType": "bytes32",
          "name": "_dt",
          "type": "bytes32"
        }
      ],
      "name": "getDTRegister",
      "outputs": [
        {
          "internalType": "address",
          "name": "owner",
          "type": "address"
        },
        {
          "internalType": "address",
          "name": "minter",
          "type": "address"
        },
        {
          "internalType": "bytes32",
          "name": "checksum",
          "type": "bytes32"
        },
        {
          "internalType": "bool",
          "name": "isLeaf",
          "type": "bool"
        },
        {
          "internalType": "string",
          "name": "ipfsPath",
          "type": "string"
        },
        {
          "internalType": "uint256",
          "name": "blockUpdated",
          "type": "uint256"
        }
      ],
      "payable": false,
      "stateMutability": "view",
      "type": "function"
    },
    {
      "constant": true,
      "inputs": [],
      "name": "getDTNum",
      "outputs": [
        {
          "internalType": "uint256",
          "name": "totalDTs",
          "type": "uint256"
        }
      ],
      "payable": false,
      "stateMutability": "view",
      "type": "function"
    },
    {
      "constant": true,
      "inputs": [],
      "name": "getDTMapIdx",
      "outputs": [
        {
          "internalType": "bytes32[]",
          "name": "dtmapidx",
          "type": "bytes32[]"
        }
      ],
      "payable": false,
      "stateMutability": "view",
      "type": "function"
    }
  ],
  "bytecode": "0x608060405234801561001057600080fd5b506040516119403803806119408339818101604052602081101561003357600080fd5b5051600480546001600160a01b0319166001600160a01b039092169190911790556118dd806100636000396000f3fe608060405234801561001057600080fd5b50600436106100cf5760003560e01c806375fb921b1161008c5780639cc218f4116100665780639cc218f41461049d578063bbc1dede146104ba578063cb5e5f81146104d7578063e87db2351461052f576100cf565b806375fb921b1461030d57806378052cfc146103b75780638af49807146103d4576100cf565b806303b0024c146100d45780633d187f84146100f957806342f861881461013257806343a6dea61461014c57806355e5bfd11461020a5780635d23910a1461022d575b600080fd5b6100f7600480360360408110156100ea57600080fd5b508035906020013561054c565b005b6101166004803603602081101561010f57600080fd5b50356108ae565b604080516001600160a01b039092168252519081900360200190f35b61013a6108e4565b60408051918252519081900360200190f35b6101f66004803603604081101561016257600080fd5b8135919081019060408101602082013564010000000081111561018457600080fd5b82018360208201111561019657600080fd5b803590602001918460208302840111640100000000831117156101b857600080fd5b9190808060200260200160405190810160405280939291908181526020018383602002808284376000920191909152509295506108ea945050505050565b604080519115158252519081900360200190f35b6101f66004803603604081101561022057600080fd5b50803590602001356109e1565b61024a6004803603602081101561024357600080fd5b5035610a01565b60405180876001600160a01b03166001600160a01b03168152602001866001600160a01b03166001600160a01b031681526020018581526020018415151515815260200180602001838152602001828103825284818151815260200191508051906020019080838360005b838110156102cd5781810151838201526020016102b5565b50505050905090810190601f1680156102fa5780820380516001836020036101000a031916815260200191505b5097505050505050505060405180910390f35b6100f76004803603604081101561032357600080fd5b8135919081019060408101602082013564010000000081111561034557600080fd5b82018360208201111561035757600080fd5b8035906020019184602083028401116401000000008311171561037957600080fd5b919080806020026020016040519081016040528093929190818152602001838360200280828437600092019190915250929550610b08945050505050565b6101f6600480360360208110156103cd57600080fd5b5035610f94565b6100f7600480360360a08110156103ea57600080fd5b8135916001600160a01b0360208201351691604082013515159160608101359181019060a08101608082013564010000000081111561042857600080fd5b82018360208201111561043a57600080fd5b8035906020019184600183028401116401000000008311171561045c57600080fd5b91908080601f016020809104026020016040519081016040528093929190818152602001838380828437600092019190915250929550610fb9945050505050565b6101f6600480360360208110156104b357600080fd5b5035611718565b61013a600480360360208110156104d057600080fd5b503561172d565b6104df611757565b60408051602080825283518183015283519192839290830191858101910280838360005b8381101561051b578181015183820152602001610503565b505050509050019250505060405180910390f35b61013a6004803603602081101561054557600080fd5b50356117af565b60048054604080516353205e5960e11b815290516001600160a01b039092169263a1a63f65923392859263a640bcb2928282019260209290829003018186803b15801561059857600080fd5b505afa1580156105ac573d6000803e3d6000fd5b505050506040513d60208110156105c257600080fd5b5051604080516001600160e01b031960e086901b1681526001600160a01b0390931660048401526024830191909152516044808301926020929190829003018186803b15801561061157600080fd5b505afa158015610625573d6000803e3d6000fd5b505050506040513d602081101561063b57600080fd5b50516106d957600480546040805163401d52fb60e11b815290516001600160a01b039092169263803aa5f6928282019260209290829003018186803b15801561068357600080fd5b505afa158015610697573d6000803e3d6000fd5b505050506040513d60208110156106ad57600080fd5b5051604080513381529051839185916000805160206118698339815191529181900360200190a46108aa565b600082815260016020908152604080832084845290915290205460ff161561072a57604080513381529051610fa59183918591600080516020611869833981519152919081900360200190a46108aa565b61073382610f94565b1580610745575061074381610f94565b155b1561077957604080513381529051610fa29183918591600080516020611869833981519152919081900360200190a46108aa565b6000828152602081905260409020600101546001600160a01b031633146107dc57600480546040805163401d52fb60e11b815290516001600160a01b039092169263803aa5f6928282019260209290829003018186803b15801561068357600080fd5b600082815260208190526040902060020154600160a01b900460ff1615801561080b575061080982611718565b155b8061082e5750600081815260208190526040902060020154600160a01b900460ff165b1561086257604080513381529051610fa49183918591600080516020611869833981519152919081900360200190a46108aa565b60008281526001602081815260408084208585528252808420805460ff1916909317909255815133815291518492869260008051602061186983398151915292918290030190a45b5050565b60006108b982610f94565b6108c257600080fd5b506000818152602081905260409020600101546001600160a01b03165b919050565b60035490565b60006108f583610f94565b610901575060006109db565b60005b82518110156109d55761092983828151811061091c57fe5b6020026020010151610f94565b6109375760009150506109db565b60008084838151811061094657fe5b6020026020010151815260200190815260200160002060020160149054906101000a900460ff16158015610993575061099183828151811061098457fe5b6020026020010151611718565b155b156109a25760009150506109db565b6109bf8382815181106109b157fe5b6020026020010151856109e1565b6109cd5760009150506109db565b600101610904565b60019150505b92915050565b600091825260016020908152604080842092845291905290205460ff1690565b60008060008060606000610a1487610f94565b610a1d57600080fd5b6000878152602081815260409182902060018082015460028084015460038501546004909501805488516101009682161596909602600019011692909204601f81018790048702850187019097528684526001600160a01b039283169c509182169a50929850600160a01b900460ff169650929091830182828015610ae35780601f10610ab857610100808354040283529160200191610ae3565b820191906000526020600020905b815481529060010190602001808311610ac657829003601f168201915b5050506000998a52505060208890526040909720600501549597949693959294915050565b6004805460408051637010b03d60e11b815290516001600160a01b039092169263a1a63f65923392859263e021607a928282019260209290829003018186803b158015610b5457600080fd5b505afa158015610b68573d6000803e3d6000fd5b505050506040513d6020811015610b7e57600080fd5b5051604080516001600160e01b031960e086901b1681526001600160a01b0390931660048401526024830191909152516044808301926020929190829003018186803b158015610bcd57600080fd5b505afa158015610be1573d6000803e3d6000fd5b505050506040513d6020811015610bf757600080fd5b5051610cdd578060405180828051906020019060200280838360005b83811015610c2b578181015183820152602001610c13565b50505050905001915050604051809103902082600080516020611889833981519152600460009054906101000a90046001600160a01b03166001600160a01b031663803aa5f66040518163ffffffff1660e01b815260040160206040518083038186803b158015610c9b57600080fd5b505afa158015610caf573d6000803e3d6000fd5b505050506040513d6020811015610cc557600080fd5b505160408051918252519081900360200190a36108aa565b600082815260208190526040902060020154600160a01b900460ff1615610d2b5780604051808280519060200190602002808383600083811015610c2b578181015183820152602001610c13565b610d3482611718565b15610da3578060405180828051906020019060200280838360005b83811015610d67578181015183820152602001610d4f565b505060408051959093018590038520610fa3865292519296508895506000805160206118898339815191529483900360200193505050a36108aa565b6000828152602081905260409020600101546001600160a01b03163314610df15780604051808280519060200190602002808383600083811015610c2b578181015183820152602001610c13565b610dfb82826108ea565b610edb578060405180828051906020019060200280838360005b83811015610e2d578181015183820152602001610e15565b50505050905001915050604051809103902082600080516020611889833981519152600460009054906101000a90046001600160a01b03166001600160a01b031663803aa5f66040518163ffffffff1660e01b815260040160206040518083038186803b158015610e9d57600080fd5b505afa158015610eb1573d6000803e3d6000fd5b505050506040513d6020811015610ec757600080fd5b505160408051918252519081900360200190a35b6000828152600260209081526040808320805460ff1916600190811790915560038054918201815584527fc2575a0e9e593c00f959f8c92f12db2869c3395a3b0502d05e2516446f71f85b0185905551835184939192839285820192909102908190849084905b83811015610f5a578181015183820152602001610f42565b5050604080519590930185900385206000865292519296508895506000805160206118898339815191529483900360200193505050a35050565b6000818152602081905260408120548214610fb1575060006108df565b506001919050565b6004805460408051637010b03d60e11b815290516001600160a01b039092169263a1a63f65923392859263e021607a928282019260209290829003018186803b15801561100557600080fd5b505afa158015611019573d6000803e3d6000fd5b505050506040513d602081101561102f57600080fd5b5051604080516001600160e01b031960e086901b1681526001600160a01b0390931660048401526024830191909152516044808301926020929190829003018186803b15801561107e57600080fd5b505afa158015611092573d6000803e3d6000fd5b505050506040513d60208110156110a857600080fd5b50516111fd57600480546040805163401d52fb60e11b815290516001600160a01b039092169263803aa5f6928282019260209290829003018186803b1580156110f057600080fd5b505afa158015611104573d6000803e3d6000fd5b505050506040513d602081101561111a57600080fd5b50516040805187815233602082810182905287151593830193909352606082018690524360a0830181905260c06080840181815287519185019190915286516001600160a01b038b16957f13618bea4e26ba42c87386009db40e13fd0df4adefebb4b15381fda19561d66a958d95948c948c948c9492939260e08401919086019080838360005b838110156111b95781810151838201526020016111a1565b50505050905090810190601f1680156111e65780820380516001836020036101000a031916815260200191505b5097505050505050505060405180910390a3611711565b61120685610f94565b156112af57610fa1846001600160a01b03167f13618bea4e26ba42c87386009db40e13fd0df4adefebb4b15381fda19561d66a87338787874360405180878152602001866001600160a01b03166001600160a01b03168152602001851515151581526020018481526020018060200183815260200182810382528481815181526020019150805190602001908083836000838110156111b95781810151838201526020016111a1565b6004805460408051631af0ab1d60e01b815290516001600160a01b039092169263505ef22f9288928592631af0ab1d928282019260209290829003018186803b1580156112fb57600080fd5b505afa15801561130f573d6000803e3d6000fd5b505050506040513d602081101561132557600080fd5b5051604080516001600160e01b031960e086901b1681526001600160a01b0390931660048401526024830191909152516044808301926020929190829003018186803b15801561137457600080fd5b505afa158015611388573d6000803e3d6000fd5b505050506040513d602081101561139e57600080fd5b50516113e657600480546040805163401d52fb60e11b815290516001600160a01b039092169263803aa5f6928282019260209290829003018186803b1580156110f057600080fd5b821580156114e257506004805460408051633bac774360e21b815290516001600160a01b039092169263505ef22f928892859263eeb1dd0c928282019260209290829003018186803b15801561143b57600080fd5b505afa15801561144f573d6000803e3d6000fd5b505050506040513d602081101561146557600080fd5b5051604080516001600160e01b031960e086901b1681526001600160a01b0390931660048401526024830191909152516044808301926020929190829003018186803b1580156114b457600080fd5b505afa1580156114c8573d6000803e3d6000fd5b505050506040513d60208110156114de57600080fd5b5051155b1561152957600480546040805163401d52fb60e11b815290516001600160a01b039092169263803aa5f6928282019260209290829003018186803b1580156110f057600080fd5b6040805160e0810182528681526001600160a01b03868116602080840191825233848601908152881515606086019081526080860189815260a087018981524360c089015260008e8152808652989098208751815594516001860180546001600160a01b0319908116928916929092179055925160028601805493519390941696169590951760ff60a01b1916600160a01b9115159190910217905591516003820155925180519293926115e392600485019201906117cd565b5060c08201518160050155905050821561162d57600380546001810182556000919091527fc2575a0e9e593c00f959f8c92f12db2869c3395a3b0502d05e2516446f71f85b018590555b6000846001600160a01b03167f13618bea4e26ba42c87386009db40e13fd0df4adefebb4b15381fda19561d66a87338787874360405180878152602001866001600160a01b03166001600160a01b031681526020018515151515815260200184815260200180602001838152602001828103825284818151815260200191508051906020019080838360005b838110156116d15781810151838201526020016116b9565b50505050905090810190601f1680156116fe5780820380516001836020036101000a031916815260200191505b5097505050505050505060405180910390a35b5050505050565b60009081526002602052604090205460ff1690565b600061173882610f94565b61174157600080fd5b5060009081526020819052604090206005015490565b606060038054806020026020016040519081016040528092919081815260200182805480156117a557602002820191906000526020600020905b815481526020019060010190808311611791575b5050505050905090565b600381815481106117bc57fe5b600091825260209091200154905081565b828054600181600116156101000203166002900490600052602060002090601f016020900481019282601f1061180e57805160ff191683800117855561183b565b8280016001018555821561183b579182015b8281111561183b578251825591602001919060010190611820565b5061184792915061184b565b5090565b61186591905b808211156118475760008155600101611851565b9056fe0130d4ecd60550a3f938625567373e4cf640a9452f5b7905e786e2f1272b956cda686529d789b252a43396ac538f9a597b61660acb44b8836d9f3b81381043b6a265627a7a72315820fadb10700c30654fa9ead922ae637d19ad902d8db89865a13e3e0be3058059de64736f6c63430005110032",
  "source": "pragma solidity 0.5.17;\n\n// Copyright 2021 The dt-contracts Authors\n// This file is part of the dt-contracts library.\n//\n// The dt-contracts library is free software: you can redistribute it and/or modify\n// it under the terms of the GNU Lesser General Public License as published by\n// the Free Software Foundation, either version 3 of the License, or\n// (at your option) any later version.\n//\n// The dt-contracts library is distributed in the hope that it will be useful,\n// but WITHOUT ANY WARRANTY; without even the implied warranty of\n// MERCHANTABILITY or FITNESS FOR A PARTICULAR PURPOSE. See the\n// GNU Lesser General Public License for more details.\n//\n// You should have received a copy of the GNU Lesser General Public License\n// along with the dt-contracts library. If not, see <http://www.gnu.org/licenses/>.\n\nimport \"./RoleController.sol\";\n\n/**\n * @title DTFactory\n */\ncontract DTFactory {\n    uint256 private constant SUCCESS = 0;\n    uint256 private constant DT_EXISTS = 4001;\n    uint256 private constant DT_NOT_EXISTS = 4002;\n    uint256 private constant CDT_EXISTS = 4003;\n    uint256 private constant CDT_NOT_EXISTS = 4004;\n    uint256 private constant DT_GRATED = 4005;\n    uint256 private constant DT_NOT_GRATED = 4006;\n\n    struct DataToken {\n        bytes32 dt;\n        address owner;\n        address minter;\n        bool isLeaf;\n        bytes32 checksum;\n        string ipfsPath;\n        uint256 blockUpdated;\n    }\n\n    // all dts including leaf/composable\n    mapping(bytes32 => DataToken) DTLists;\n    // dt permission chain\n    mapping(bytes32 => mapping(bytes32 => bool)) DTPermissions;\n    // available cdts\n    mapping(bytes32 => bool) CDTLists;\n\n    bytes32[] public dts;\n\n    event DataTokenMinted(\n        bytes32 _dt,\n        address indexed _owner,\n        address _minter,\n        bool _isLeaf,\n        bytes32 _checksum,\n        string _ipfsPath,\n        uint256 _blockUpdated,\n        uint256 indexed _code\n    );\n\n    event CDTMinted(\n        bytes32 indexed _cdt,\n        bytes32[] indexed _childDTs,\n        uint256 _code\n    );\n\n    event DataTokenGranted(\n        bytes32 indexed _dt,\n        address _owner,\n        bytes32 indexed _grantee,\n        uint256 indexed _code\n    );\n\n    RoleController private rc;\n\n    /**\n     * @dev constructor\n     *      contract deployment\n     * @param rcAddr refers to the RoleController address\n     */\n    constructor(address rcAddr) public {\n        rc = RoleController(rcAddr);\n    }\n\n    /**\n     * @dev mintDataToken\n     *      creates new data token on-chain.\n     * @param _dt refers to data token identifier\n     * @param _owner refers to data token owner\n     * @param _isLeaf leaf dt or composable dt\n     * @param _checksum checksum associated with dt/metadata\n     * @param _ipfsPath refers to the metadata storage path\n     */\n    function mintDataToken(\n        bytes32 _dt,\n        address _owner,\n        bool _isLeaf,\n        bytes32 _checksum,\n        string memory _ipfsPath\n    ) public {\n        if (!rc.checkPermission(msg.sender, rc.MODIFY_ASSET())) {\n            emit DataTokenMinted(\n                _dt,\n                _owner,\n                msg.sender,\n                _isLeaf,\n                _checksum,\n                _ipfsPath,\n                block.number,\n                rc.ERROR_NO_PERMISSION()\n            );\n            return;\n        }\n\n        if (isDTAvailable(_dt)) {\n            emit DataTokenMinted(\n                _dt,\n                _owner,\n                msg.sender,\n                _isLeaf,\n                _checksum,\n                _ipfsPath,\n                block.number,\n                DT_EXISTS\n            );\n            return;\n        }\n\n        if (!rc.checkRole(_owner, rc.ROLE_PROVIDER())) {\n            emit DataTokenMinted(\n                _dt,\n                _owner,\n                msg.sender,\n                _isLeaf,\n                _checksum,\n                _ipfsPath,\n                block.number,\n                rc.ERROR_NO_PERMISSION()\n            );\n            return;\n        }\n\n        // Owner of composable DT must be aggregator (enterprize now)\n        if (!_isLeaf && !rc.checkRole(_owner, rc.ROLE_ENTERPRIZE())) {\n            emit DataTokenMinted(\n                _dt,\n                _owner,\n                msg.sender,\n                _isLeaf,\n                _checksum,\n                _ipfsPath,\n                block.number,\n                rc.ERROR_NO_PERMISSION()\n            );\n            return;\n        }\n\n        DTLists[_dt] = DataToken({\n            dt: _dt,\n            owner: _owner,\n            minter: msg.sender,\n            isLeaf: _isLeaf,\n            checksum: _checksum,\n            ipfsPath: _ipfsPath,\n            blockUpdated: block.number\n        });\n\n        if (_isLeaf) {\n            dts.push(_dt);\n        }\n\n        emit DataTokenMinted(\n            _dt,\n            _owner,\n            msg.sender,\n            _isLeaf,\n            _checksum,\n            _ipfsPath,\n            block.number,\n            SUCCESS\n        );\n    }\n\n    /**\n     * @dev grantPermission\n     *      It grants one dt to other dt.\n     * @param _dt refers to data token identifier\n     * @param _grantee refers to granted dt identifier\n     */\n    function grantPermission(bytes32 _dt, bytes32 _grantee) external {\n        if (!rc.checkPermission(msg.sender, rc.MODIFY_AUTHORIZE())) {\n            emit DataTokenGranted(\n                _dt,\n                msg.sender,\n                _grantee,\n                rc.ERROR_NO_PERMISSION()\n            );\n            return;\n        }\n\n        if (DTPermissions[_dt][_grantee] != false) {\n            emit DataTokenGranted(_dt, msg.sender, _grantee, DT_GRATED);\n            return;\n        }\n\n        if (!isDTAvailable(_dt) || !isDTAvailable(_grantee)) {\n            emit DataTokenGranted(_dt, msg.sender, _grantee, DT_NOT_EXISTS);\n            return;\n        }\n\n        if (DTLists[_dt].owner != msg.sender) {\n            emit DataTokenGranted(\n                _dt,\n                msg.sender,\n                _grantee,\n                rc.ERROR_NO_PERMISSION()\n            );\n            return;\n        }\n\n        // grantee must be composable DT\n        if (\n            (!DTLists[_dt].isLeaf && !isCDTAvailable(_dt)) ||\n            DTLists[_grantee].isLeaf\n        ) {\n            emit DataTokenGranted(_dt, msg.sender, _grantee, CDT_NOT_EXISTS);\n            return;\n        }\n\n        DTPermissions[_dt][_grantee] = true;\n\n        emit DataTokenGranted(_dt, msg.sender, _grantee, SUCCESS);\n    }\n\n    /**\n     * @dev startComposeDT\n     *      activates the CDT by the aggregator when all perms are ready.\n     * @param _cdt refers to cdt identifier\n     * @param _childDTs associated with child_dts identifier\n     */\n    function startComposeDT(bytes32 _cdt, bytes32[] memory _childDTs) public {\n        if (!rc.checkPermission(msg.sender, rc.MODIFY_ASSET())) {\n            emit CDTMinted(_cdt, _childDTs, rc.ERROR_NO_PERMISSION());\n            return;\n        }\n\n        if (DTLists[_cdt].isLeaf) {\n            emit CDTMinted(_cdt, _childDTs, rc.ERROR_NO_PERMISSION());\n            return;\n        }\n\n        if (isCDTAvailable(_cdt)) {\n            emit CDTMinted(_cdt, _childDTs, CDT_EXISTS);\n            return;\n        }\n\n        if (DTLists[_cdt].owner != msg.sender) {\n            emit CDTMinted(_cdt, _childDTs, rc.ERROR_NO_PERMISSION());\n            return;\n        }\n\n        if (!CLinksCheck(_cdt, _childDTs)) {\n            emit CDTMinted(_cdt, _childDTs, rc.ERROR_NO_PERMISSION());\n        }\n\n        CDTLists[_cdt] = true;\n        \n        dts.push(_cdt);\n\n        emit CDTMinted(_cdt, _childDTs, SUCCESS);\n    }\n\n    /**\n     * @dev CLinksCheck\n     *      checks permission for related parties of a Composable DT.\n     * @param _cdt refers to cdt identifier\n     * @param _childDTs refers to child_dts identifiers\n     * @return bool.\n     */\n    function CLinksCheck(bytes32 _cdt, bytes32[] memory _childDTs)\n        public\n        view\n        returns (bool)\n    {\n        if (!isDTAvailable(_cdt)) {\n            return false;\n        }\n\n        uint256 idx = 0;\n        for (idx = 0; idx < _childDTs.length; idx++) {\n            if (!isDTAvailable(_childDTs[idx])) {\n                return false;\n            }\n            if (\n                !DTLists[_childDTs[idx]].isLeaf &&\n                !isCDTAvailable(_childDTs[idx])\n            ) {\n                return false;\n            }\n            if (!getPermission(_childDTs[idx], _cdt)) {\n                return false;\n            }\n        }\n\n        return true;\n    }\n\n    /**\n     * @dev isDTAvailable\n     * @param _dt refers to the dt identifier\n     * @return bool.\n     */\n    function isDTAvailable(bytes32 _dt) public view returns (bool) {\n        if (DTLists[_dt].dt != _dt) {\n            return false;\n        }\n        return true;\n    }\n\n    /**\n     * @dev isCDTAvailable\n     * @param _cdt refers to the cdt identifier\n     * @return bool.\n     */\n    function isCDTAvailable(bytes32 _cdt) public view returns (bool) {\n        return CDTLists[_cdt];\n    }\n\n    /**\n     * @dev getPermission\n     *      check permission.\n     * @param _dt refers to data token identifier\n     * @param _grantee refers to granted dt identifier\n     * @return is granted or not.\n     */\n    function getPermission(bytes32 _dt, bytes32 _grantee)\n        public\n        view\n        returns (bool)\n    {\n        return DTPermissions[_dt][_grantee];\n    }\n\n    /**\n     * @dev getDTOwner\n     *      It returns the owner for a data token.\n     * @param _dt refers to data token identifier\n     * @return owner address.\n     */\n    function getDTOwner(bytes32 _dt) public view returns (address) {\n        require(isDTAvailable(_dt));\n\n        return DTLists[_dt].owner;\n    }\n\n    /**\n     * @dev getBlockNumberUpdated\n     *      It returns the blockUpdated for a data token.\n     * @param _dt refers to data token identifier\n     * @return blockUpdated.\n     */\n    function getBlockNumberUpdated(bytes32 _dt)\n        public\n        view\n        returns (uint256 blockUpdated)\n    {\n        require(isDTAvailable(_dt));\n\n        return DTLists[_dt].blockUpdated;\n    }\n\n    /**\n     * @dev getDTRegister\n     *      It returns the dt records.\n     * @param _dt refers to data token identifier\n     * @return DataToken struct.\n     */\n    function getDTRegister(bytes32 _dt)\n        public\n        view\n        returns (\n            address owner,\n            address minter,\n            bytes32 checksum,\n            bool isLeaf,\n            string memory ipfsPath,\n            uint256 blockUpdated\n        )\n    {\n        require(isDTAvailable(_dt));\n\n        owner = DTLists[_dt].owner;\n        minter = DTLists[_dt].minter;\n        checksum = DTLists[_dt].checksum;\n        isLeaf = DTLists[_dt].isLeaf;\n        ipfsPath = DTLists[_dt].ipfsPath;\n        blockUpdated = DTLists[_dt].blockUpdated;\n    }\n\n    /**\n     * @dev getDTNum\n     *      gets the total datatoken numbers.\n     * @return uint256.\n     */\n    function getDTNum()\n        public\n        view\n        returns (\n            uint256 totalDTs\n        )\n    {\n        totalDTs = dts.length;\n    }\n\n    /**\n     * @dev getDTMapIdx\n     *      gets all available dts.\n     * @return bytes32[].\n     */\n    function getDTMapIdx()\n        public\n        view\n        returns (\n            bytes32[] memory dtmapidx\n        )\n    {\n        dtmapidx = dts;\n    }\n}\n",
  "sourcePath": "/Users/liqibing/Research/blockchain/ownership/datatoken/dt-contracts/contracts/DTFactory.sol",
  "compiler": {
    "name": "solc",
    "version": "0.5.17+commit.d117da36.Emscripten.clang"
  },
  "schemaVersion": "3.0.19",
  "updatedAt": "2021-04-10T14:08:11.035Z",
  "devdoc": {
    "methods": {
      "CLinksCheck(bytes32,bytes32[])": {
        "details": "CLinksCheck     checks permission for related parties of a Composable DT.",
        "params": {
          "_cdt": "refers to cdt identifier",
          "_childDTs": "refers to child_dts identifiers"
        },
        "return": "bool."
      },
      "constructor": {
        "details": "constructor     contract deployment",
        "params": {
          "rcAddr": "refers to the RoleController address"
        }
      },
      "getBlockNumberUpdated(bytes32)": {
        "details": "getBlockNumberUpdated     It returns the blockUpdated for a data token.",
        "params": {
          "_dt": "refers to data token identifier"
        },
        "return": "blockUpdated."
      },
      "getDTMapIdx()": {
        "details": "getDTMapIdx     gets all available dts.",
        "return": "bytes32[]."
      },
      "getDTNum()": {
        "details": "getDTNum     gets the total datatoken numbers.",
        "return": "uint256."
      },
      "getDTOwner(bytes32)": {
        "details": "getDTOwner     It returns the owner for a data token.",
        "params": {
          "_dt": "refers to data token identifier"
        },
        "return": "owner address."
      },
      "getDTRegister(bytes32)": {
        "details": "getDTRegister     It returns the dt records.",
        "params": {
          "_dt": "refers to data token identifier"
        },
        "return": "DataToken struct."
      },
      "getPermission(bytes32,bytes32)": {
        "details": "getPermission     check permission.",
        "params": {
          "_dt": "refers to data token identifier",
          "_grantee": "refers to granted dt identifier"
        },
        "return": "is granted or not."
      },
      "grantPermission(bytes32,bytes32)": {
        "details": "grantPermission     It grants one dt to other dt.",
        "params": {
          "_dt": "refers to data token identifier",
          "_grantee": "refers to granted dt identifier"
        }
      },
      "isCDTAvailable(bytes32)": {
        "details": "isCDTAvailable",
        "params": {
          "_cdt": "refers to the cdt identifier"
        },
        "return": "bool."
      },
      "isDTAvailable(bytes32)": {
        "details": "isDTAvailable",
        "params": {
          "_dt": "refers to the dt identifier"
        },
        "return": "bool."
      },
      "mintDataToken(bytes32,address,bool,bytes32,string)": {
        "details": "mintDataToken     creates new data token on-chain.",
        "params": {
          "_checksum": "checksum associated with dt/metadata",
          "_dt": "refers to data token identifier",
          "_ipfsPath": "refers to the metadata storage path",
          "_isLeaf": "leaf dt or composable dt",
          "_owner": "refers to data token owner"
        }
      },
      "startComposeDT(bytes32,bytes32[])": {
        "details": "startComposeDT     activates the CDT by the aggregator when all perms are ready.",
        "params": {
          "_cdt": "refers to cdt identifier",
          "_childDTs": "associated with child_dts identifier"
        }
      }
    },
    "title": "DTFactory"
  },
  "userdoc": {
    "methods": {}
  }
}