{
  "contractName": "DTFactory",
  "abi": [
    {
      "inputs": [
        {
          "internalType": "address",
          "name": "rcAddr",
          "type": "address"
        }
      ],
      "payable": false,
      "stateMutability": "nonpayable",
      "type": "constructor"
    },
    {
      "anonymous": false,
      "inputs": [
        {
          "indexed": true,
          "internalType": "bytes32",
          "name": "_cdt",
          "type": "bytes32"
        },
        {
          "indexed": true,
          "internalType": "bytes32[]",
          "name": "_childDTs",
          "type": "bytes32[]"
        },
        {
          "indexed": false,
          "internalType": "uint256",
          "name": "_code",
          "type": "uint256"
        }
      ],
      "name": "CDTMinted",
      "type": "event"
    },
    {
      "anonymous": false,
      "inputs": [
        {
          "indexed": true,
          "internalType": "bytes32",
          "name": "_dt",
          "type": "bytes32"
        },
        {
          "indexed": false,
          "internalType": "address",
          "name": "_owner",
          "type": "address"
        },
        {
          "indexed": true,
          "internalType": "bytes32",
          "name": "_grantee",
          "type": "bytes32"
        },
        {
          "indexed": true,
          "internalType": "uint256",
          "name": "_code",
          "type": "uint256"
        }
      ],
      "name": "DataTokenGranted",
      "type": "event"
    },
    {
      "anonymous": false,
      "inputs": [
        {
          "indexed": false,
          "internalType": "bytes32",
          "name": "_dt",
          "type": "bytes32"
        },
        {
          "indexed": true,
          "internalType": "address",
          "name": "_owner",
          "type": "address"
        },
        {
          "indexed": false,
          "internalType": "address",
          "name": "_minter",
          "type": "address"
        },
        {
          "indexed": false,
          "internalType": "bool",
          "name": "_isLeaf",
          "type": "bool"
        },
        {
          "indexed": false,
          "internalType": "bytes32",
          "name": "_checksum",
          "type": "bytes32"
        },
        {
          "indexed": false,
          "internalType": "string",
          "name": "_ipfsPath",
          "type": "string"
        },
        {
          "indexed": false,
          "internalType": "uint256",
          "name": "_blockUpdated",
          "type": "uint256"
        },
        {
          "indexed": true,
          "internalType": "uint256",
          "name": "_code",
          "type": "uint256"
        }
      ],
      "name": "DataTokenMinted",
      "type": "event"
    },
    {
      "constant": true,
      "inputs": [
        {
          "internalType": "uint256",
          "name": "",
          "type": "uint256"
        }
      ],
      "name": "dts",
      "outputs": [
        {
          "internalType": "bytes32",
          "name": "",
          "type": "bytes32"
        }
      ],
      "payable": false,
      "stateMutability": "view",
      "type": "function"
    },
    {
      "constant": false,
      "inputs": [
        {
          "internalType": "bytes32",
          "name": "_dt",
          "type": "bytes32"
        },
        {
          "internalType": "address",
          "name": "_owner",
          "type": "address"
        },
        {
          "internalType": "bool",
          "name": "_isLeaf",
          "type": "bool"
        },
        {
          "internalType": "bytes32",
          "name": "_checksum",
          "type": "bytes32"
        },
        {
          "internalType": "string",
          "name": "_ipfsPath",
          "type": "string"
        }
      ],
      "name": "mintDataToken",
      "outputs": [],
      "payable": false,
      "stateMutability": "nonpayable",
      "type": "function"
    },
    {
      "constant": false,
      "inputs": [
        {
          "internalType": "bytes32",
          "name": "_dt",
          "type": "bytes32"
        },
        {
          "internalType": "bytes32",
          "name": "_grantee",
          "type": "bytes32"
        }
      ],
      "name": "grantPermission",
      "outputs": [],
      "payable": false,
      "stateMutability": "nonpayable",
      "type": "function"
    },
    {
      "constant": false,
      "inputs": [
        {
          "internalType": "bytes32",
          "name": "_cdt",
          "type": "bytes32"
        },
        {
          "internalType": "bytes32[]",
          "name": "_childDTs",
          "type": "bytes32[]"
        }
      ],
      "name": "startComposeDT",
      "outputs": [],
      "payable": false,
      "stateMutability": "nonpayable",
      "type": "function"
    },
    {
      "constant": true,
      "inputs": [
        {
          "internalType": "bytes32",
          "name": "_cdt",
          "type": "bytes32"
        },
        {
          "internalType": "bytes32[]",
          "name": "_childDTs",
          "type": "bytes32[]"
        }
      ],
      "name": "CLinksCheck",
      "outputs": [
        {
          "internalType": "bool",
          "name": "",
          "type": "bool"
        }
      ],
      "payable": false,
      "stateMutability": "view",
      "type": "function"
    },
    {
      "constant": true,
      "inputs": [
        {
          "internalType": "bytes32",
          "name": "_dt",
          "type": "bytes32"
        }
      ],
      "name": "isDTAvailable",
      "outputs": [
        {
          "internalType": "bool",
          "name": "",
          "type": "bool"
        }
      ],
      "payable": false,
      "stateMutability": "view",
      "type": "function"
    },
    {
      "constant": true,
      "inputs": [
        {
          "internalType": "bytes32",
          "name": "_cdt",
          "type": "bytes32"
        }
      ],
      "name": "isCDTAvailable",
      "outputs": [
        {
          "internalType": "bool",
          "name": "",
          "type": "bool"
        }
      ],
      "payable": false,
      "stateMutability": "view",
      "type": "function"
    },
    {
      "constant": true,
      "inputs": [
        {
          "internalType": "bytes32",
          "name": "_dt",
          "type": "bytes32"
        },
        {
          "internalType": "bytes32",
          "name": "_grantee",
          "type": "bytes32"
        }
      ],
      "name": "getPermission",
      "outputs": [
        {
          "internalType": "bool",
          "name": "",
          "type": "bool"
        }
      ],
      "payable": false,
      "stateMutability": "view",
      "type": "function"
    },
    {
      "constant": true,
      "inputs": [
        {
          "internalType": "bytes32",
          "name": "_dt",
          "type": "bytes32"
        }
      ],
      "name": "getDTOwner",
      "outputs": [
        {
          "internalType": "address",
          "name": "",
          "type": "address"
        }
      ],
      "payable": false,
      "stateMutability": "view",
      "type": "function"
    },
    {
      "constant": true,
      "inputs": [
        {
          "internalType": "bytes32",
          "name": "_dt",
          "type": "bytes32"
        }
      ],
      "name": "getBlockNumberUpdated",
      "outputs": [
        {
          "internalType": "uint256",
          "name": "blockUpdated",
          "type": "uint256"
        }
      ],
      "payable": false,
      "stateMutability": "view",
      "type": "function"
    },
    {
      "constant": true,
      "inputs": [
        {
          "internalType": "bytes32",
          "name": "_dt",
          "type": "bytes32"
        }
      ],
      "name": "getDTRegister",
      "outputs": [
        {
          "internalType": "address",
          "name": "owner",
          "type": "address"
        },
        {
          "internalType": "address",
          "name": "minter",
          "type": "address"
        },
        {
          "internalType": "bytes32",
          "name": "checksum",
          "type": "bytes32"
        },
        {
          "internalType": "bool",
          "name": "isLeaf",
          "type": "bool"
        },
        {
          "internalType": "string",
          "name": "ipfsPath",
          "type": "string"
        },
        {
          "internalType": "uint256",
          "name": "blockUpdated",
          "type": "uint256"
        }
      ],
      "payable": false,
      "stateMutability": "view",
      "type": "function"
    },
    {
      "constant": true,
      "inputs": [],
      "name": "getDTNum",
      "outputs": [
        {
          "internalType": "uint256",
          "name": "totalDTs",
          "type": "uint256"
        }
      ],
      "payable": false,
      "stateMutability": "view",
      "type": "function"
    },
    {
      "constant": true,
      "inputs": [],
      "name": "getDTMap",
      "outputs": [
        {
          "internalType": "bytes32[]",
          "name": "dtidx",
          "type": "bytes32[]"
        },
        {
          "internalType": "address[]",
          "name": "owners",
          "type": "address[]"
        },
        {
          "internalType": "address[]",
          "name": "minters",
          "type": "address[]"
        },
        {
          "internalType": "bytes32[]",
          "name": "checksums",
          "type": "bytes32[]"
        },
        {
          "internalType": "bool[]",
          "name": "isLeafs",
          "type": "bool[]"
        },
        {
          "internalType": "string[]",
          "name": "ipfsPaths",
          "type": "string[]"
        },
        {
          "internalType": "uint256[]",
          "name": "blockUpdateds",
          "type": "uint256[]"
        }
      ],
      "payable": false,
      "stateMutability": "view",
      "type": "function"
    }
  ],
  "bytecode": "0x60806040523480156200001157600080fd5b50604051620020003803806200200083398101604081905262000034916200006d565b600480546001600160a01b0319166001600160a01b0392909216919091179055620000c2565b80516200006781620000a8565b92915050565b6000602082840312156200008057600080fd5b60006200008e84846200005a565b949350505050565b60006001600160a01b03821662000067565b620000b38162000096565b8114620000bf57600080fd5b50565b611f2e80620000d26000396000f3fe608060405234801561001057600080fd5b50600436106100cf5760003560e01c80635d23910a1161008c5780638af49807116100665780638af49807146101c05780639cc218f4146101d3578063bbc1dede146101e6578063e87db235146101f9576100cf565b80635d23910a1461017557806375fb921b1461019a57806378052cfc146101ad576100cf565b806303b0024c146100d45780633ccf81ed146100e95780633d187f841461010d57806342f861881461012d57806343a6dea61461014257806355e5bfd114610162575b600080fd5b6100e76100e2366004611905565b61020c565b005b6100f161055c565b6040516101049796959493929190611ca5565b60405180910390f35b61012061011b366004611808565b6109c4565b6040516101049190611bff565b6101356109fa565b6040516101049190611d49565b6101556101503660046118b3565b610a00565b6040516101049190611d3b565b610155610170366004611905565b610af7565b610188610183366004611808565b610b17565b60405161010496959493929190611c36565b6100e76101a83660046118b3565b610c1e565b6101556101bb366004611808565b610fda565b6100e76101ce366004611826565b610fff565b6101556101e1366004611808565b6115e5565b6101356101f4366004611808565b6115fa565b610135610207366004611808565b611624565b60048054604080516353205e5960e11b815290516001600160a01b039092169263a1a63f65923392859263a640bcb2928282019260209290829003018186803b15801561025857600080fd5b505afa15801561026c573d6000803e3d6000fd5b505050506040513d601f19601f820116820180604052506102909190810190611935565b6040518363ffffffff1660e01b81526004016102ad929190611c1b565b60206040518083038186803b1580156102c557600080fd5b505afa1580156102d9573d6000803e3d6000fd5b505050506040513d601f19601f820116820180604052506102fd91908101906117e2565b6103a757600480546040805163401d52fb60e11b815290516001600160a01b039092169263803aa5f6928282019260209290829003018186803b15801561034357600080fd5b505afa158015610357573d6000803e3d6000fd5b505050506040513d601f19601f8201168201806040525061037b9190810190611935565b8183600080516020611eac8339815191523360405161039a9190611c0d565b60405180910390a4610558565b600082815260016020908152604080832084845290915290205460ff16156103eb57610fa58183600080516020611eac8339815191523360405161039a9190611c0d565b6103f482610fda565b1580610406575061040481610fda565b155b1561042d57610fa28183600080516020611eac8339815191523360405161039a9190611c0d565b6000828152602081905260409020600101546001600160a01b0316331461049057600480546040805163401d52fb60e11b815290516001600160a01b039092169263803aa5f6928282019260209290829003018186803b15801561034357600080fd5b600082815260208190526040902060020154600160a01b900460ff161580156104bf57506104bd826115e5565b155b806104e25750600081815260208190526040902060020154600160a01b900460ff165b1561050957610fa48183600080516020611eac8339815191523360405161039a9190611c0d565b6000828152600160208181526040808420858552909152808320805460ff19169092179091555182908490600080516020611eac8339815191529061054f903390611c0d565b60405180910390a45b5050565b6060806060806060806060600380549050604051908082528060200260200182016040528015610596578160200160208202803883390190505b5060035460408051828152602080840282010190915291985080156105c5578160200160208202803883390190505b5060035460408051828152602080840282010190915291975080156105f4578160200160208202803883390190505b506003546040805182815260208084028201019091529196508015610623578160200160208202803883390190505b506003546040805182815260208084028201019091529195508015610652578160200160208202803883390190505b50600354604080518281526020808402820101909152919450801561068b57816020015b60608152602001906001900390816106765790505b5060035460408051828152602080840282010190915291935080156106ba578160200160208202803883390190505b50905060005b60035481101561096757600080600383815481106106da57fe5b9060005260206000200154815260200190815260200160002060010160009054906101000a90046001600160a01b031687828151811061071657fe5b60200260200101906001600160a01b031690816001600160a01b0316815250506000806003838154811061074657fe5b9060005260206000200154815260200190815260200160002060020160009054906101000a90046001600160a01b031686828151811061078257fe5b60200260200101906001600160a01b031690816001600160a01b031681525050600080600383815481106107b257fe5b90600052602060002001548152602001908152602001600020600301548582815181106107db57fe5b602002602001018181525050600080600383815481106107f757fe5b9060005260206000200154815260200190815260200160002060020160149054906101000a900460ff1684828151811061082d57fe5b6020026020010190151590811515815250506000806003838154811061084f57fe5b906000526020600020015481526020019081526020016000206004018054600181600116156101000203166002900480601f0160208091040260200160405190810160405280929190818152602001828054600181600116156101000203166002900480156108ff5780601f106108d4576101008083540402835291602001916108ff565b820191906000526020600020905b8154815290600101906020018083116108e257829003601f168201915b505050505083828151811061091057fe5b60200260200101819052506000806003838154811061092b57fe5b906000526020600020015481526020019081526020016000206005015482828151811061095457fe5b60209081029190910101526001016106c0565b5060038054806020026020016040519081016040528092919081815260200182805480156109b457602002820191906000526020600020905b8154815260200190600101908083116109a0575b5050505050965090919293949596565b60006109cf82610fda565b6109d857600080fd5b506000818152602081905260409020600101546001600160a01b03165b919050565b60035490565b6000610a0b83610fda565b610a1757506000610af1565b60005b8251811015610aeb57610a3f838281518110610a3257fe5b6020026020010151610fda565b610a4d576000915050610af1565b600080848381518110610a5c57fe5b6020026020010151815260200190815260200160002060020160149054906101000a900460ff16158015610aa95750610aa7838281518110610a9a57fe5b60200260200101516115e5565b155b15610ab8576000915050610af1565b610ad5838281518110610ac757fe5b602002602001015185610af7565b610ae3576000915050610af1565b600101610a1a565b60019150505b92915050565b600091825260016020908152604080842092845291905290205460ff1690565b60008060008060606000610b2a87610fda565b610b3357600080fd5b6000878152602081815260409182902060018082015460028084015460038501546004909501805488516101009682161596909602600019011692909204601f81018790048702850187019097528684526001600160a01b039283169c509182169a50929850600160a01b900460ff169650929091830182828015610bf95780601f10610bce57610100808354040283529160200191610bf9565b820191906000526020600020905b815481529060010190602001808311610bdc57829003601f168201915b5050506000998a52505060208890526040909720600501549597949693959294915050565b6004805460408051637010b03d60e11b815290516001600160a01b039092169263a1a63f65923392859263e021607a928282019260209290829003018186803b158015610c6a57600080fd5b505afa158015610c7e573d6000803e3d6000fd5b505050506040513d601f19601f82011682018060405250610ca29190810190611935565b6040518363ffffffff1660e01b8152600401610cbf929190611c1b565b60206040518083038186803b158015610cd757600080fd5b505afa158015610ceb573d6000803e3d6000fd5b505050506040513d601f19601f82011682018060405250610d0f91908101906117e2565b610dd95780604051610d219190611bf3565b604051809103902082600080516020611ecc833981519152600460009054906101000a90046001600160a01b03166001600160a01b031663803aa5f66040518163ffffffff1660e01b815260040160206040518083038186803b158015610d8757600080fd5b505afa158015610d9b573d6000803e3d6000fd5b505050506040513d601f19601f82011682018060405250610dbf9190810190611935565b604051610dcc9190611d49565b60405180910390a3610558565b600082815260208190526040902060020154600160a01b900460ff1615610e085780604051610d219190611bf3565b610e11826115e5565b15610e4c5780604051610e249190611bf3565b604051809103902082600080516020611ecc833981519152610fa3604051610dcc9190611d49565b6000828152602081905260409020600101546001600160a01b03163314610e7b5780604051610d219190611bf3565b610e858282610a00565b610f4b5780604051610e979190611bf3565b604051809103902082600080516020611ecc833981519152600460009054906101000a90046001600160a01b03166001600160a01b031663803aa5f66040518163ffffffff1660e01b815260040160206040518083038186803b158015610efd57600080fd5b505afa158015610f11573d6000803e3d6000fd5b505050506040513d601f19601f82011682018060405250610f359190810190611935565b604051610f429190611d49565b60405180910390a35b600082815260026020526040808220805460ff191660019081179091556003805491820181559092527fc2575a0e9e593c00f959f8c92f12db2869c3395a3b0502d05e2516446f71f85b90910183905551610fa7908290611bf3565b604051809103902082600080516020611ecc8339815191526000604051610fce9190611d49565b60405180910390a35050565b6000818152602081905260408120548214610ff7575060006109f5565b506001919050565b6004805460408051637010b03d60e11b815290516001600160a01b039092169263a1a63f65923392859263e021607a928282019260209290829003018186803b15801561104b57600080fd5b505afa15801561105f573d6000803e3d6000fd5b505050506040513d601f19601f820116820180604052506110839190810190611935565b6040518363ffffffff1660e01b81526004016110a0929190611c1b565b60206040518083038186803b1580156110b857600080fd5b505afa1580156110cc573d6000803e3d6000fd5b505050506040513d601f19601f820116820180604052506110f091908101906117e2565b6111be57600480546040805163401d52fb60e11b815290516001600160a01b039092169263803aa5f6928282019260209290829003018186803b15801561113657600080fd5b505afa15801561114a573d6000803e3d6000fd5b505050506040513d601f19601f8201168201806040525061116e9190810190611935565b846001600160a01b03167f13618bea4e26ba42c87386009db40e13fd0df4adefebb4b15381fda19561d66a8733878787436040516111b196959493929190611d57565b60405180910390a36115de565b6111c785610fda565b1561121257610fa1846001600160a01b03167f13618bea4e26ba42c87386009db40e13fd0df4adefebb4b15381fda19561d66a8733878787436040516111b196959493929190611d57565b6004805460408051631af0ab1d60e01b815290516001600160a01b039092169263505ef22f9288928592631af0ab1d928282019260209290829003018186803b15801561125e57600080fd5b505afa158015611272573d6000803e3d6000fd5b505050506040513d601f19601f820116820180604052506112969190810190611935565b6040518363ffffffff1660e01b81526004016112b3929190611c97565b60206040518083038186803b1580156112cb57600080fd5b505afa1580156112df573d6000803e3d6000fd5b505050506040513d601f19601f8201168201806040525061130391908101906117e2565b61134957600480546040805163401d52fb60e11b815290516001600160a01b039092169263803aa5f6928282019260209290829003018186803b15801561113657600080fd5b8215801561144557506004805460408051632f94450b60e01b815290516001600160a01b039092169263505ef22f9288928592632f94450b928282019260209290829003018186803b15801561139e57600080fd5b505afa1580156113b2573d6000803e3d6000fd5b505050506040513d601f19601f820116820180604052506113d69190810190611935565b6040518363ffffffff1660e01b81526004016113f3929190611c97565b60206040518083038186803b15801561140b57600080fd5b505afa15801561141f573d6000803e3d6000fd5b505050506040513d601f19601f8201168201806040525061144391908101906117e2565b155b1561148c57600480546040805163401d52fb60e11b815290516001600160a01b039092169263803aa5f6928282019260209290829003018186803b15801561113657600080fd5b6040805160e0810182528681526001600160a01b03868116602080840191825233848601908152881515606086019081526080860189815260a087018981524360c089015260008e8152808652989098208751815594516001860180546001600160a01b0319908116928916929092179055925160028601805493519390941696169590951760ff60a01b1916600160a01b9115159190910217905591516003820155925180519293926115469260048501920190611642565b5060c08201518160050155905050821561159057600380546001810182556000919091527fc2575a0e9e593c00f959f8c92f12db2869c3395a3b0502d05e2516446f71f85b018590555b6000846001600160a01b03167f13618bea4e26ba42c87386009db40e13fd0df4adefebb4b15381fda19561d66a8733878787436040516115d596959493929190611d57565b60405180910390a35b5050505050565b60009081526002602052604090205460ff1690565b600061160582610fda565b61160e57600080fd5b5060009081526020819052604090206005015490565b6003818154811061163157fe5b600091825260209091200154905081565b828054600181600116156101000203166002900490600052602060002090601f016020900481019282601f1061168357805160ff19168380011785556116b0565b828001600101855582156116b0579182015b828111156116b0578251825591602001919060010190611695565b506116bc9291506116c0565b5090565b6116da91905b808211156116bc57600081556001016116c6565b90565b8035610af181611e82565b600082601f8301126116f957600080fd5b813561170c61170782611db3565b611d8c565b9150818183526020840193506020810190508385602084028201111561173157600080fd5b60005b8381101561175d5781611747888261177d565b8452506020928301929190910190600101611734565b5050505092915050565b8035610af181611e99565b8051610af181611e99565b8035610af181611ea2565b600082601f83011261179957600080fd5b81356117a761170782611dd4565b915080825260208301602083018583830111156117c357600080fd5b6117ce838284611e3c565b50505092915050565b8051610af181611ea2565b6000602082840312156117f457600080fd5b60006118008484611772565b949350505050565b60006020828403121561181a57600080fd5b6000611800848461177d565b600080600080600060a0868803121561183e57600080fd5b600061184a888861177d565b955050602061185b888289016116dd565b945050604061186c88828901611767565b935050606061187d8882890161177d565b925050608086013567ffffffffffffffff81111561189a57600080fd5b6118a688828901611788565b9150509295509295909350565b600080604083850312156118c657600080fd5b60006118d2858561177d565b925050602083013567ffffffffffffffff8111156118ef57600080fd5b6118fb858286016116e8565b9150509250929050565b6000806040838503121561191857600080fd5b6000611924858561177d565b92505060206118fb8582860161177d565b60006020828403121561194757600080fd5b600061180084846117d7565b600061195f83836119a1565b505060200190565b600061195f8383611ba9565b600061195f8383611bb2565b600061198b8383611bbb565b9392505050565b61199b81611e2b565b82525050565b61199b81611e0f565b60006119b582611e02565b6119bf8185611e06565b93506119ca83611dfc565b8060005b838110156119f85781516119e28882611953565b97506119ed83611dfc565b9250506001016119ce565b509495945050505050565b6000611a0e82611e02565b611a188185611e06565b9350611a2383611dfc565b8060005b838110156119f8578151611a3b8882611967565b9750611a4683611dfc565b925050600101611a27565b6000611a5c82611e02565b611a668185611e06565b9350611a7183611dfc565b8060005b838110156119f8578151611a898882611973565b9750611a9483611dfc565b925050600101611a75565b6000611aaa82611e02565b611ab481856109f5565b9350611abf83611dfc565b8060005b838110156119f8578151611ad78882611973565b9750611ae283611dfc565b925050600101611ac3565b6000611af882611e02565b611b028185611e06565b935083602082028501611b1485611dfc565b8060005b85811015611b4e5784840389528151611b31858261197f565b9450611b3c83611dfc565b60209a909a0199925050600101611b18565b5091979650505050505050565b6000611b6682611e02565b611b708185611e06565b9350611b7b83611dfc565b8060005b838110156119f8578151611b938882611973565b9750611b9e83611dfc565b925050600101611b7f565b61199b81611e1a565b61199b816116da565b6000611bc682611e02565b611bd08185611e06565b9350611be0818560208601611e48565b611be981611e78565b9093019392505050565b600061198b8284611a9f565b60208101610af182846119a1565b60208101610af18284611992565b60408101611c298285611992565b61198b6020830184611bb2565b60c08101611c4482896119a1565b611c5160208301886119a1565b611c5e6040830187611bb2565b611c6b6060830186611ba9565b8181036080830152611c7d8185611bbb565b9050611c8c60a0830184611bb2565b979650505050505050565b60408101611c2982856119a1565b60e08082528101611cb6818a611a51565b90508181036020830152611cca81896119aa565b90508181036040830152611cde81886119aa565b90508181036060830152611cf28187611a51565b90508181036080830152611d068186611a03565b905081810360a0830152611d1a8185611aed565b905081810360c0830152611d2e8184611b5b565b9998505050505050505050565b60208101610af18284611ba9565b60208101610af18284611bb2565b60c08101611d658289611bb2565b611d726020830188611992565b611d7f6040830187611ba9565b611c6b6060830186611bb2565b60405181810167ffffffffffffffff81118282101715611dab57600080fd5b604052919050565b600067ffffffffffffffff821115611dca57600080fd5b5060209081020190565b600067ffffffffffffffff821115611deb57600080fd5b506020601f91909101601f19160190565b60200190565b5190565b90815260200190565b6000610af182611e1f565b151590565b6001600160a01b031690565b6000610af1826000610af182611e0f565b82818337506000910152565b60005b83811015611e63578181015183820152602001611e4b565b83811115611e72576000848401525b50505050565b601f01601f191690565b611e8b81611e0f565b8114611e9657600080fd5b50565b611e8b81611e1a565b611e8b816116da56fe0130d4ecd60550a3f938625567373e4cf640a9452f5b7905e786e2f1272b956cda686529d789b252a43396ac538f9a597b61660acb44b8836d9f3b81381043b6a365627a7a7231582017fc4856264c1dd6b673495a19568c03b084a932b4c0e97011325675faaabb456c6578706572696d656e74616cf564736f6c63430005110040",
  "source": "pragma solidity 0.5.17;\npragma experimental ABIEncoderV2;\n\n// Copyright 2021 The dt-contracts Authors\n// This file is part of the dt-contracts library.\n//\n// The dt-contracts library is free software: you can redistribute it and/or modify\n// it under the terms of the GNU Lesser General Public License as published by\n// the Free Software Foundation, either version 3 of the License, or\n// (at your option) any later version.\n//\n// The dt-contracts library is distributed in the hope that it will be useful,\n// but WITHOUT ANY WARRANTY; without even the implied warranty of\n// MERCHANTABILITY or FITNESS FOR A PARTICULAR PURPOSE. See the\n// GNU Lesser General Public License for more details.\n//\n// You should have received a copy of the GNU Lesser General Public License\n// along with the dt-contracts library. If not, see <http://www.gnu.org/licenses/>.\n\nimport \"./RoleController.sol\";\n\n/**\n * @title DTFactory\n */\ncontract DTFactory {\n    uint256 private constant SUCCESS = 0;\n    uint256 private constant DT_EXISTS = 4001;\n    uint256 private constant DT_NOT_EXISTS = 4002;\n    uint256 private constant CDT_EXISTS = 4003;\n    uint256 private constant CDT_NOT_EXISTS = 4004;\n    uint256 private constant DT_GRATED = 4005;\n    uint256 private constant DT_NOT_GRATED = 4006;\n\n    struct DataToken {\n        bytes32 dt;\n        address owner;\n        address minter;\n        bool isLeaf;\n        bytes32 checksum;\n        string ipfsPath;\n        uint256 blockUpdated;\n    }\n\n    // all dts including leaf/composable\n    mapping(bytes32 => DataToken) DTLists;\n    // dt permission chain\n    mapping(bytes32 => mapping(bytes32 => bool)) DTPermissions;\n    // available cdts\n    mapping(bytes32 => bool) CDTLists;\n\n    bytes32[] public dts;\n\n    event DataTokenMinted(\n        bytes32 _dt,\n        address indexed _owner,\n        address _minter,\n        bool _isLeaf,\n        bytes32 _checksum,\n        string _ipfsPath,\n        uint256 _blockUpdated,\n        uint256 indexed _code\n    );\n\n    event CDTMinted(\n        bytes32 indexed _cdt,\n        bytes32[] indexed _childDTs,\n        uint256 _code\n    );\n\n    event DataTokenGranted(\n        bytes32 indexed _dt,\n        address _owner,\n        bytes32 indexed _grantee,\n        uint256 indexed _code\n    );\n\n    RoleController private rc;\n\n    /**\n     * @dev constructor\n     *      contract deployment\n     * @param rcAddr refers to the RoleController address\n     */\n    constructor(address rcAddr) public {\n        rc = RoleController(rcAddr);\n    }\n\n    /**\n     * @dev mintDataToken\n     *      creates new data token on-chain.\n     * @param _dt refers to data token identifier\n     * @param _owner refers to data token owner\n     * @param _isLeaf leaf dt or composable dt\n     * @param _checksum checksum associated with dt/metadata\n     * @param _ipfsPath refers to the metadata storage path\n     */\n    function mintDataToken(\n        bytes32 _dt,\n        address _owner,\n        bool _isLeaf,\n        bytes32 _checksum,\n        string memory _ipfsPath\n    ) public {\n        if (!rc.checkPermission(msg.sender, rc.MODIFY_ASSET())) {\n            emit DataTokenMinted(\n                _dt,\n                _owner,\n                msg.sender,\n                _isLeaf,\n                _checksum,\n                _ipfsPath,\n                block.number,\n                rc.ERROR_NO_PERMISSION()\n            );\n            return;\n        }\n\n        if (isDTAvailable(_dt)) {\n            emit DataTokenMinted(\n                _dt,\n                _owner,\n                msg.sender,\n                _isLeaf,\n                _checksum,\n                _ipfsPath,\n                block.number,\n                DT_EXISTS\n            );\n            return;\n        }\n\n        if (!rc.checkRole(_owner, rc.ROLE_PROVIDER())) {\n            emit DataTokenMinted(\n                _dt,\n                _owner,\n                msg.sender,\n                _isLeaf,\n                _checksum,\n                _ipfsPath,\n                block.number,\n                rc.ERROR_NO_PERMISSION()\n            );\n            return;\n        }\n\n        // Owner of composable DT must be aggregator (enterprize now)\n        if (!_isLeaf && !rc.checkRole(_owner, rc.ROLE_ENTERPRISE())) {\n            emit DataTokenMinted(\n                _dt,\n                _owner,\n                msg.sender,\n                _isLeaf,\n                _checksum,\n                _ipfsPath,\n                block.number,\n                rc.ERROR_NO_PERMISSION()\n            );\n            return;\n        }\n\n        DTLists[_dt] = DataToken({\n            dt: _dt,\n            owner: _owner,\n            minter: msg.sender,\n            isLeaf: _isLeaf,\n            checksum: _checksum,\n            ipfsPath: _ipfsPath,\n            blockUpdated: block.number\n        });\n\n        if (_isLeaf) {\n            dts.push(_dt);\n        }\n\n        emit DataTokenMinted(\n            _dt,\n            _owner,\n            msg.sender,\n            _isLeaf,\n            _checksum,\n            _ipfsPath,\n            block.number,\n            SUCCESS\n        );\n    }\n\n    /**\n     * @dev grantPermission\n     *      It grants one dt to other dt.\n     * @param _dt refers to data token identifier\n     * @param _grantee refers to granted dt identifier\n     */\n    function grantPermission(bytes32 _dt, bytes32 _grantee) external {\n        if (!rc.checkPermission(msg.sender, rc.MODIFY_AUTHORIZE())) {\n            emit DataTokenGranted(\n                _dt,\n                msg.sender,\n                _grantee,\n                rc.ERROR_NO_PERMISSION()\n            );\n            return;\n        }\n\n        if (DTPermissions[_dt][_grantee] != false) {\n            emit DataTokenGranted(_dt, msg.sender, _grantee, DT_GRATED);\n            return;\n        }\n\n        if (!isDTAvailable(_dt) || !isDTAvailable(_grantee)) {\n            emit DataTokenGranted(_dt, msg.sender, _grantee, DT_NOT_EXISTS);\n            return;\n        }\n\n        if (DTLists[_dt].owner != msg.sender) {\n            emit DataTokenGranted(\n                _dt,\n                msg.sender,\n                _grantee,\n                rc.ERROR_NO_PERMISSION()\n            );\n            return;\n        }\n\n        // grantee must be composable DT\n        if (\n            (!DTLists[_dt].isLeaf && !isCDTAvailable(_dt)) ||\n            DTLists[_grantee].isLeaf\n        ) {\n            emit DataTokenGranted(_dt, msg.sender, _grantee, CDT_NOT_EXISTS);\n            return;\n        }\n\n        DTPermissions[_dt][_grantee] = true;\n\n        emit DataTokenGranted(_dt, msg.sender, _grantee, SUCCESS);\n    }\n\n    /**\n     * @dev startComposeDT\n     *      activates the CDT by the aggregator when all perms are ready.\n     * @param _cdt refers to cdt identifier\n     * @param _childDTs associated with child_dts identifier\n     */\n    function startComposeDT(bytes32 _cdt, bytes32[] memory _childDTs) public {\n        if (!rc.checkPermission(msg.sender, rc.MODIFY_ASSET())) {\n            emit CDTMinted(_cdt, _childDTs, rc.ERROR_NO_PERMISSION());\n            return;\n        }\n\n        if (DTLists[_cdt].isLeaf) {\n            emit CDTMinted(_cdt, _childDTs, rc.ERROR_NO_PERMISSION());\n            return;\n        }\n\n        if (isCDTAvailable(_cdt)) {\n            emit CDTMinted(_cdt, _childDTs, CDT_EXISTS);\n            return;\n        }\n\n        if (DTLists[_cdt].owner != msg.sender) {\n            emit CDTMinted(_cdt, _childDTs, rc.ERROR_NO_PERMISSION());\n            return;\n        }\n\n        if (!CLinksCheck(_cdt, _childDTs)) {\n            emit CDTMinted(_cdt, _childDTs, rc.ERROR_NO_PERMISSION());\n        }\n\n        CDTLists[_cdt] = true;\n\n        dts.push(_cdt);\n\n        emit CDTMinted(_cdt, _childDTs, SUCCESS);\n    }\n\n    /**\n     * @dev CLinksCheck\n     *      checks permission for related parties of a Composable DT.\n     * @param _cdt refers to cdt identifier\n     * @param _childDTs refers to child_dts identifiers\n     * @return bool.\n     */\n    function CLinksCheck(bytes32 _cdt, bytes32[] memory _childDTs)\n        public\n        view\n        returns (bool)\n    {\n        if (!isDTAvailable(_cdt)) {\n            return false;\n        }\n\n        uint256 idx = 0;\n        for (idx = 0; idx < _childDTs.length; idx++) {\n            if (!isDTAvailable(_childDTs[idx])) {\n                return false;\n            }\n            if (\n                !DTLists[_childDTs[idx]].isLeaf &&\n                !isCDTAvailable(_childDTs[idx])\n            ) {\n                return false;\n            }\n            if (!getPermission(_childDTs[idx], _cdt)) {\n                return false;\n            }\n        }\n\n        return true;\n    }\n\n    /**\n     * @dev isDTAvailable\n     * @param _dt refers to the dt identifier\n     * @return bool.\n     */\n    function isDTAvailable(bytes32 _dt) public view returns (bool) {\n        if (DTLists[_dt].dt != _dt) {\n            return false;\n        }\n        return true;\n    }\n\n    /**\n     * @dev isCDTAvailable\n     * @param _cdt refers to the cdt identifier\n     * @return bool.\n     */\n    function isCDTAvailable(bytes32 _cdt) public view returns (bool) {\n        return CDTLists[_cdt];\n    }\n\n    /**\n     * @dev getPermission\n     *      check permission.\n     * @param _dt refers to data token identifier\n     * @param _grantee refers to granted dt identifier\n     * @return is granted or not.\n     */\n    function getPermission(bytes32 _dt, bytes32 _grantee)\n        public\n        view\n        returns (bool)\n    {\n        return DTPermissions[_dt][_grantee];\n    }\n\n    /**\n     * @dev getDTOwner\n     *      It returns the owner for a data token.\n     * @param _dt refers to data token identifier\n     * @return owner address.\n     */\n    function getDTOwner(bytes32 _dt) public view returns (address) {\n        require(isDTAvailable(_dt));\n\n        return DTLists[_dt].owner;\n    }\n\n    /**\n     * @dev getBlockNumberUpdated\n     *      It returns the blockUpdated for a data token.\n     * @param _dt refers to data token identifier\n     * @return blockUpdated.\n     */\n    function getBlockNumberUpdated(bytes32 _dt)\n        public\n        view\n        returns (uint256 blockUpdated)\n    {\n        require(isDTAvailable(_dt));\n\n        return DTLists[_dt].blockUpdated;\n    }\n\n    /**\n     * @dev getDTRegister\n     *      It returns the dt records.\n     * @param _dt refers to data token identifier\n     * @return DataToken struct.\n     */\n    function getDTRegister(bytes32 _dt)\n        public\n        view\n        returns (\n            address owner,\n            address minter,\n            bytes32 checksum,\n            bool isLeaf,\n            string memory ipfsPath,\n            uint256 blockUpdated\n        )\n    {\n        require(isDTAvailable(_dt));\n\n        owner = DTLists[_dt].owner;\n        minter = DTLists[_dt].minter;\n        checksum = DTLists[_dt].checksum;\n        isLeaf = DTLists[_dt].isLeaf;\n        ipfsPath = DTLists[_dt].ipfsPath;\n        blockUpdated = DTLists[_dt].blockUpdated;\n    }\n\n    /**\n     * @dev getDTNum\n     *      gets the total datatoken numbers.\n     * @return uint256.\n     */\n    function getDTNum() public view returns (uint256 totalDTs) {\n        totalDTs = dts.length;\n    }\n\n    /**\n     * @dev getDTMap\n     *      gets all available dts.\n     * @return DataToken[].\n     */\n    function getDTMap()\n        public\n        view\n        returns (\n            bytes32[] memory dtidx,\n            address[] memory owners,\n            address[] memory minters,\n            bytes32[] memory checksums,\n            bool[] memory isLeafs,\n            string[] memory ipfsPaths,\n            uint256[] memory blockUpdateds\n        )\n    {\n        dtidx = new bytes32[](dts.length);\n        owners = new address[](dts.length);\n        minters = new address[](dts.length);\n        checksums = new bytes32[](dts.length);\n        isLeafs = new bool[](dts.length);\n        ipfsPaths = new string[](dts.length);\n        blockUpdateds = new uint256[](dts.length);\n\n        for (uint256 i = 0; i < dts.length; i++) {\n            owners[i] = DTLists[dts[i]].owner;\n            minters[i] = DTLists[dts[i]].minter;\n            checksums[i] = DTLists[dts[i]].checksum;\n            isLeafs[i] = DTLists[dts[i]].isLeaf;\n            ipfsPaths[i] = DTLists[dts[i]].ipfsPath;\n            blockUpdateds[i] = DTLists[dts[i]].blockUpdated;\n        }\n\n        dtidx = dts;\n    }\n}\n",
  "sourcePath": "/Users/liqibing/Research/blockchain/ownership/datatoken/dt-contracts/contracts/DTFactory.sol",
  "compiler": {
    "name": "solc",
    "version": "0.5.17+commit.d117da36.Emscripten.clang"
  },
  "schemaVersion": "3.0.19",
  "updatedAt": "2021-04-10T16:24:03.106Z",
  "devdoc": {
    "methods": {
      "CLinksCheck(bytes32,bytes32[])": {
        "details": "CLinksCheck     checks permission for related parties of a Composable DT.",
        "params": {
          "_cdt": "refers to cdt identifier",
          "_childDTs": "refers to child_dts identifiers"
        },
        "return": "bool."
      },
      "constructor": {
        "details": "constructor     contract deployment",
        "params": {
          "rcAddr": "refers to the RoleController address"
        }
      },
      "getBlockNumberUpdated(bytes32)": {
        "details": "getBlockNumberUpdated     It returns the blockUpdated for a data token.",
        "params": {
          "_dt": "refers to data token identifier"
        },
        "return": "blockUpdated."
      },
      "getDTMap()": {
        "details": "getDTMap     gets all available dts.",
        "return": "DataToken[]."
      },
      "getDTNum()": {
        "details": "getDTNum     gets the total datatoken numbers.",
        "return": "uint256."
      },
      "getDTOwner(bytes32)": {
        "details": "getDTOwner     It returns the owner for a data token.",
        "params": {
          "_dt": "refers to data token identifier"
        },
        "return": "owner address."
      },
      "getDTRegister(bytes32)": {
        "details": "getDTRegister     It returns the dt records.",
        "params": {
          "_dt": "refers to data token identifier"
        },
        "return": "DataToken struct."
      },
      "getPermission(bytes32,bytes32)": {
        "details": "getPermission     check permission.",
        "params": {
          "_dt": "refers to data token identifier",
          "_grantee": "refers to granted dt identifier"
        },
        "return": "is granted or not."
      },
      "grantPermission(bytes32,bytes32)": {
        "details": "grantPermission     It grants one dt to other dt.",
        "params": {
          "_dt": "refers to data token identifier",
          "_grantee": "refers to granted dt identifier"
        }
      },
      "isCDTAvailable(bytes32)": {
        "details": "isCDTAvailable",
        "params": {
          "_cdt": "refers to the cdt identifier"
        },
        "return": "bool."
      },
      "isDTAvailable(bytes32)": {
        "details": "isDTAvailable",
        "params": {
          "_dt": "refers to the dt identifier"
        },
        "return": "bool."
      },
      "mintDataToken(bytes32,address,bool,bytes32,string)": {
        "details": "mintDataToken     creates new data token on-chain.",
        "params": {
          "_checksum": "checksum associated with dt/metadata",
          "_dt": "refers to data token identifier",
          "_ipfsPath": "refers to the metadata storage path",
          "_isLeaf": "leaf dt or composable dt",
          "_owner": "refers to data token owner"
        }
      },
      "startComposeDT(bytes32,bytes32[])": {
        "details": "startComposeDT     activates the CDT by the aggregator when all perms are ready.",
        "params": {
          "_cdt": "refers to cdt identifier",
          "_childDTs": "associated with child_dts identifier"
        }
      }
    },
    "title": "DTFactory"
  },
  "userdoc": {
    "methods": {}
  }
}