{
  "contractName": "DTFactory",
  "abi": [
    {
      "inputs": [
        {
          "internalType": "address",
          "name": "rcAddr",
          "type": "address"
        }
      ],
      "payable": false,
      "stateMutability": "nonpayable",
      "type": "constructor"
    },
    {
      "anonymous": false,
      "inputs": [
        {
          "indexed": true,
          "internalType": "bytes32",
          "name": "_cdt",
          "type": "bytes32"
        },
        {
          "indexed": true,
          "internalType": "bytes32[]",
          "name": "_childDTs",
          "type": "bytes32[]"
        },
        {
          "indexed": false,
          "internalType": "uint256",
          "name": "_code",
          "type": "uint256"
        }
      ],
      "name": "CDTMinted",
      "type": "event"
    },
    {
      "anonymous": false,
      "inputs": [
        {
          "indexed": true,
          "internalType": "bytes32",
          "name": "_dt",
          "type": "bytes32"
        },
        {
          "indexed": false,
          "internalType": "address",
          "name": "_owner",
          "type": "address"
        },
        {
          "indexed": true,
          "internalType": "bytes32",
          "name": "_grantee",
          "type": "bytes32"
        },
        {
          "indexed": true,
          "internalType": "uint256",
          "name": "_code",
          "type": "uint256"
        }
      ],
      "name": "DataTokenGranted",
      "type": "event"
    },
    {
      "anonymous": false,
      "inputs": [
        {
          "indexed": false,
          "internalType": "bytes32",
          "name": "_dt",
          "type": "bytes32"
        },
        {
          "indexed": true,
          "internalType": "address",
          "name": "_owner",
          "type": "address"
        },
        {
          "indexed": false,
          "internalType": "address",
          "name": "_minter",
          "type": "address"
        },
        {
          "indexed": false,
          "internalType": "bool",
          "name": "_isLeaf",
          "type": "bool"
        },
        {
          "indexed": false,
          "internalType": "bytes32",
          "name": "_checksum",
          "type": "bytes32"
        },
        {
          "indexed": false,
          "internalType": "string",
          "name": "_ipfsPath",
          "type": "string"
        },
        {
          "indexed": false,
          "internalType": "uint256",
          "name": "_blockUpdated",
          "type": "uint256"
        },
        {
          "indexed": true,
          "internalType": "uint256",
          "name": "_code",
          "type": "uint256"
        }
      ],
      "name": "DataTokenMinted",
      "type": "event"
    },
    {
      "constant": false,
      "inputs": [
        {
          "internalType": "bytes32",
          "name": "_dt",
          "type": "bytes32"
        },
        {
          "internalType": "address",
          "name": "_owner",
          "type": "address"
        },
        {
          "internalType": "bool",
          "name": "_isLeaf",
          "type": "bool"
        },
        {
          "internalType": "bytes32",
          "name": "_checksum",
          "type": "bytes32"
        },
        {
          "internalType": "string",
          "name": "_ipfsPath",
          "type": "string"
        }
      ],
      "name": "mintDataToken",
      "outputs": [],
      "payable": false,
      "stateMutability": "nonpayable",
      "type": "function"
    },
    {
      "constant": false,
      "inputs": [
        {
          "internalType": "bytes32",
          "name": "_dt",
          "type": "bytes32"
        },
        {
          "internalType": "bytes32",
          "name": "_grantee",
          "type": "bytes32"
        }
      ],
      "name": "grantPermission",
      "outputs": [],
      "payable": false,
      "stateMutability": "nonpayable",
      "type": "function"
    },
    {
      "constant": false,
      "inputs": [
        {
          "internalType": "bytes32",
          "name": "_cdt",
          "type": "bytes32"
        },
        {
          "internalType": "bytes32[]",
          "name": "_childDTs",
          "type": "bytes32[]"
        }
      ],
      "name": "startComposeDT",
      "outputs": [],
      "payable": false,
      "stateMutability": "nonpayable",
      "type": "function"
    },
    {
      "constant": true,
      "inputs": [
        {
          "internalType": "bytes32",
          "name": "_cdt",
          "type": "bytes32"
        },
        {
          "internalType": "bytes32[]",
          "name": "_childDTs",
          "type": "bytes32[]"
        }
      ],
      "name": "CLinksCheck",
      "outputs": [
        {
          "internalType": "bool",
          "name": "",
          "type": "bool"
        }
      ],
      "payable": false,
      "stateMutability": "view",
      "type": "function"
    },
    {
      "constant": true,
      "inputs": [
        {
          "internalType": "bytes32",
          "name": "_dt",
          "type": "bytes32"
        }
      ],
      "name": "isDTAvailable",
      "outputs": [
        {
          "internalType": "bool",
          "name": "",
          "type": "bool"
        }
      ],
      "payable": false,
      "stateMutability": "view",
      "type": "function"
    },
    {
      "constant": true,
      "inputs": [
        {
          "internalType": "bytes32",
          "name": "_cdt",
          "type": "bytes32"
        }
      ],
      "name": "isCDTAvailable",
      "outputs": [
        {
          "internalType": "bool",
          "name": "",
          "type": "bool"
        }
      ],
      "payable": false,
      "stateMutability": "view",
      "type": "function"
    },
    {
      "constant": true,
      "inputs": [
        {
          "internalType": "bytes32",
          "name": "_dt",
          "type": "bytes32"
        },
        {
          "internalType": "bytes32",
          "name": "_grantee",
          "type": "bytes32"
        }
      ],
      "name": "getPermission",
      "outputs": [
        {
          "internalType": "bool",
          "name": "",
          "type": "bool"
        }
      ],
      "payable": false,
      "stateMutability": "view",
      "type": "function"
    },
    {
      "constant": true,
      "inputs": [
        {
          "internalType": "bytes32",
          "name": "_dt",
          "type": "bytes32"
        }
      ],
      "name": "getDTOwner",
      "outputs": [
        {
          "internalType": "address",
          "name": "",
          "type": "address"
        }
      ],
      "payable": false,
      "stateMutability": "view",
      "type": "function"
    },
    {
      "constant": true,
      "inputs": [
        {
          "internalType": "bytes32",
          "name": "_dt",
          "type": "bytes32"
        }
      ],
      "name": "getBlockNumberUpdated",
      "outputs": [
        {
          "internalType": "uint256",
          "name": "blockUpdated",
          "type": "uint256"
        }
      ],
      "payable": false,
      "stateMutability": "view",
      "type": "function"
    },
    {
      "constant": true,
      "inputs": [
        {
          "internalType": "bytes32",
          "name": "_dt",
          "type": "bytes32"
        }
      ],
      "name": "getDTRegister",
      "outputs": [
        {
          "internalType": "address",
          "name": "owner",
          "type": "address"
        },
        {
          "internalType": "address",
          "name": "minter",
          "type": "address"
        },
        {
          "internalType": "bytes32",
          "name": "checksum",
          "type": "bytes32"
        },
        {
          "internalType": "bool",
          "name": "isLeaf",
          "type": "bool"
        },
        {
          "internalType": "string",
          "name": "ipfsPath",
          "type": "string"
        },
        {
          "internalType": "uint256",
          "name": "blockUpdated",
          "type": "uint256"
        }
      ],
      "payable": false,
      "stateMutability": "view",
      "type": "function"
    }
  ],
  "bytecode": "0x608060405234801561001057600080fd5b506040516117ed3803806117ed8339818101604052602081101561003357600080fd5b5051600380546001600160a01b0319166001600160a01b0390921691909117905561178a806100636000396000f3fe608060405234801561001057600080fd5b506004361061009e5760003560e01c806375fb921b1161006657806375fb921b146102c257806378052cfc1461036c5780638af49807146103895780639cc218f414610452578063bbc1dede1461046f5761009e565b806303b0024c146100a35780633d187f84146100c857806343a6dea61461010157806355e5bfd1146101bf5780635d23910a146101e2575b600080fd5b6100c6600480360360408110156100b957600080fd5b508035906020013561049e565b005b6100e5600480360360208110156100de57600080fd5b503561081a565b604080516001600160a01b039092168252519081900360200190f35b6101ab6004803603604081101561011757600080fd5b8135919081019060408101602082013564010000000081111561013957600080fd5b82018360208201111561014b57600080fd5b8035906020019184602083028401116401000000008311171561016d57600080fd5b919080806020026020016040519081016040528093929190818152602001838360200280828437600092019190915250929550610850945050505050565b604080519115158252519081900360200190f35b6101ab600480360360408110156101d557600080fd5b5080359060200135610947565b6101ff600480360360208110156101f857600080fd5b5035610967565b60405180876001600160a01b03166001600160a01b03168152602001866001600160a01b03166001600160a01b031681526020018581526020018415151515815260200180602001838152602001828103825284818151815260200191508051906020019080838360005b8381101561028257818101518382015260200161026a565b50505050905090810190601f1680156102af5780820380516001836020036101000a031916815260200191505b5097505050505050505060405180910390f35b6100c6600480360360408110156102d857600080fd5b813591908101906040810160208201356401000000008111156102fa57600080fd5b82018360208201111561030c57600080fd5b8035906020019184602083028401116401000000008311171561032e57600080fd5b919080806020026020016040519081016040528093929190818152602001838360200280828437600092019190915250929550610a6e945050505050565b6101ab6004803603602081101561038257600080fd5b5035610ec9565b6100c6600480360360a081101561039f57600080fd5b8135916001600160a01b0360208201351691604082013515159160608101359181019060a0810160808201356401000000008111156103dd57600080fd5b8201836020820111156103ef57600080fd5b8035906020019184600183028401116401000000008311171561041157600080fd5b91908080601f016020809104026020016040519081016040528093929190818152602001838380828437600092019190915250929550610eee945050505050565b6101ab6004803603602081101561046857600080fd5b503561163b565b61048c6004803603602081101561048557600080fd5b5035611650565b60408051918252519081900360200190f35b600354604080516353205e5960e11b815290516001600160a01b039092169163a1a63f65913391849163a640bcb2916004808301926020929190829003018186803b1580156104ec57600080fd5b505afa158015610500573d6000803e3d6000fd5b505050506040513d602081101561051657600080fd5b5051604080516001600160e01b031960e086901b1681526001600160a01b0390931660048401526024830191909152516044808301926020929190829003018186803b15801561056557600080fd5b505afa158015610579573d6000803e3d6000fd5b505050506040513d602081101561058f57600080fd5b505161063957600360009054906101000a90046001600160a01b03166001600160a01b031663803aa5f66040518163ffffffff1660e01b815260040160206040518083038186803b1580156105e357600080fd5b505afa1580156105f7573d6000803e3d6000fd5b505050506040513d602081101561060d57600080fd5b5051604080513381529051839185916000805160206117168339815191529181900360200190a4610816565b600082815260016020908152604080832084845290915290205460ff161561068a57604080513381529051610fa59183918591600080516020611716833981519152919081900360200190a4610816565b61069382610ec9565b15806106a557506106a381610ec9565b155b156106d957604080513381529051610fa29183918591600080516020611716833981519152919081900360200190a4610816565b6000828152602081905260409020600101546001600160a01b0316331461074857600360009054906101000a90046001600160a01b03166001600160a01b031663803aa5f66040518163ffffffff1660e01b815260040160206040518083038186803b1580156105e357600080fd5b600082815260208190526040902060020154600160a01b900460ff1615801561077757506107758261163b565b155b8061079a5750600081815260208190526040902060020154600160a01b900460ff165b156107ce57604080513381529051610fa49183918591600080516020611716833981519152919081900360200190a4610816565b60008281526001602081815260408084208585528252808420805460ff1916909317909255815133815291518492869260008051602061171683398151915292918290030190a45b5050565b600061082582610ec9565b61082e57600080fd5b506000818152602081905260409020600101546001600160a01b03165b919050565b600061085b83610ec9565b61086757506000610941565b60005b825181101561093b5761088f83828151811061088257fe5b6020026020010151610ec9565b61089d576000915050610941565b6000808483815181106108ac57fe5b6020026020010151815260200190815260200160002060020160149054906101000a900460ff161580156108f957506108f78382815181106108ea57fe5b602002602001015161163b565b155b15610908576000915050610941565b61092583828151811061091757fe5b602002602001015185610947565b610933576000915050610941565b60010161086a565b60019150505b92915050565b600091825260016020908152604080842092845291905290205460ff1690565b6000806000806060600061097a87610ec9565b61098357600080fd5b6000878152602081815260409182902060018082015460028084015460038501546004909501805488516101009682161596909602600019011692909204601f81018790048702850187019097528684526001600160a01b039283169c509182169a50929850600160a01b900460ff169650929091830182828015610a495780601f10610a1e57610100808354040283529160200191610a49565b820191906000526020600020905b815481529060010190602001808311610a2c57829003601f168201915b5050506000998a52505060208890526040909720600501549597949693959294915050565b60035460408051637010b03d60e11b815290516001600160a01b039092169163a1a63f65913391849163e021607a916004808301926020929190829003018186803b158015610abc57600080fd5b505afa158015610ad0573d6000803e3d6000fd5b505050506040513d6020811015610ae657600080fd5b5051604080516001600160e01b031960e086901b1681526001600160a01b0390931660048401526024830191909152516044808301926020929190829003018186803b158015610b3557600080fd5b505afa158015610b49573d6000803e3d6000fd5b505050506040513d6020811015610b5f57600080fd5b5051610c45578060405180828051906020019060200280838360005b83811015610b93578181015183820152602001610b7b565b50505050905001915050604051809103902082600080516020611736833981519152600360009054906101000a90046001600160a01b03166001600160a01b031663803aa5f66040518163ffffffff1660e01b815260040160206040518083038186803b158015610c0357600080fd5b505afa158015610c17573d6000803e3d6000fd5b505050506040513d6020811015610c2d57600080fd5b505160408051918252519081900360200190a3610816565b600082815260208190526040902060020154600160a01b900460ff1615610c935780604051808280519060200190602002808383600083811015610b93578181015183820152602001610b7b565b610c9c8261163b565b15610d0b578060405180828051906020019060200280838360005b83811015610ccf578181015183820152602001610cb7565b505060408051959093018590038520610fa3865292519296508895506000805160206117368339815191529483900360200193505050a3610816565b6000828152602081905260409020600101546001600160a01b03163314610d595780604051808280519060200190602002808383600083811015610b93578181015183820152602001610b7b565b610d638282610850565b610e43578060405180828051906020019060200280838360005b83811015610d95578181015183820152602001610d7d565b50505050905001915050604051809103902082600080516020611736833981519152600360009054906101000a90046001600160a01b03166001600160a01b031663803aa5f66040518163ffffffff1660e01b815260040160206040518083038186803b158015610e0557600080fd5b505afa158015610e19573d6000803e3d6000fd5b505050506040513d6020811015610e2f57600080fd5b505160408051918252519081900360200190a35b6000828152600260209081526040808320805460ff1916600117905551835184939192839285820192909102908190849084905b83811015610e8f578181015183820152602001610e77565b5050604080519590930185900385206000865292519296508895506000805160206117368339815191529483900360200193505050a35050565b6000818152602081905260408120548214610ee65750600061084b565b506001919050565b60035460408051637010b03d60e11b815290516001600160a01b039092169163a1a63f65913391849163e021607a916004808301926020929190829003018186803b158015610f3c57600080fd5b505afa158015610f50573d6000803e3d6000fd5b505050506040513d6020811015610f6657600080fd5b5051604080516001600160e01b031960e086901b1681526001600160a01b0390931660048401526024830191909152516044808301926020929190829003018186803b158015610fb557600080fd5b505afa158015610fc9573d6000803e3d6000fd5b505050506040513d6020811015610fdf57600080fd5b505161114057600360009054906101000a90046001600160a01b03166001600160a01b031663803aa5f66040518163ffffffff1660e01b815260040160206040518083038186803b15801561103357600080fd5b505afa158015611047573d6000803e3d6000fd5b505050506040513d602081101561105d57600080fd5b50516040805187815233602082810182905287151593830193909352606082018690524360a0830181905260c06080840181815287519185019190915286516001600160a01b038b16957f13618bea4e26ba42c87386009db40e13fd0df4adefebb4b15381fda19561d66a958d95948c948c948c9492939260e08401919086019080838360005b838110156110fc5781810151838201526020016110e4565b50505050905090810190601f1680156111295780820380516001836020036101000a031916815260200191505b5097505050505050505060405180910390a3611634565b61114985610ec9565b156111f257610fa1846001600160a01b03167f13618bea4e26ba42c87386009db40e13fd0df4adefebb4b15381fda19561d66a87338787874360405180878152602001866001600160a01b03166001600160a01b03168152602001851515151581526020018481526020018060200183815260200182810382528481815181526020019150805190602001908083836000838110156110fc5781810151838201526020016110e4565b60035460408051631af0ab1d60e01b815290516001600160a01b039092169163505ef22f9187918491631af0ab1d916004808301926020929190829003018186803b15801561124057600080fd5b505afa158015611254573d6000803e3d6000fd5b505050506040513d602081101561126a57600080fd5b5051604080516001600160e01b031960e086901b1681526001600160a01b0390931660048401526024830191909152516044808301926020929190829003018186803b1580156112b957600080fd5b505afa1580156112cd573d6000803e3d6000fd5b505050506040513d60208110156112e357600080fd5b505161133757600360009054906101000a90046001600160a01b03166001600160a01b031663803aa5f66040518163ffffffff1660e01b815260040160206040518083038186803b15801561103357600080fd5b82158015611435575060035460408051633bac774360e21b815290516001600160a01b039092169163505ef22f918791849163eeb1dd0c916004808301926020929190829003018186803b15801561138e57600080fd5b505afa1580156113a2573d6000803e3d6000fd5b505050506040513d60208110156113b857600080fd5b5051604080516001600160e01b031960e086901b1681526001600160a01b0390931660048401526024830191909152516044808301926020929190829003018186803b15801561140757600080fd5b505afa15801561141b573d6000803e3d6000fd5b505050506040513d602081101561143157600080fd5b5051155b1561148857600360009054906101000a90046001600160a01b03166001600160a01b031663803aa5f66040518163ffffffff1660e01b815260040160206040518083038186803b15801561103357600080fd5b6040805160e0810182528681526001600160a01b03868116602080840191825233848601908152881515606086019081526080860189815260a087018981524360c089015260008e8152808652989098208751815594516001860180546001600160a01b0319908116928916929092179055925160028601805493519390941696169590951760ff60a01b1916600160a01b911515919091021790559151600382015592518051929392611542926004850192019061167a565b5060c082015181600501559050506000846001600160a01b03167f13618bea4e26ba42c87386009db40e13fd0df4adefebb4b15381fda19561d66a87338787874360405180878152602001866001600160a01b03166001600160a01b031681526020018515151515815260200184815260200180602001838152602001828103825284818151815260200191508051906020019080838360005b838110156115f45781810151838201526020016115dc565b50505050905090810190601f1680156116215780820380516001836020036101000a031916815260200191505b5097505050505050505060405180910390a35b5050505050565b60009081526002602052604090205460ff1690565b600061165b82610ec9565b61166457600080fd5b5060009081526020819052604090206005015490565b828054600181600116156101000203166002900490600052602060002090601f016020900481019282601f106116bb57805160ff19168380011785556116e8565b828001600101855582156116e8579182015b828111156116e85782518255916020019190600101906116cd565b506116f49291506116f8565b5090565b61171291905b808211156116f457600081556001016116fe565b9056fe0130d4ecd60550a3f938625567373e4cf640a9452f5b7905e786e2f1272b956cda686529d789b252a43396ac538f9a597b61660acb44b8836d9f3b81381043b6a265627a7a723158207ae1be1b87e887a84adf0c182068bf166531b751d0107285ececd08f9170b2fb64736f6c63430005110032",
  "source": "pragma solidity 0.5.17;\n\n// Copyright 2021 The dt-contracts Authors\n// This file is part of the dt-contracts library.\n//\n// The dt-contracts library is free software: you can redistribute it and/or modify\n// it under the terms of the GNU Lesser General Public License as published by\n// the Free Software Foundation, either version 3 of the License, or\n// (at your option) any later version.\n//\n// The dt-contracts library is distributed in the hope that it will be useful,\n// but WITHOUT ANY WARRANTY; without even the implied warranty of\n// MERCHANTABILITY or FITNESS FOR A PARTICULAR PURPOSE. See the\n// GNU Lesser General Public License for more details.\n//\n// You should have received a copy of the GNU Lesser General Public License\n// along with the dt-contracts library. If not, see <http://www.gnu.org/licenses/>.\n\nimport \"./RoleController.sol\";\n\n/**\n * @title DTFactory\n */\ncontract DTFactory {\n    uint256 private constant SUCCESS = 0;\n    uint256 private constant DT_EXISTS = 4001;\n    uint256 private constant DT_NOT_EXISTS = 4002;\n    uint256 private constant CDT_EXISTS = 4003;\n    uint256 private constant CDT_NOT_EXISTS = 4004;\n    uint256 private constant DT_GRATED = 4005;\n    uint256 private constant DT_NOT_GRATED = 4006;\n\n    struct DataToken {\n        bytes32 dt;\n        address owner;\n        address minter;\n        bool isLeaf;\n        bytes32 checksum;\n        string ipfsPath;\n        uint256 blockUpdated;\n    }\n\n    // all dts including leaf/composable\n    mapping(bytes32 => DataToken) DTLists;\n    // dt permission chain\n    mapping(bytes32 => mapping(bytes32 => bool)) DTPermissions;\n    // available cdts\n    mapping(bytes32 => bool) CDTLists;\n\n    event DataTokenMinted(\n        bytes32 _dt,\n        address indexed _owner,\n        address _minter,\n        bool _isLeaf,\n        bytes32 _checksum,\n        string _ipfsPath,\n        uint256 _blockUpdated,\n        uint256 indexed _code\n    );\n\n    event CDTMinted(\n        bytes32 indexed _cdt,\n        bytes32[] indexed _childDTs,\n        uint256 _code\n    );\n\n    event DataTokenGranted(\n        bytes32 indexed _dt,\n        address _owner,\n        bytes32 indexed _grantee,\n        uint256 indexed _code\n    );\n\n    RoleController private rc;\n\n    /**\n     * @dev constructor\n     *      contract deployment\n     * @param rcAddr refers to the RoleController address\n     */\n    constructor(address rcAddr) public {\n        rc = RoleController(rcAddr);\n    }\n\n    /**\n     * @dev mintDataToken\n     *      creates new data token on-chain.\n     * @param _dt refers to data token identifier\n     * @param _owner refers to data token owner\n     * @param _isLeaf leaf dt or composable dt\n     * @param _checksum checksum associated with dt/metadata\n     * @param _ipfsPath referes to the metadata storage path\n     */\n    function mintDataToken(\n        bytes32 _dt,\n        address _owner,\n        bool _isLeaf,\n        bytes32 _checksum,\n        string memory _ipfsPath\n    ) public {\n        if (!rc.checkPermission(msg.sender, rc.MODIFY_ASSET())) {\n            emit DataTokenMinted(\n                _dt,\n                _owner,\n                msg.sender,\n                _isLeaf,\n                _checksum,\n                _ipfsPath,\n                block.number,\n                rc.ERROR_NO_PERMISSION()\n            );\n            return;\n        }\n\n        if (isDTAvailable(_dt)) {\n            emit DataTokenMinted(\n                _dt,\n                _owner,\n                msg.sender,\n                _isLeaf,\n                _checksum,\n                _ipfsPath,\n                block.number,\n                DT_EXISTS\n            );\n            return;\n        }\n\n        if (!rc.checkRole(_owner, rc.ROLE_PROVIDER())) {\n            emit DataTokenMinted(\n                _dt,\n                _owner,\n                msg.sender,\n                _isLeaf,\n                _checksum,\n                _ipfsPath,\n                block.number,\n                rc.ERROR_NO_PERMISSION()\n            );\n            return;\n        }\n\n        // Owner of composable DT must be aggregator (enterprize now)\n        if (!_isLeaf && !rc.checkRole(_owner, rc.ROLE_ENTERPRIZE())) {\n            emit DataTokenMinted(\n                _dt,\n                _owner,\n                msg.sender,\n                _isLeaf,\n                _checksum,\n                _ipfsPath,\n                block.number,\n                rc.ERROR_NO_PERMISSION()\n            );\n            return;\n        }\n\n        DTLists[_dt] = DataToken({\n            dt: _dt,\n            owner: _owner,\n            minter: msg.sender,\n            isLeaf: _isLeaf,\n            checksum: _checksum,\n            ipfsPath: _ipfsPath,\n            blockUpdated: block.number\n        });\n\n        emit DataTokenMinted(\n            _dt,\n            _owner,\n            msg.sender,\n            _isLeaf,\n            _checksum,\n            _ipfsPath,\n            block.number,\n            SUCCESS\n        );\n    }\n\n    /**\n     * @dev grantPermission\n     *      It grants one dt to other dt.\n     * @param _dt refers to data token identifier\n     * @param _grantee refers to granted dt identifier\n     */\n    function grantPermission(bytes32 _dt, bytes32 _grantee) external {\n        if (!rc.checkPermission(msg.sender, rc.MODIFY_AUTHORIZE())) {\n            emit DataTokenGranted(\n                _dt,\n                msg.sender,\n                _grantee,\n                rc.ERROR_NO_PERMISSION()\n            );\n            return;\n        }\n\n        if (DTPermissions[_dt][_grantee] != false) {\n            emit DataTokenGranted(_dt, msg.sender, _grantee, DT_GRATED);\n            return;\n        }\n\n        if (!isDTAvailable(_dt) || !isDTAvailable(_grantee)) {\n            emit DataTokenGranted(_dt, msg.sender, _grantee, DT_NOT_EXISTS);\n            return;\n        }\n\n        if (DTLists[_dt].owner != msg.sender) {\n            emit DataTokenGranted(\n                _dt,\n                msg.sender,\n                _grantee,\n                rc.ERROR_NO_PERMISSION()\n            );\n            return;\n        }\n\n        // grantee must be composable DT\n        if (\n            (!DTLists[_dt].isLeaf && !isCDTAvailable(_dt)) ||\n            DTLists[_grantee].isLeaf\n        ) {\n            emit DataTokenGranted(_dt, msg.sender, _grantee, CDT_NOT_EXISTS);\n            return;\n        }\n\n        DTPermissions[_dt][_grantee] = true;\n\n        emit DataTokenGranted(_dt, msg.sender, _grantee, SUCCESS);\n    }\n\n    /**\n     * @dev startComposeDT\n     *      activates the CDT by the aggregator when all perms are ready.\n     * @param _cdt refers to cdt identifier\n     * @param _childDTs associated with child_dts identifier\n     */\n    function startComposeDT(bytes32 _cdt, bytes32[] memory _childDTs) public {\n        if (!rc.checkPermission(msg.sender, rc.MODIFY_ASSET())) {\n            emit CDTMinted(_cdt, _childDTs, rc.ERROR_NO_PERMISSION());\n            return;\n        }\n\n        if (DTLists[_cdt].isLeaf) {\n            emit CDTMinted(_cdt, _childDTs, rc.ERROR_NO_PERMISSION());\n            return;\n        }\n\n        if (isCDTAvailable(_cdt)) {\n            emit CDTMinted(_cdt, _childDTs, CDT_EXISTS);\n            return;\n        }\n\n        if (DTLists[_cdt].owner != msg.sender) {\n            emit CDTMinted(_cdt, _childDTs, rc.ERROR_NO_PERMISSION());\n            return;\n        }\n\n        if (!CLinksCheck(_cdt, _childDTs)) {\n            emit CDTMinted(_cdt, _childDTs, rc.ERROR_NO_PERMISSION());\n        }\n\n        CDTLists[_cdt] = true;\n\n        emit CDTMinted(_cdt, _childDTs, SUCCESS);\n    }\n\n    /**\n     * @dev CLinksCheck\n     *      checks permission for related parties of a Composable DT.\n     * @param _cdt refers to cdt identifier\n     * @param _childDTs refers to child_dts identifiers\n     * @return bool.\n     */\n    function CLinksCheck(bytes32 _cdt, bytes32[] memory _childDTs)\n        public\n        view\n        returns (bool)\n    {\n        if (!isDTAvailable(_cdt)) {\n            return false;\n        }\n\n        uint256 idx = 0;\n        for (idx = 0; idx < _childDTs.length; idx++) {\n            if (!isDTAvailable(_childDTs[idx])) {\n                return false;\n            }\n            if (\n                !DTLists[_childDTs[idx]].isLeaf &&\n                !isCDTAvailable(_childDTs[idx])\n            ) {\n                return false;\n            }\n            if (!getPermission(_childDTs[idx], _cdt)) {\n                return false;\n            }\n        }\n\n        return true;\n    }\n\n    /**\n     * @dev isDTAvailable\n     * @param _dt refers to the dt identifier\n     * @return bool.\n     */\n    function isDTAvailable(bytes32 _dt) public view returns (bool) {\n        if (DTLists[_dt].dt != _dt) {\n            return false;\n        }\n        return true;\n    }\n\n    /**\n     * @dev isCDTAvailable\n     * @param _cdt refers to the cdt identifier\n     * @return bool.\n     */\n    function isCDTAvailable(bytes32 _cdt) public view returns (bool) {\n        return CDTLists[_cdt];\n    }\n\n    /**\n     * @dev getPermission\n     *      check permission.\n     * @param _dt refers to data token identifier\n     * @param _grantee refers to granted dt identifier\n     * @return is granted or not.\n     */\n    function getPermission(bytes32 _dt, bytes32 _grantee)\n        public\n        view\n        returns (bool)\n    {\n        return DTPermissions[_dt][_grantee];\n    }\n\n    /**\n     * @dev getDTOwner\n     *      It returns the owner for a data token.\n     * @param _dt refers to data token identifier\n     * @return owner address.\n     */\n    function getDTOwner(bytes32 _dt) public view returns (address) {\n        require(isDTAvailable(_dt));\n\n        return DTLists[_dt].owner;\n    }\n\n    /**\n     * @dev getBlockNumberUpdated\n     *      It returns the blockUpdated for a data token.\n     * @param _dt refers to data token identifier\n     * @return blockUpdated.\n     */\n    function getBlockNumberUpdated(bytes32 _dt)\n        public\n        view\n        returns (uint256 blockUpdated)\n    {\n        require(isDTAvailable(_dt));\n\n        return DTLists[_dt].blockUpdated;\n    }\n\n    /**\n     * @dev getDTRegister\n     *      It returns the dt records.\n     * @param _dt refers to data token identifier\n     * @return DataToken struct.\n     */\n    function getDTRegister(bytes32 _dt)\n        public\n        view\n        returns (\n            address owner,\n            address minter,\n            bytes32 checksum,\n            bool isLeaf,\n            string memory ipfsPath,\n            uint256 blockUpdated\n        )\n    {\n        require(isDTAvailable(_dt));\n\n        owner = DTLists[_dt].owner;\n        minter = DTLists[_dt].minter;\n        checksum = DTLists[_dt].checksum;\n        isLeaf = DTLists[_dt].isLeaf;\n        ipfsPath = DTLists[_dt].ipfsPath;\n        blockUpdated = DTLists[_dt].blockUpdated;\n    }\n}\n",
  "sourcePath": "/Users/liqibing/Research/blockchain/ownership/datatoken/dt-contracts/contracts/DTFactory.sol",
  "compiler": {
    "name": "solc",
    "version": "0.5.17+commit.d117da36.Emscripten.clang"
  },
  "schemaVersion": "3.0.19",
  "updatedAt": "2021-02-21T10:18:23.519Z",
  "devdoc": {
    "methods": {
      "CLinksCheck(bytes32,bytes32[])": {
        "details": "CLinksCheck     checks permission for related parties of a Composable DT.",
        "params": {
          "_cdt": "refers to cdt identifier",
          "_childDTs": "refers to child_dts identifiers"
        },
        "return": "bool."
      },
      "constructor": {
        "details": "constructor     contract deployment",
        "params": {
          "rcAddr": "refers to the RoleController address"
        }
      },
      "getBlockNumberUpdated(bytes32)": {
        "details": "getBlockNumberUpdated     It returns the blockUpdated for a data token.",
        "params": {
          "_dt": "refers to data token identifier"
        },
        "return": "blockUpdated."
      },
      "getDTOwner(bytes32)": {
        "details": "getDTOwner     It returns the owner for a data token.",
        "params": {
          "_dt": "refers to data token identifier"
        },
        "return": "owner address."
      },
      "getDTRegister(bytes32)": {
        "details": "getDTRegister     It returns the dt records.",
        "params": {
          "_dt": "refers to data token identifier"
        },
        "return": "DataToken struct."
      },
      "getPermission(bytes32,bytes32)": {
        "details": "getPermission     check permission.",
        "params": {
          "_dt": "refers to data token identifier",
          "_grantee": "refers to granted dt identifier"
        },
        "return": "is granted or not."
      },
      "grantPermission(bytes32,bytes32)": {
        "details": "grantPermission     It grants one dt to other dt.",
        "params": {
          "_dt": "refers to data token identifier",
          "_grantee": "refers to granted dt identifier"
        }
      },
      "isCDTAvailable(bytes32)": {
        "details": "isCDTAvailable",
        "params": {
          "_cdt": "refers to the cdt identifier"
        },
        "return": "bool."
      },
      "isDTAvailable(bytes32)": {
        "details": "isDTAvailable",
        "params": {
          "_dt": "refers to the dt identifier"
        },
        "return": "bool."
      },
      "mintDataToken(bytes32,address,bool,bytes32,string)": {
        "details": "mintDataToken     creates new data token on-chain.",
        "params": {
          "_checksum": "checksum associated with dt/metadata",
          "_dt": "refers to data token identifier",
          "_ipfsPath": "referes to the metadata storage path",
          "_isLeaf": "leaf dt or composable dt",
          "_owner": "refers to data token owner"
        }
      },
      "startComposeDT(bytes32,bytes32[])": {
        "details": "startComposeDT     activates the CDT by the aggregator when all perms are ready.",
        "params": {
          "_cdt": "refers to cdt identifier",
          "_childDTs": "associated with child_dts identifier"
        }
      }
    },
    "title": "DTFactory"
  },
  "userdoc": {
    "methods": {}
  }
}