{
  "contractName": "DTFactory",
  "abi": [
    {
      "inputs": [
        {
          "internalType": "address",
          "name": "rcAddr",
          "type": "address"
        }
      ],
      "payable": false,
      "stateMutability": "nonpayable",
      "type": "constructor"
    },
    {
      "anonymous": false,
      "inputs": [
        {
          "indexed": true,
          "internalType": "bytes32",
          "name": "_cdt",
          "type": "bytes32"
        },
        {
          "indexed": true,
          "internalType": "bytes32[]",
          "name": "_childDTs",
          "type": "bytes32[]"
        },
        {
          "indexed": false,
          "internalType": "uint256",
          "name": "_code",
          "type": "uint256"
        }
      ],
      "name": "CDTMinted",
      "type": "event"
    },
    {
      "anonymous": false,
      "inputs": [
        {
          "indexed": true,
          "internalType": "bytes32",
          "name": "_dt",
          "type": "bytes32"
        },
        {
          "indexed": false,
          "internalType": "address",
          "name": "_owner",
          "type": "address"
        },
        {
          "indexed": true,
          "internalType": "bytes32",
          "name": "_grantee",
          "type": "bytes32"
        },
        {
          "indexed": true,
          "internalType": "uint256",
          "name": "_code",
          "type": "uint256"
        }
      ],
      "name": "DataTokenGranted",
      "type": "event"
    },
    {
      "anonymous": false,
      "inputs": [
        {
          "indexed": false,
          "internalType": "bytes32",
          "name": "_dt",
          "type": "bytes32"
        },
        {
          "indexed": true,
          "internalType": "address",
          "name": "_owner",
          "type": "address"
        },
        {
          "indexed": false,
          "internalType": "address",
          "name": "_minter",
          "type": "address"
        },
        {
          "indexed": false,
          "internalType": "bool",
          "name": "_isLeaf",
          "type": "bool"
        },
        {
          "indexed": false,
          "internalType": "bytes32",
          "name": "_checksum",
          "type": "bytes32"
        },
        {
          "indexed": false,
          "internalType": "string",
          "name": "_ipfsPath",
          "type": "string"
        },
        {
          "indexed": false,
          "internalType": "uint256",
          "name": "_blockUpdated",
          "type": "uint256"
        },
        {
          "indexed": true,
          "internalType": "uint256",
          "name": "_code",
          "type": "uint256"
        }
      ],
      "name": "DataTokenMinted",
      "type": "event"
    },
    {
      "constant": true,
      "inputs": [
        {
          "internalType": "uint256",
          "name": "",
          "type": "uint256"
        }
      ],
      "name": "dts",
      "outputs": [
        {
          "internalType": "bytes32",
          "name": "",
          "type": "bytes32"
        }
      ],
      "payable": false,
      "stateMutability": "view",
      "type": "function"
    },
    {
      "constant": false,
      "inputs": [
        {
          "internalType": "bytes32",
          "name": "_dt",
          "type": "bytes32"
        },
        {
          "internalType": "address",
          "name": "_owner",
          "type": "address"
        },
        {
          "internalType": "bool",
          "name": "_isLeaf",
          "type": "bool"
        },
        {
          "internalType": "bytes32",
          "name": "_checksum",
          "type": "bytes32"
        },
        {
          "internalType": "string",
          "name": "_ipfsPath",
          "type": "string"
        }
      ],
      "name": "mintDataToken",
      "outputs": [],
      "payable": false,
      "stateMutability": "nonpayable",
      "type": "function"
    },
    {
      "constant": false,
      "inputs": [
        {
          "internalType": "bytes32",
          "name": "_dt",
          "type": "bytes32"
        },
        {
          "internalType": "bytes32",
          "name": "_grantee",
          "type": "bytes32"
        }
      ],
      "name": "grantPermission",
      "outputs": [],
      "payable": false,
      "stateMutability": "nonpayable",
      "type": "function"
    },
    {
      "constant": false,
      "inputs": [
        {
          "internalType": "bytes32",
          "name": "_cdt",
          "type": "bytes32"
        },
        {
          "internalType": "bytes32[]",
          "name": "_childDTs",
          "type": "bytes32[]"
        }
      ],
      "name": "startComposeDT",
      "outputs": [],
      "payable": false,
      "stateMutability": "nonpayable",
      "type": "function"
    },
    {
      "constant": true,
      "inputs": [
        {
          "internalType": "bytes32",
          "name": "_cdt",
          "type": "bytes32"
        },
        {
          "internalType": "bytes32[]",
          "name": "_childDTs",
          "type": "bytes32[]"
        }
      ],
      "name": "CLinksCheck",
      "outputs": [
        {
          "internalType": "bool",
          "name": "",
          "type": "bool"
        }
      ],
      "payable": false,
      "stateMutability": "view",
      "type": "function"
    },
    {
      "constant": true,
      "inputs": [
        {
          "internalType": "bytes32",
          "name": "_dt",
          "type": "bytes32"
        }
      ],
      "name": "isDTAvailable",
      "outputs": [
        {
          "internalType": "bool",
          "name": "",
          "type": "bool"
        }
      ],
      "payable": false,
      "stateMutability": "view",
      "type": "function"
    },
    {
      "constant": true,
      "inputs": [
        {
          "internalType": "bytes32",
          "name": "_cdt",
          "type": "bytes32"
        }
      ],
      "name": "isCDTAvailable",
      "outputs": [
        {
          "internalType": "bool",
          "name": "",
          "type": "bool"
        }
      ],
      "payable": false,
      "stateMutability": "view",
      "type": "function"
    },
    {
      "constant": true,
      "inputs": [
        {
          "internalType": "bytes32",
          "name": "_dt",
          "type": "bytes32"
        },
        {
          "internalType": "bytes32",
          "name": "_grantee",
          "type": "bytes32"
        }
      ],
      "name": "getPermission",
      "outputs": [
        {
          "internalType": "bool",
          "name": "",
          "type": "bool"
        }
      ],
      "payable": false,
      "stateMutability": "view",
      "type": "function"
    },
    {
      "constant": true,
      "inputs": [
        {
          "internalType": "bytes32",
          "name": "_dt",
          "type": "bytes32"
        }
      ],
      "name": "getDTOwner",
      "outputs": [
        {
          "internalType": "address",
          "name": "",
          "type": "address"
        }
      ],
      "payable": false,
      "stateMutability": "view",
      "type": "function"
    },
    {
      "constant": true,
      "inputs": [
        {
          "internalType": "bytes32",
          "name": "_dt",
          "type": "bytes32"
        }
      ],
      "name": "getBlockNumberUpdated",
      "outputs": [
        {
          "internalType": "uint256",
          "name": "blockUpdated",
          "type": "uint256"
        }
      ],
      "payable": false,
      "stateMutability": "view",
      "type": "function"
    },
    {
      "constant": true,
      "inputs": [
        {
          "internalType": "bytes32",
          "name": "_dt",
          "type": "bytes32"
        }
      ],
      "name": "getDTRegister",
      "outputs": [
        {
          "internalType": "address",
          "name": "owner",
          "type": "address"
        },
        {
          "internalType": "address",
          "name": "minter",
          "type": "address"
        },
        {
          "internalType": "bytes32",
          "name": "checksum",
          "type": "bytes32"
        },
        {
          "internalType": "bool",
          "name": "isLeaf",
          "type": "bool"
        },
        {
          "internalType": "string",
          "name": "ipfsPath",
          "type": "string"
        },
        {
          "internalType": "uint256",
          "name": "blockUpdated",
          "type": "uint256"
        }
      ],
      "payable": false,
      "stateMutability": "view",
      "type": "function"
    },
    {
      "constant": true,
      "inputs": [],
      "name": "getDTNum",
      "outputs": [
        {
          "internalType": "uint256",
          "name": "totalDTs",
          "type": "uint256"
        }
      ],
      "payable": false,
      "stateMutability": "view",
      "type": "function"
    },
    {
      "constant": true,
      "inputs": [],
      "name": "getDTMap",
      "outputs": [
        {
          "internalType": "bytes32[]",
          "name": "dtidx",
          "type": "bytes32[]"
        },
        {
          "internalType": "address[]",
          "name": "owners",
          "type": "address[]"
        },
        {
          "internalType": "address[]",
          "name": "minters",
          "type": "address[]"
        },
        {
          "internalType": "bytes32[]",
          "name": "checksums",
          "type": "bytes32[]"
        },
        {
          "internalType": "bool[]",
          "name": "isLeafs",
          "type": "bool[]"
        },
        {
          "internalType": "string[]",
          "name": "ipfsPaths",
          "type": "string[]"
        },
        {
          "internalType": "uint256[]",
          "name": "blockUpdateds",
          "type": "uint256[]"
        }
      ],
      "payable": false,
      "stateMutability": "view",
      "type": "function"
    }
  ],
  "bytecode": "0x60806040523480156200001157600080fd5b5060405162001ea738038062001ea783398101604081905262000034916200006d565b600480546001600160a01b0319166001600160a01b0392909216919091179055620000c2565b80516200006781620000a8565b92915050565b6000602082840312156200008057600080fd5b60006200008e84846200005a565b949350505050565b60006001600160a01b03821662000067565b620000b38162000096565b8114620000bf57600080fd5b50565b611dd580620000d26000396000f3fe608060405234801561001057600080fd5b50600436106100cf5760003560e01c80635d23910a1161008c5780638af49807116100665780638af49807146101c05780639cc218f4146101d3578063bbc1dede146101e6578063e87db235146101f9576100cf565b80635d23910a1461017557806375fb921b1461019a57806378052cfc146101ad576100cf565b806303b0024c146100d45780633ccf81ed146100e95780633d187f841461010d57806342f861881461012d57806343a6dea61461014257806355e5bfd114610162575b600080fd5b6100e76100e23660046117ac565b61020c565b005b6100f161055c565b6040516101049796959493929190611b4c565b60405180910390f35b61012061011b3660046116af565b61086b565b6040516101049190611aa6565b6101356108a1565b6040516101049190611bf0565b61015561015036600461175a565b6108a7565b6040516101049190611be2565b6101556101703660046117ac565b61099e565b6101886101833660046116af565b6109be565b60405161010496959493929190611add565b6100e76101a836600461175a565b610ac5565b6101556101bb3660046116af565b610e81565b6100e76101ce3660046116cd565b610ea6565b6101556101e13660046116af565b61148c565b6101356101f43660046116af565b6114a1565b6101356102073660046116af565b6114cb565b60048054604080516353205e5960e11b815290516001600160a01b039092169263a1a63f65923392859263a640bcb2928282019260209290829003018186803b15801561025857600080fd5b505afa15801561026c573d6000803e3d6000fd5b505050506040513d601f19601f8201168201806040525061029091908101906117dc565b6040518363ffffffff1660e01b81526004016102ad929190611ac2565b60206040518083038186803b1580156102c557600080fd5b505afa1580156102d9573d6000803e3d6000fd5b505050506040513d601f19601f820116820180604052506102fd9190810190611689565b6103a757600480546040805163401d52fb60e11b815290516001600160a01b039092169263803aa5f6928282019260209290829003018186803b15801561034357600080fd5b505afa158015610357573d6000803e3d6000fd5b505050506040513d601f19601f8201168201806040525061037b91908101906117dc565b8183600080516020611d538339815191523360405161039a9190611ab4565b60405180910390a4610558565b600082815260016020908152604080832084845290915290205460ff16156103eb57610fa58183600080516020611d538339815191523360405161039a9190611ab4565b6103f482610e81565b1580610406575061040481610e81565b155b1561042d57610fa28183600080516020611d538339815191523360405161039a9190611ab4565b6000828152602081905260409020600101546001600160a01b0316331461049057600480546040805163401d52fb60e11b815290516001600160a01b039092169263803aa5f6928282019260209290829003018186803b15801561034357600080fd5b600082815260208190526040902060020154600160a01b900460ff161580156104bf57506104bd8261148c565b155b806104e25750600081815260208190526040902060020154600160a01b900460ff165b1561050957610fa48183600080516020611d538339815191523360405161039a9190611ab4565b6000828152600160208181526040808420858552909152808320805460ff19169092179091555182908490600080516020611d538339815191529061054f903390611ab4565b60405180910390a45b5050565b606080808080808060005b60035481101561080e576000806003838154811061058157fe5b9060005260206000200154815260200190815260200160002060010160009054906101000a90046001600160a01b03168782815181106105bd57fe5b60200260200101906001600160a01b031690816001600160a01b031681525050600080600383815481106105ed57fe5b9060005260206000200154815260200190815260200160002060020160009054906101000a90046001600160a01b031686828151811061062957fe5b60200260200101906001600160a01b031690816001600160a01b0316815250506000806003838154811061065957fe5b906000526020600020015481526020019081526020016000206003015485828151811061068257fe5b6020026020010181815250506000806003838154811061069e57fe5b9060005260206000200154815260200190815260200160002060020160149054906101000a900460ff168482815181106106d457fe5b602002602001019015159081151581525050600080600383815481106106f657fe5b906000526020600020015481526020019081526020016000206004018054600181600116156101000203166002900480601f0160208091040260200160405190810160405280929190818152602001828054600181600116156101000203166002900480156107a65780601f1061077b576101008083540402835291602001916107a6565b820191906000526020600020905b81548152906001019060200180831161078957829003601f168201915b50505050508382815181106107b757fe5b6020026020010181905250600080600383815481106107d257fe5b90600052602060002001548152602001908152602001600020600501548282815181106107fb57fe5b6020908102919091010152600101610567565b50600380548060200260200160405190810160405280929190818152602001828054801561085b57602002820191906000526020600020905b815481526020019060010190808311610847575b5050505050965090919293949596565b600061087682610e81565b61087f57600080fd5b506000818152602081905260409020600101546001600160a01b03165b919050565b60035490565b60006108b283610e81565b6108be57506000610998565b60005b8251811015610992576108e68382815181106108d957fe5b6020026020010151610e81565b6108f4576000915050610998565b60008084838151811061090357fe5b6020026020010151815260200190815260200160002060020160149054906101000a900460ff16158015610950575061094e83828151811061094157fe5b602002602001015161148c565b155b1561095f576000915050610998565b61097c83828151811061096e57fe5b60200260200101518561099e565b61098a576000915050610998565b6001016108c1565b60019150505b92915050565b600091825260016020908152604080842092845291905290205460ff1690565b600080600080606060006109d187610e81565b6109da57600080fd5b6000878152602081815260409182902060018082015460028084015460038501546004909501805488516101009682161596909602600019011692909204601f81018790048702850187019097528684526001600160a01b039283169c509182169a50929850600160a01b900460ff169650929091830182828015610aa05780601f10610a7557610100808354040283529160200191610aa0565b820191906000526020600020905b815481529060010190602001808311610a8357829003601f168201915b5050506000998a52505060208890526040909720600501549597949693959294915050565b6004805460408051637010b03d60e11b815290516001600160a01b039092169263a1a63f65923392859263e021607a928282019260209290829003018186803b158015610b1157600080fd5b505afa158015610b25573d6000803e3d6000fd5b505050506040513d601f19601f82011682018060405250610b4991908101906117dc565b6040518363ffffffff1660e01b8152600401610b66929190611ac2565b60206040518083038186803b158015610b7e57600080fd5b505afa158015610b92573d6000803e3d6000fd5b505050506040513d601f19601f82011682018060405250610bb69190810190611689565b610c805780604051610bc89190611a9a565b604051809103902082600080516020611d73833981519152600460009054906101000a90046001600160a01b03166001600160a01b031663803aa5f66040518163ffffffff1660e01b815260040160206040518083038186803b158015610c2e57600080fd5b505afa158015610c42573d6000803e3d6000fd5b505050506040513d601f19601f82011682018060405250610c6691908101906117dc565b604051610c739190611bf0565b60405180910390a3610558565b600082815260208190526040902060020154600160a01b900460ff1615610caf5780604051610bc89190611a9a565b610cb88261148c565b15610cf35780604051610ccb9190611a9a565b604051809103902082600080516020611d73833981519152610fa3604051610c739190611bf0565b6000828152602081905260409020600101546001600160a01b03163314610d225780604051610bc89190611a9a565b610d2c82826108a7565b610df25780604051610d3e9190611a9a565b604051809103902082600080516020611d73833981519152600460009054906101000a90046001600160a01b03166001600160a01b031663803aa5f66040518163ffffffff1660e01b815260040160206040518083038186803b158015610da457600080fd5b505afa158015610db8573d6000803e3d6000fd5b505050506040513d601f19601f82011682018060405250610ddc91908101906117dc565b604051610de99190611bf0565b60405180910390a35b600082815260026020526040808220805460ff191660019081179091556003805491820181559092527fc2575a0e9e593c00f959f8c92f12db2869c3395a3b0502d05e2516446f71f85b90910183905551610e4e908290611a9a565b604051809103902082600080516020611d738339815191526000604051610e759190611bf0565b60405180910390a35050565b6000818152602081905260408120548214610e9e5750600061089c565b506001919050565b6004805460408051637010b03d60e11b815290516001600160a01b039092169263a1a63f65923392859263e021607a928282019260209290829003018186803b158015610ef257600080fd5b505afa158015610f06573d6000803e3d6000fd5b505050506040513d601f19601f82011682018060405250610f2a91908101906117dc565b6040518363ffffffff1660e01b8152600401610f47929190611ac2565b60206040518083038186803b158015610f5f57600080fd5b505afa158015610f73573d6000803e3d6000fd5b505050506040513d601f19601f82011682018060405250610f979190810190611689565b61106557600480546040805163401d52fb60e11b815290516001600160a01b039092169263803aa5f6928282019260209290829003018186803b158015610fdd57600080fd5b505afa158015610ff1573d6000803e3d6000fd5b505050506040513d601f19601f8201168201806040525061101591908101906117dc565b846001600160a01b03167f13618bea4e26ba42c87386009db40e13fd0df4adefebb4b15381fda19561d66a87338787874360405161105896959493929190611bfe565b60405180910390a3611485565b61106e85610e81565b156110b957610fa1846001600160a01b03167f13618bea4e26ba42c87386009db40e13fd0df4adefebb4b15381fda19561d66a87338787874360405161105896959493929190611bfe565b6004805460408051631af0ab1d60e01b815290516001600160a01b039092169263505ef22f9288928592631af0ab1d928282019260209290829003018186803b15801561110557600080fd5b505afa158015611119573d6000803e3d6000fd5b505050506040513d601f19601f8201168201806040525061113d91908101906117dc565b6040518363ffffffff1660e01b815260040161115a929190611b3e565b60206040518083038186803b15801561117257600080fd5b505afa158015611186573d6000803e3d6000fd5b505050506040513d601f19601f820116820180604052506111aa9190810190611689565b6111f057600480546040805163401d52fb60e11b815290516001600160a01b039092169263803aa5f6928282019260209290829003018186803b158015610fdd57600080fd5b821580156112ec57506004805460408051633bac774360e21b815290516001600160a01b039092169263505ef22f928892859263eeb1dd0c928282019260209290829003018186803b15801561124557600080fd5b505afa158015611259573d6000803e3d6000fd5b505050506040513d601f19601f8201168201806040525061127d91908101906117dc565b6040518363ffffffff1660e01b815260040161129a929190611b3e565b60206040518083038186803b1580156112b257600080fd5b505afa1580156112c6573d6000803e3d6000fd5b505050506040513d601f19601f820116820180604052506112ea9190810190611689565b155b1561133357600480546040805163401d52fb60e11b815290516001600160a01b039092169263803aa5f6928282019260209290829003018186803b158015610fdd57600080fd5b6040805160e0810182528681526001600160a01b03868116602080840191825233848601908152881515606086019081526080860189815260a087018981524360c089015260008e8152808652989098208751815594516001860180546001600160a01b0319908116928916929092179055925160028601805493519390941696169590951760ff60a01b1916600160a01b9115159190910217905591516003820155925180519293926113ed92600485019201906114e9565b5060c08201518160050155905050821561143757600380546001810182556000919091527fc2575a0e9e593c00f959f8c92f12db2869c3395a3b0502d05e2516446f71f85b018590555b6000846001600160a01b03167f13618bea4e26ba42c87386009db40e13fd0df4adefebb4b15381fda19561d66a87338787874360405161147c96959493929190611bfe565b60405180910390a35b5050505050565b60009081526002602052604090205460ff1690565b60006114ac82610e81565b6114b557600080fd5b5060009081526020819052604090206005015490565b600381815481106114d857fe5b600091825260209091200154905081565b828054600181600116156101000203166002900490600052602060002090601f016020900481019282601f1061152a57805160ff1916838001178555611557565b82800160010185558215611557579182015b8281111561155757825182559160200191906001019061153c565b50611563929150611567565b5090565b61158191905b80821115611563576000815560010161156d565b90565b803561099881611d29565b600082601f8301126115a057600080fd5b81356115b36115ae82611c5a565b611c33565b915081818352602084019350602081019050838560208402820111156115d857600080fd5b60005b8381101561160457816115ee8882611624565b84525060209283019291909101906001016115db565b5050505092915050565b803561099881611d40565b805161099881611d40565b803561099881611d49565b600082601f83011261164057600080fd5b813561164e6115ae82611c7b565b9150808252602083016020830185838301111561166a57600080fd5b611675838284611ce3565b50505092915050565b805161099881611d49565b60006020828403121561169b57600080fd5b60006116a78484611619565b949350505050565b6000602082840312156116c157600080fd5b60006116a78484611624565b600080600080600060a086880312156116e557600080fd5b60006116f18888611624565b955050602061170288828901611584565b94505060406117138882890161160e565b935050606061172488828901611624565b925050608086013567ffffffffffffffff81111561174157600080fd5b61174d8882890161162f565b9150509295509295909350565b6000806040838503121561176d57600080fd5b60006117798585611624565b925050602083013567ffffffffffffffff81111561179657600080fd5b6117a28582860161158f565b9150509250929050565b600080604083850312156117bf57600080fd5b60006117cb8585611624565b92505060206117a285828601611624565b6000602082840312156117ee57600080fd5b60006116a7848461167e565b60006118068383611848565b505060200190565b60006118068383611a50565b60006118068383611a59565b60006118328383611a62565b9392505050565b61184281611cd2565b82525050565b61184281611cb6565b600061185c82611ca9565b6118668185611cad565b935061187183611ca3565b8060005b8381101561189f57815161188988826117fa565b975061189483611ca3565b925050600101611875565b509495945050505050565b60006118b582611ca9565b6118bf8185611cad565b93506118ca83611ca3565b8060005b8381101561189f5781516118e2888261180e565b97506118ed83611ca3565b9250506001016118ce565b600061190382611ca9565b61190d8185611cad565b935061191883611ca3565b8060005b8381101561189f578151611930888261181a565b975061193b83611ca3565b92505060010161191c565b600061195182611ca9565b61195b818561089c565b935061196683611ca3565b8060005b8381101561189f57815161197e888261181a565b975061198983611ca3565b92505060010161196a565b600061199f82611ca9565b6119a98185611cad565b9350836020820285016119bb85611ca3565b8060005b858110156119f557848403895281516119d88582611826565b94506119e383611ca3565b60209a909a01999250506001016119bf565b5091979650505050505050565b6000611a0d82611ca9565b611a178185611cad565b9350611a2283611ca3565b8060005b8381101561189f578151611a3a888261181a565b9750611a4583611ca3565b925050600101611a26565b61184281611cc1565b61184281611581565b6000611a6d82611ca9565b611a778185611cad565b9350611a87818560208601611cef565b611a9081611d1f565b9093019392505050565b60006118328284611946565b602081016109988284611848565b602081016109988284611839565b60408101611ad08285611839565b6118326020830184611a59565b60c08101611aeb8289611848565b611af86020830188611848565b611b056040830187611a59565b611b126060830186611a50565b8181036080830152611b248185611a62565b9050611b3360a0830184611a59565b979650505050505050565b60408101611ad08285611848565b60e08082528101611b5d818a6118f8565b90508181036020830152611b718189611851565b90508181036040830152611b858188611851565b90508181036060830152611b9981876118f8565b90508181036080830152611bad81866118aa565b905081810360a0830152611bc18185611994565b905081810360c0830152611bd58184611a02565b9998505050505050505050565b602081016109988284611a50565b602081016109988284611a59565b60c08101611c0c8289611a59565b611c196020830188611839565b611c266040830187611a50565b611b126060830186611a59565b60405181810167ffffffffffffffff81118282101715611c5257600080fd5b604052919050565b600067ffffffffffffffff821115611c7157600080fd5b5060209081020190565b600067ffffffffffffffff821115611c9257600080fd5b506020601f91909101601f19160190565b60200190565b5190565b90815260200190565b600061099882611cc6565b151590565b6001600160a01b031690565b600061099882600061099882611cb6565b82818337506000910152565b60005b83811015611d0a578181015183820152602001611cf2565b83811115611d19576000848401525b50505050565b601f01601f191690565b611d3281611cb6565b8114611d3d57600080fd5b50565b611d3281611cc1565b611d328161158156fe0130d4ecd60550a3f938625567373e4cf640a9452f5b7905e786e2f1272b956cda686529d789b252a43396ac538f9a597b61660acb44b8836d9f3b81381043b6a365627a7a72315820f546baf5d0ac894339d057876523827e28f709f5a8dca911ae0875dc34fca6f36c6578706572696d656e74616cf564736f6c63430005110040",
  "source": "pragma solidity 0.5.17;\npragma experimental ABIEncoderV2;\n\n// Copyright 2021 The dt-contracts Authors\n// This file is part of the dt-contracts library.\n//\n// The dt-contracts library is free software: you can redistribute it and/or modify\n// it under the terms of the GNU Lesser General Public License as published by\n// the Free Software Foundation, either version 3 of the License, or\n// (at your option) any later version.\n//\n// The dt-contracts library is distributed in the hope that it will be useful,\n// but WITHOUT ANY WARRANTY; without even the implied warranty of\n// MERCHANTABILITY or FITNESS FOR A PARTICULAR PURPOSE. See the\n// GNU Lesser General Public License for more details.\n//\n// You should have received a copy of the GNU Lesser General Public License\n// along with the dt-contracts library. If not, see <http://www.gnu.org/licenses/>.\n\nimport \"./RoleController.sol\";\n\n/**\n * @title DTFactory\n */\ncontract DTFactory {\n    uint256 private constant SUCCESS = 0;\n    uint256 private constant DT_EXISTS = 4001;\n    uint256 private constant DT_NOT_EXISTS = 4002;\n    uint256 private constant CDT_EXISTS = 4003;\n    uint256 private constant CDT_NOT_EXISTS = 4004;\n    uint256 private constant DT_GRATED = 4005;\n    uint256 private constant DT_NOT_GRATED = 4006;\n\n    struct DataToken {\n        bytes32 dt;\n        address owner;\n        address minter;\n        bool isLeaf;\n        bytes32 checksum;\n        string ipfsPath;\n        uint256 blockUpdated;\n    }\n\n    // all dts including leaf/composable\n    mapping(bytes32 => DataToken) DTLists;\n    // dt permission chain\n    mapping(bytes32 => mapping(bytes32 => bool)) DTPermissions;\n    // available cdts\n    mapping(bytes32 => bool) CDTLists;\n\n    bytes32[] public dts;\n\n    event DataTokenMinted(\n        bytes32 _dt,\n        address indexed _owner,\n        address _minter,\n        bool _isLeaf,\n        bytes32 _checksum,\n        string _ipfsPath,\n        uint256 _blockUpdated,\n        uint256 indexed _code\n    );\n\n    event CDTMinted(\n        bytes32 indexed _cdt,\n        bytes32[] indexed _childDTs,\n        uint256 _code\n    );\n\n    event DataTokenGranted(\n        bytes32 indexed _dt,\n        address _owner,\n        bytes32 indexed _grantee,\n        uint256 indexed _code\n    );\n\n    RoleController private rc;\n\n    /**\n     * @dev constructor\n     *      contract deployment\n     * @param rcAddr refers to the RoleController address\n     */\n    constructor(address rcAddr) public {\n        rc = RoleController(rcAddr);\n    }\n\n    /**\n     * @dev mintDataToken\n     *      creates new data token on-chain.\n     * @param _dt refers to data token identifier\n     * @param _owner refers to data token owner\n     * @param _isLeaf leaf dt or composable dt\n     * @param _checksum checksum associated with dt/metadata\n     * @param _ipfsPath refers to the metadata storage path\n     */\n    function mintDataToken(\n        bytes32 _dt,\n        address _owner,\n        bool _isLeaf,\n        bytes32 _checksum,\n        string memory _ipfsPath\n    ) public {\n        if (!rc.checkPermission(msg.sender, rc.MODIFY_ASSET())) {\n            emit DataTokenMinted(\n                _dt,\n                _owner,\n                msg.sender,\n                _isLeaf,\n                _checksum,\n                _ipfsPath,\n                block.number,\n                rc.ERROR_NO_PERMISSION()\n            );\n            return;\n        }\n\n        if (isDTAvailable(_dt)) {\n            emit DataTokenMinted(\n                _dt,\n                _owner,\n                msg.sender,\n                _isLeaf,\n                _checksum,\n                _ipfsPath,\n                block.number,\n                DT_EXISTS\n            );\n            return;\n        }\n\n        if (!rc.checkRole(_owner, rc.ROLE_PROVIDER())) {\n            emit DataTokenMinted(\n                _dt,\n                _owner,\n                msg.sender,\n                _isLeaf,\n                _checksum,\n                _ipfsPath,\n                block.number,\n                rc.ERROR_NO_PERMISSION()\n            );\n            return;\n        }\n\n        // Owner of composable DT must be aggregator (enterprize now)\n        if (!_isLeaf && !rc.checkRole(_owner, rc.ROLE_ENTERPRIZE())) {\n            emit DataTokenMinted(\n                _dt,\n                _owner,\n                msg.sender,\n                _isLeaf,\n                _checksum,\n                _ipfsPath,\n                block.number,\n                rc.ERROR_NO_PERMISSION()\n            );\n            return;\n        }\n\n        DTLists[_dt] = DataToken({\n            dt: _dt,\n            owner: _owner,\n            minter: msg.sender,\n            isLeaf: _isLeaf,\n            checksum: _checksum,\n            ipfsPath: _ipfsPath,\n            blockUpdated: block.number\n        });\n\n        if (_isLeaf) {\n            dts.push(_dt);\n        }\n\n        emit DataTokenMinted(\n            _dt,\n            _owner,\n            msg.sender,\n            _isLeaf,\n            _checksum,\n            _ipfsPath,\n            block.number,\n            SUCCESS\n        );\n    }\n\n    /**\n     * @dev grantPermission\n     *      It grants one dt to other dt.\n     * @param _dt refers to data token identifier\n     * @param _grantee refers to granted dt identifier\n     */\n    function grantPermission(bytes32 _dt, bytes32 _grantee) external {\n        if (!rc.checkPermission(msg.sender, rc.MODIFY_AUTHORIZE())) {\n            emit DataTokenGranted(\n                _dt,\n                msg.sender,\n                _grantee,\n                rc.ERROR_NO_PERMISSION()\n            );\n            return;\n        }\n\n        if (DTPermissions[_dt][_grantee] != false) {\n            emit DataTokenGranted(_dt, msg.sender, _grantee, DT_GRATED);\n            return;\n        }\n\n        if (!isDTAvailable(_dt) || !isDTAvailable(_grantee)) {\n            emit DataTokenGranted(_dt, msg.sender, _grantee, DT_NOT_EXISTS);\n            return;\n        }\n\n        if (DTLists[_dt].owner != msg.sender) {\n            emit DataTokenGranted(\n                _dt,\n                msg.sender,\n                _grantee,\n                rc.ERROR_NO_PERMISSION()\n            );\n            return;\n        }\n\n        // grantee must be composable DT\n        if (\n            (!DTLists[_dt].isLeaf && !isCDTAvailable(_dt)) ||\n            DTLists[_grantee].isLeaf\n        ) {\n            emit DataTokenGranted(_dt, msg.sender, _grantee, CDT_NOT_EXISTS);\n            return;\n        }\n\n        DTPermissions[_dt][_grantee] = true;\n\n        emit DataTokenGranted(_dt, msg.sender, _grantee, SUCCESS);\n    }\n\n    /**\n     * @dev startComposeDT\n     *      activates the CDT by the aggregator when all perms are ready.\n     * @param _cdt refers to cdt identifier\n     * @param _childDTs associated with child_dts identifier\n     */\n    function startComposeDT(bytes32 _cdt, bytes32[] memory _childDTs) public {\n        if (!rc.checkPermission(msg.sender, rc.MODIFY_ASSET())) {\n            emit CDTMinted(_cdt, _childDTs, rc.ERROR_NO_PERMISSION());\n            return;\n        }\n\n        if (DTLists[_cdt].isLeaf) {\n            emit CDTMinted(_cdt, _childDTs, rc.ERROR_NO_PERMISSION());\n            return;\n        }\n\n        if (isCDTAvailable(_cdt)) {\n            emit CDTMinted(_cdt, _childDTs, CDT_EXISTS);\n            return;\n        }\n\n        if (DTLists[_cdt].owner != msg.sender) {\n            emit CDTMinted(_cdt, _childDTs, rc.ERROR_NO_PERMISSION());\n            return;\n        }\n\n        if (!CLinksCheck(_cdt, _childDTs)) {\n            emit CDTMinted(_cdt, _childDTs, rc.ERROR_NO_PERMISSION());\n        }\n\n        CDTLists[_cdt] = true;\n\n        dts.push(_cdt);\n\n        emit CDTMinted(_cdt, _childDTs, SUCCESS);\n    }\n\n    /**\n     * @dev CLinksCheck\n     *      checks permission for related parties of a Composable DT.\n     * @param _cdt refers to cdt identifier\n     * @param _childDTs refers to child_dts identifiers\n     * @return bool.\n     */\n    function CLinksCheck(bytes32 _cdt, bytes32[] memory _childDTs)\n        public\n        view\n        returns (bool)\n    {\n        if (!isDTAvailable(_cdt)) {\n            return false;\n        }\n\n        uint256 idx = 0;\n        for (idx = 0; idx < _childDTs.length; idx++) {\n            if (!isDTAvailable(_childDTs[idx])) {\n                return false;\n            }\n            if (\n                !DTLists[_childDTs[idx]].isLeaf &&\n                !isCDTAvailable(_childDTs[idx])\n            ) {\n                return false;\n            }\n            if (!getPermission(_childDTs[idx], _cdt)) {\n                return false;\n            }\n        }\n\n        return true;\n    }\n\n    /**\n     * @dev isDTAvailable\n     * @param _dt refers to the dt identifier\n     * @return bool.\n     */\n    function isDTAvailable(bytes32 _dt) public view returns (bool) {\n        if (DTLists[_dt].dt != _dt) {\n            return false;\n        }\n        return true;\n    }\n\n    /**\n     * @dev isCDTAvailable\n     * @param _cdt refers to the cdt identifier\n     * @return bool.\n     */\n    function isCDTAvailable(bytes32 _cdt) public view returns (bool) {\n        return CDTLists[_cdt];\n    }\n\n    /**\n     * @dev getPermission\n     *      check permission.\n     * @param _dt refers to data token identifier\n     * @param _grantee refers to granted dt identifier\n     * @return is granted or not.\n     */\n    function getPermission(bytes32 _dt, bytes32 _grantee)\n        public\n        view\n        returns (bool)\n    {\n        return DTPermissions[_dt][_grantee];\n    }\n\n    /**\n     * @dev getDTOwner\n     *      It returns the owner for a data token.\n     * @param _dt refers to data token identifier\n     * @return owner address.\n     */\n    function getDTOwner(bytes32 _dt) public view returns (address) {\n        require(isDTAvailable(_dt));\n\n        return DTLists[_dt].owner;\n    }\n\n    /**\n     * @dev getBlockNumberUpdated\n     *      It returns the blockUpdated for a data token.\n     * @param _dt refers to data token identifier\n     * @return blockUpdated.\n     */\n    function getBlockNumberUpdated(bytes32 _dt)\n        public\n        view\n        returns (uint256 blockUpdated)\n    {\n        require(isDTAvailable(_dt));\n\n        return DTLists[_dt].blockUpdated;\n    }\n\n    /**\n     * @dev getDTRegister\n     *      It returns the dt records.\n     * @param _dt refers to data token identifier\n     * @return DataToken struct.\n     */\n    function getDTRegister(bytes32 _dt)\n        public\n        view\n        returns (\n            address owner,\n            address minter,\n            bytes32 checksum,\n            bool isLeaf,\n            string memory ipfsPath,\n            uint256 blockUpdated\n        )\n    {\n        require(isDTAvailable(_dt));\n\n        owner = DTLists[_dt].owner;\n        minter = DTLists[_dt].minter;\n        checksum = DTLists[_dt].checksum;\n        isLeaf = DTLists[_dt].isLeaf;\n        ipfsPath = DTLists[_dt].ipfsPath;\n        blockUpdated = DTLists[_dt].blockUpdated;\n    }\n\n    /**\n     * @dev getDTNum\n     *      gets the total datatoken numbers.\n     * @return uint256.\n     */\n    function getDTNum() public view returns (uint256 totalDTs) {\n        totalDTs = dts.length;\n    }\n\n    /**\n     * @dev getDTMap\n     *      gets all available dts.\n     * @return DataToken[].\n     */\n    function getDTMap()\n        public\n        view\n        returns (\n            bytes32[] memory dtidx,\n            address[] memory owners,\n            address[] memory minters,\n            bytes32[] memory checksums,\n            bool[] memory isLeafs,\n            string[] memory ipfsPaths,\n            uint256[] memory blockUpdateds\n        )\n    {\n        for (uint256 i = 0; i < dts.length; i++) {\n            owners[i] = DTLists[dts[i]].owner;\n            minters[i] = DTLists[dts[i]].minter;\n            checksums[i] = DTLists[dts[i]].checksum;\n            isLeafs[i] = DTLists[dts[i]].isLeaf;\n            ipfsPaths[i] = DTLists[dts[i]].ipfsPath;\n            blockUpdateds[i] = DTLists[dts[i]].blockUpdated;\n        }\n\n        dtidx = dts;\n    }\n}\n",
  "sourcePath": "/Users/liqibing/Research/blockchain/ownership/datatoken/dt-contracts/contracts/DTFactory.sol",
  "compiler": {
    "name": "solc",
    "version": "0.5.17+commit.d117da36.Emscripten.clang"
  },
  "schemaVersion": "3.0.19",
  "updatedAt": "2021-04-10T15:05:35.248Z",
  "devdoc": {
    "methods": {
      "CLinksCheck(bytes32,bytes32[])": {
        "details": "CLinksCheck     checks permission for related parties of a Composable DT.",
        "params": {
          "_cdt": "refers to cdt identifier",
          "_childDTs": "refers to child_dts identifiers"
        },
        "return": "bool."
      },
      "constructor": {
        "details": "constructor     contract deployment",
        "params": {
          "rcAddr": "refers to the RoleController address"
        }
      },
      "getBlockNumberUpdated(bytes32)": {
        "details": "getBlockNumberUpdated     It returns the blockUpdated for a data token.",
        "params": {
          "_dt": "refers to data token identifier"
        },
        "return": "blockUpdated."
      },
      "getDTMap()": {
        "details": "getDTMap     gets all available dts.",
        "return": "DataToken[]."
      },
      "getDTNum()": {
        "details": "getDTNum     gets the total datatoken numbers.",
        "return": "uint256."
      },
      "getDTOwner(bytes32)": {
        "details": "getDTOwner     It returns the owner for a data token.",
        "params": {
          "_dt": "refers to data token identifier"
        },
        "return": "owner address."
      },
      "getDTRegister(bytes32)": {
        "details": "getDTRegister     It returns the dt records.",
        "params": {
          "_dt": "refers to data token identifier"
        },
        "return": "DataToken struct."
      },
      "getPermission(bytes32,bytes32)": {
        "details": "getPermission     check permission.",
        "params": {
          "_dt": "refers to data token identifier",
          "_grantee": "refers to granted dt identifier"
        },
        "return": "is granted or not."
      },
      "grantPermission(bytes32,bytes32)": {
        "details": "grantPermission     It grants one dt to other dt.",
        "params": {
          "_dt": "refers to data token identifier",
          "_grantee": "refers to granted dt identifier"
        }
      },
      "isCDTAvailable(bytes32)": {
        "details": "isCDTAvailable",
        "params": {
          "_cdt": "refers to the cdt identifier"
        },
        "return": "bool."
      },
      "isDTAvailable(bytes32)": {
        "details": "isDTAvailable",
        "params": {
          "_dt": "refers to the dt identifier"
        },
        "return": "bool."
      },
      "mintDataToken(bytes32,address,bool,bytes32,string)": {
        "details": "mintDataToken     creates new data token on-chain.",
        "params": {
          "_checksum": "checksum associated with dt/metadata",
          "_dt": "refers to data token identifier",
          "_ipfsPath": "refers to the metadata storage path",
          "_isLeaf": "leaf dt or composable dt",
          "_owner": "refers to data token owner"
        }
      },
      "startComposeDT(bytes32,bytes32[])": {
        "details": "startComposeDT     activates the CDT by the aggregator when all perms are ready.",
        "params": {
          "_cdt": "refers to cdt identifier",
          "_childDTs": "associated with child_dts identifier"
        }
      }
    },
    "title": "DTFactory"
  },
  "userdoc": {
    "methods": {}
  }
}