{
  "contractName": "OpTemplate",
  "abi": [
    {
      "inputs": [
        {
          "internalType": "address",
          "name": "rcAddr",
          "type": "address"
        }
      ],
      "payable": false,
      "stateMutability": "nonpayable",
      "type": "constructor"
    },
    {
      "anonymous": false,
      "inputs": [
        {
          "indexed": true,
          "internalType": "bytes32",
          "name": "_tid",
          "type": "bytes32"
        },
        {
          "indexed": true,
          "internalType": "string",
          "name": "_name",
          "type": "string"
        },
        {
          "indexed": false,
          "internalType": "address",
          "name": "_publisher",
          "type": "address"
        },
        {
          "indexed": false,
          "internalType": "bytes32",
          "name": "_checksum",
          "type": "bytes32"
        },
        {
          "indexed": false,
          "internalType": "string",
          "name": "_ipfsPath",
          "type": "string"
        },
        {
          "indexed": false,
          "internalType": "uint256",
          "name": "_blockUpdated",
          "type": "uint256"
        },
        {
          "indexed": true,
          "internalType": "uint256",
          "name": "_code",
          "type": "uint256"
        }
      ],
      "name": "TemplatePublished",
      "type": "event"
    },
    {
      "constant": false,
      "inputs": [
        {
          "internalType": "bytes32",
          "name": "_tid",
          "type": "bytes32"
        },
        {
          "internalType": "string",
          "name": "_name",
          "type": "string"
        },
        {
          "internalType": "bytes32",
          "name": "_checksum",
          "type": "bytes32"
        },
        {
          "internalType": "string",
          "name": "_ipfsPath",
          "type": "string"
        }
      ],
      "name": "publishTemplate",
      "outputs": [],
      "payable": false,
      "stateMutability": "nonpayable",
      "type": "function"
    },
    {
      "constant": false,
      "inputs": [
        {
          "internalType": "bytes32",
          "name": "_tid",
          "type": "bytes32"
        },
        {
          "internalType": "string",
          "name": "_name",
          "type": "string"
        },
        {
          "internalType": "bytes32",
          "name": "_checksum",
          "type": "bytes32"
        },
        {
          "internalType": "string",
          "name": "_ipfsPath",
          "type": "string"
        }
      ],
      "name": "updateTemplate",
      "outputs": [],
      "payable": false,
      "stateMutability": "nonpayable",
      "type": "function"
    },
    {
      "constant": true,
      "inputs": [
        {
          "internalType": "bytes32",
          "name": "_tid",
          "type": "bytes32"
        }
      ],
      "name": "isTemplateExist",
      "outputs": [
        {
          "internalType": "bool",
          "name": "",
          "type": "bool"
        }
      ],
      "payable": false,
      "stateMutability": "view",
      "type": "function"
    },
    {
      "constant": true,
      "inputs": [
        {
          "internalType": "bytes32",
          "name": "_tid",
          "type": "bytes32"
        }
      ],
      "name": "getBlockNumberUpdated",
      "outputs": [
        {
          "internalType": "uint256",
          "name": "blockUpdated",
          "type": "uint256"
        }
      ],
      "payable": false,
      "stateMutability": "view",
      "type": "function"
    },
    {
      "constant": true,
      "inputs": [
        {
          "internalType": "bytes32",
          "name": "_tid",
          "type": "bytes32"
        }
      ],
      "name": "getTemplateById",
      "outputs": [
        {
          "internalType": "string",
          "name": "name",
          "type": "string"
        },
        {
          "internalType": "address",
          "name": "publisher",
          "type": "address"
        },
        {
          "internalType": "bytes32",
          "name": "checksum",
          "type": "bytes32"
        },
        {
          "internalType": "string",
          "name": "ipfsPath",
          "type": "string"
        },
        {
          "internalType": "uint256",
          "name": "blockUpdated",
          "type": "uint256"
        }
      ],
      "payable": false,
      "stateMutability": "view",
      "type": "function"
    }
  ],
  "bytecode": "0x608060405234801561001057600080fd5b50604051610d80380380610d808339818101604052602081101561003357600080fd5b5051600180546001600160a01b0319166001600160a01b03909216919091179055610d1d806100636000396000f3fe608060405234801561001057600080fd5b50600436106100575760003560e01c806373919b861461005c578063a31528ff1461008d578063b48aef93146101c7578063b5a73e6e146102e9578063bbc1dede14610421575b600080fd5b6100796004803603602081101561007257600080fd5b5035610450565b604080519115158252519081900360200190f35b6101c5600480360360808110156100a357600080fd5b81359190810190604081016020820135600160201b8111156100c457600080fd5b8201836020820111156100d657600080fd5b803590602001918460018302840111600160201b831117156100f757600080fd5b91908080601f01602080910402602001604051908101604052809392919081815260200183838082843760009201919091525092958435959094909350604081019250602001359050600160201b81111561015157600080fd5b82018360208201111561016357600080fd5b803590602001918460018302840111600160201b8311171561018457600080fd5b91908080601f016020809104026020016040519081016040528093929190818152602001838380828437600092019190915250929550610463945050505050565b005b6101e4600480360360208110156101dd57600080fd5b5035610913565b6040518080602001866001600160a01b03166001600160a01b0316815260200185815260200180602001848152602001838103835288818151815260200191508051906020019080838360005b83811015610249578181015183820152602001610231565b50505050905090810190601f1680156102765780820380516001836020036101000a031916815260200191505b50838103825285518152855160209182019187019080838360005b838110156102a9578181015183820152602001610291565b50505050905090810190601f1680156102d65780820380516001836020036101000a031916815260200191505b5097505050505050505060405180910390f35b6101c5600480360360808110156102ff57600080fd5b81359190810190604081016020820135600160201b81111561032057600080fd5b82018360208201111561033257600080fd5b803590602001918460018302840111600160201b8311171561035357600080fd5b91908080601f01602080910402602001604051908101604052809392919081815260200183838082843760009201919091525092958435959094909350604081019250602001359050600160201b8111156103ad57600080fd5b8201836020820111156103bf57600080fd5b803590602001918460018302840111600160201b831117156103e057600080fd5b91908080601f016020809104026020016040519081016040528093929190818152602001838380828437600092019190915250929550610a9f945050505050565b61043e6004803603602081101561043757600080fd5b5035610c23565b60408051918252519081900360200190f35b6000818152602081905260409020541490565b6001546040805162ada6e160e21b815290516001600160a01b039092169163a1a63f6591339184916302b69b84916004808301926020929190829003018186803b1580156104b057600080fd5b505afa1580156104c4573d6000803e3d6000fd5b505050506040513d60208110156104da57600080fd5b5051604080516001600160e01b031960e086901b1681526001600160a01b0390931660048401526024830191909152516044808301926020929190829003018186803b15801561052957600080fd5b505afa15801561053d573d6000803e3d6000fd5b505050506040513d602081101561055357600080fd5b50516106fb57600160009054906101000a90046001600160a01b03166001600160a01b031663803aa5f66040518163ffffffff1660e01b815260040160206040518083038186803b1580156105a757600080fd5b505afa1580156105bb573d6000803e3d6000fd5b505050506040513d60208110156105d157600080fd5b50516040518451859190819060208401908083835b602083106106055780518252601f1990920191602091820191016105e6565b6001836020036101000a0380198251168184511680821785525050505050509050019150506040518091039020857fc6bfff779b293b4b06b3dab72b809aada4be499ce477a6bfed811c2aa25a84ca3386864360405180856001600160a01b03166001600160a01b0316815260200184815260200180602001838152602001828103825284818151815260200191508051906020019080838360005b838110156106b95781810151838201526020016106a1565b50505050905090810190601f1680156106e65780820380516001836020036101000a031916815260200191505b509550505050505060405180910390a461090d565b61070484610450565b61073a57610bba83604051808280519060200190808383602083106106055780518252601f1990920191602091820191016105e6565b6040805160c0810182528581526020808201868152338385015260608301869052608083018590524260a0840152600088815280835293909320825181559251805192939261078f9260018501920190610c4d565b5060408201516002820180546001600160a01b0319166001600160a01b0390921691909117905560608201516003820155608082015180516107db916004840191602090910190610c4d565b5060a082015181600501559050506000836040518082805190602001908083835b6020831061081b5780518252601f1990920191602091820191016107fc565b6001836020036101000a0380198251168184511680821785525050505050509050019150506040518091039020857fc6bfff779b293b4b06b3dab72b809aada4be499ce477a6bfed811c2aa25a84ca3386864360405180856001600160a01b03166001600160a01b0316815260200184815260200180602001838152602001828103825284818151815260200191508051906020019080838360005b838110156108cf5781810151838201526020016108b7565b50505050905090810190601f1680156108fc5780820380516001836020036101000a031916815260200191505b509550505050505060405180910390a45b50505050565b60606000806060600061092586610450565b61092e57600080fd5b60008681526020818152604091829020600190810180548451600293821615610100026000190190911692909204601f8101849004840283018401909452838252909290918301828280156109c45780601f10610999576101008083540402835291602001916109c4565b820191906000526020600020905b8154815290600101906020018083116109a757829003601f168201915b5050506000898152602081815260409182902060028082015460038301546004909301805486516101006001831615026000190190911693909304601f8101869004860284018601909652858352979c506001600160a01b03169a50909850949350909150830182828015610a7a5780601f10610a4f57610100808354040283529160200191610a7a565b820191906000526020600020905b815481529060010190602001808311610a5d57829003601f168201915b5050506000988952505060208790526040909620600501549496939592949293915050565b6001546040805162ada6e160e21b815290516001600160a01b039092169163a1a63f6591339184916302b69b84916004808301926020929190829003018186803b158015610aec57600080fd5b505afa158015610b00573d6000803e3d6000fd5b505050506040513d6020811015610b1657600080fd5b5051604080516001600160e01b031960e086901b1681526001600160a01b0390931660048401526024830191909152516044808301926020929190829003018186803b158015610b6557600080fd5b505afa158015610b79573d6000803e3d6000fd5b505050506040513d6020811015610b8f57600080fd5b5051610be357600160009054906101000a90046001600160a01b03166001600160a01b031663803aa5f66040518163ffffffff1660e01b815260040160206040518083038186803b1580156105a757600080fd5b610bec84610450565b1561073a57610bb983604051808280519060200190808383602083106106055780518252601f1990920191602091820191016105e6565b6000610c2e82610450565b610c3757600080fd5b5060009081526020819052604090206005015490565b828054600181600116156101000203166002900490600052602060002090601f016020900481019282601f10610c8e57805160ff1916838001178555610cbb565b82800160010185558215610cbb579182015b82811115610cbb578251825591602001919060010190610ca0565b50610cc7929150610ccb565b5090565b610ce591905b80821115610cc75760008155600101610cd1565b9056fea265627a7a7231582048f91be2cb6db262a5113051b1db127c40d3b6d3e444459a07241195c8b407d764736f6c63430005110032",
  "source": "pragma solidity 0.5.17;\n\n// Copyright 2021 The dt-contracts Authors\n// This file is part of the dt-contracts library.\n//\n// The dt-contracts library is free software: you can redistribute it and/or modify\n// it under the terms of the GNU Lesser General Public License as published by\n// the Free Software Foundation, either version 3 of the License, or\n// (at your option) any later version.\n//\n// The dt-contracts library is distributed in the hope that it will be useful,\n// but WITHOUT ANY WARRANTY; without even the implied warranty of\n// MERCHANTABILITY or FITNESS FOR A PARTICULAR PURPOSE. See the\n// GNU Lesser General Public License for more details.\n//\n// You should have received a copy of the GNU Lesser General Public License\n// along with the dt-contracts library. If not, see <http://www.gnu.org/licenses/>.\n\nimport \"./RoleController.sol\";\n\n/**\n * @title OpTemplate\n *\n * @dev OpTemplate provides trusted operations.\n */\ncontract OpTemplate {\n    uint256 private constant SUCCESS = 0;\n    uint256 private constant TEMPLATE_EXISTS = 3001;\n    uint256 private constant TEMPLATE_NOT_EXISTS = 3002;\n\n    struct Template {\n        bytes32 tid;\n        string name;\n        address publisher;\n        bytes32 checksum;\n        string ipfsPath;\n        uint256 blockUpdated;\n    }\n\n    mapping(bytes32 => Template) opTemplates;\n\n    event TemplatePublished(\n        bytes32 indexed _tid,\n        string indexed _name,\n        address _publisher,\n        bytes32 _checksum,\n        string _ipfsPath,\n        uint256 _blockUpdated,\n        uint256 indexed _code\n    );\n\n    RoleController private rc;\n\n    /**\n     * @dev constructor\n     *      contract deployment\n     * @param rcAddr refers to the RoleController address\n     */\n    constructor(address rcAddr) public {\n        rc = RoleController(rcAddr);\n    }\n\n    /**\n     * @dev publishTemplate\n     *      creates new op template on-chain.\n     * @param _tid refers to the op template identifier\n     * @param _name refers to the op template name\n     * @param _checksum checksum associated with tid/metadata\n     * @param _ipfsPath referes to the metadata storage path\n     */\n    function publishTemplate(\n        bytes32 _tid,\n        string memory _name,\n        bytes32 _checksum,\n        string memory _ipfsPath\n    ) public {\n        if (!rc.checkPermission(msg.sender, rc.MODIFY_OP())) {\n            emit TemplatePublished(\n                _tid,\n                _name,\n                msg.sender,\n                _checksum,\n                _ipfsPath,\n                block.number,\n                rc.ERROR_NO_PERMISSION()\n            );\n            return;\n        }\n        if (isTemplateExist(_tid)) {\n            emit TemplatePublished(\n                _tid,\n                _name,\n                msg.sender,\n                _checksum,\n                _ipfsPath,\n                block.number,\n                TEMPLATE_EXISTS\n            );\n            return;\n        }\n\n        opTemplates[_tid] = Template({\n            tid: _tid,\n            name: _name,\n            publisher: msg.sender,\n            checksum: _checksum,\n            ipfsPath: _ipfsPath,\n            blockUpdated: block.timestamp\n        });\n\n        emit TemplatePublished(\n            _tid,\n            _name,\n            msg.sender,\n            _checksum,\n            _ipfsPath,\n            block.number,\n            SUCCESS\n        );\n    }\n\n    /**\n     * @dev updateTemplate\n     *      update published op template on-chain.\n     * @param _tid refers to the op template identifier\n     * @param _name refers to the op template name\n     * @param _checksum checksum associated with tid/metadata\n     * @param _ipfsPath referes to the metadata storage path\n     */\n    function updateTemplate(\n        bytes32 _tid,\n        string memory _name,\n        bytes32 _checksum,\n        string memory _ipfsPath\n    ) public {\n        if (!rc.checkPermission(msg.sender, rc.MODIFY_OP())) {\n            emit TemplatePublished(\n                _tid,\n                _name,\n                msg.sender,\n                _checksum,\n                _ipfsPath,\n                block.number,\n                rc.ERROR_NO_PERMISSION()\n            );\n            return;\n        }\n        if (!isTemplateExist(_tid)) {\n            emit TemplatePublished(\n                _tid,\n                _name,\n                msg.sender,\n                _checksum,\n                _ipfsPath,\n                block.number,\n                TEMPLATE_NOT_EXISTS\n            );\n            return;\n        }\n\n        opTemplates[_tid] = Template({\n            tid: _tid,\n            name: _name,\n            publisher: msg.sender,\n            checksum: _checksum,\n            ipfsPath: _ipfsPath,\n            blockUpdated: block.timestamp\n        });\n\n        emit TemplatePublished(\n            _tid,\n            _name,\n            msg.sender,\n            _checksum,\n            _ipfsPath,\n            block.number,\n            SUCCESS\n        );\n    }\n\n    /**\n     * @dev isTemplateExist\n     *      checks template existence.\n     * @param _tid refers to the address identifier\n     * @return bool.\n     */\n    function isTemplateExist(bytes32 _tid) public view returns (bool) {\n        return opTemplates[_tid].tid == _tid;\n    }\n\n    /**\n     * @dev getBlockNumberUpdated\n     *      It returns the blockUpdated for a template.\n     * @param _tid refers to op template identifier\n     * @return blockUpdated.\n     */\n    function getBlockNumberUpdated(bytes32 _tid)\n        public\n        view\n        returns (uint256 blockUpdated)\n    {\n        require(isTemplateExist(_tid));\n\n        return opTemplates[_tid].blockUpdated;\n    }\n\n    /**\n     * @dev getTemplateById\n     *      It returns the template records.\n     * @param _tid refers to op template identifier\n     * @return Template struct.\n     */\n    function getTemplateById(bytes32 _tid)\n        public\n        view\n        returns (\n            string memory name,\n            address publisher,\n            bytes32 checksum,\n            string memory ipfsPath,\n            uint256 blockUpdated\n        )\n    {\n        require(isTemplateExist(_tid));\n\n        name = opTemplates[_tid].name;\n        publisher = opTemplates[_tid].publisher;\n        checksum = opTemplates[_tid].checksum;\n        ipfsPath = opTemplates[_tid].ipfsPath;\n        blockUpdated = opTemplates[_tid].blockUpdated;\n    }\n}\n",
  "sourcePath": "/Users/liqibing/Research/blockchain/ownership/datatoken/dt-contracts/contracts/OpTemplate.sol",
  "compiler": {
    "name": "solc",
    "version": "0.5.17+commit.d117da36.Emscripten.clang"
  },
  "schemaVersion": "3.0.19",
  "updatedAt": "2021-02-21T10:18:23.539Z",
  "devdoc": {
    "details": "OpTemplate provides trusted operations.",
    "methods": {
      "constructor": {
        "details": "constructor     contract deployment",
        "params": {
          "rcAddr": "refers to the RoleController address"
        }
      },
      "getBlockNumberUpdated(bytes32)": {
        "details": "getBlockNumberUpdated     It returns the blockUpdated for a template.",
        "params": {
          "_tid": "refers to op template identifier"
        },
        "return": "blockUpdated."
      },
      "getTemplateById(bytes32)": {
        "details": "getTemplateById     It returns the template records.",
        "params": {
          "_tid": "refers to op template identifier"
        },
        "return": "Template struct."
      },
      "isTemplateExist(bytes32)": {
        "details": "isTemplateExist     checks template existence.",
        "params": {
          "_tid": "refers to the address identifier"
        },
        "return": "bool."
      },
      "publishTemplate(bytes32,string,bytes32,string)": {
        "details": "publishTemplate     creates new op template on-chain.",
        "params": {
          "_checksum": "checksum associated with tid/metadata",
          "_ipfsPath": "referes to the metadata storage path",
          "_name": "refers to the op template name",
          "_tid": "refers to the op template identifier"
        }
      },
      "updateTemplate(bytes32,string,bytes32,string)": {
        "details": "updateTemplate     update published op template on-chain.",
        "params": {
          "_checksum": "checksum associated with tid/metadata",
          "_ipfsPath": "referes to the metadata storage path",
          "_name": "refers to the op template name",
          "_tid": "refers to the op template identifier"
        }
      }
    },
    "title": "OpTemplate"
  },
  "userdoc": {
    "methods": {}
  }
}