{
  "contractName": "OpTemplate",
  "abi": [
    {
      "inputs": [
        {
          "internalType": "address",
          "name": "rcAddr",
          "type": "address"
        }
      ],
      "payable": false,
      "stateMutability": "nonpayable",
      "type": "constructor"
    },
    {
      "anonymous": false,
      "inputs": [
        {
          "indexed": true,
          "internalType": "bytes32",
          "name": "_tid",
          "type": "bytes32"
        },
        {
          "indexed": true,
          "internalType": "string",
          "name": "_name",
          "type": "string"
        },
        {
          "indexed": false,
          "internalType": "address",
          "name": "_publisher",
          "type": "address"
        },
        {
          "indexed": false,
          "internalType": "bytes32",
          "name": "_checksum",
          "type": "bytes32"
        },
        {
          "indexed": false,
          "internalType": "string",
          "name": "_ipfsPath",
          "type": "string"
        },
        {
          "indexed": false,
          "internalType": "uint256",
          "name": "_blockUpdated",
          "type": "uint256"
        },
        {
          "indexed": true,
          "internalType": "uint256",
          "name": "_code",
          "type": "uint256"
        }
      ],
      "name": "TemplatePublished",
      "type": "event"
    },
    {
      "constant": true,
      "inputs": [
        {
          "internalType": "uint256",
          "name": "",
          "type": "uint256"
        }
      ],
      "name": "tids",
      "outputs": [
        {
          "internalType": "bytes32",
          "name": "",
          "type": "bytes32"
        }
      ],
      "payable": false,
      "stateMutability": "view",
      "type": "function"
    },
    {
      "constant": false,
      "inputs": [
        {
          "internalType": "bytes32",
          "name": "_tid",
          "type": "bytes32"
        },
        {
          "internalType": "string",
          "name": "_name",
          "type": "string"
        },
        {
          "internalType": "bytes32",
          "name": "_checksum",
          "type": "bytes32"
        },
        {
          "internalType": "string",
          "name": "_ipfsPath",
          "type": "string"
        }
      ],
      "name": "publishTemplate",
      "outputs": [],
      "payable": false,
      "stateMutability": "nonpayable",
      "type": "function"
    },
    {
      "constant": false,
      "inputs": [
        {
          "internalType": "bytes32",
          "name": "_tid",
          "type": "bytes32"
        },
        {
          "internalType": "string",
          "name": "_name",
          "type": "string"
        },
        {
          "internalType": "bytes32",
          "name": "_checksum",
          "type": "bytes32"
        },
        {
          "internalType": "string",
          "name": "_ipfsPath",
          "type": "string"
        }
      ],
      "name": "updateTemplate",
      "outputs": [],
      "payable": false,
      "stateMutability": "nonpayable",
      "type": "function"
    },
    {
      "constant": true,
      "inputs": [
        {
          "internalType": "bytes32",
          "name": "_tid",
          "type": "bytes32"
        }
      ],
      "name": "isTemplateExist",
      "outputs": [
        {
          "internalType": "bool",
          "name": "",
          "type": "bool"
        }
      ],
      "payable": false,
      "stateMutability": "view",
      "type": "function"
    },
    {
      "constant": true,
      "inputs": [
        {
          "internalType": "bytes32",
          "name": "_tid",
          "type": "bytes32"
        }
      ],
      "name": "getBlockNumberUpdated",
      "outputs": [
        {
          "internalType": "uint256",
          "name": "blockUpdated",
          "type": "uint256"
        }
      ],
      "payable": false,
      "stateMutability": "view",
      "type": "function"
    },
    {
      "constant": true,
      "inputs": [
        {
          "internalType": "bytes32",
          "name": "_tid",
          "type": "bytes32"
        }
      ],
      "name": "getTemplateById",
      "outputs": [
        {
          "internalType": "string",
          "name": "name",
          "type": "string"
        },
        {
          "internalType": "address",
          "name": "publisher",
          "type": "address"
        },
        {
          "internalType": "bytes32",
          "name": "checksum",
          "type": "bytes32"
        },
        {
          "internalType": "string",
          "name": "ipfsPath",
          "type": "string"
        },
        {
          "internalType": "uint256",
          "name": "blockUpdated",
          "type": "uint256"
        }
      ],
      "payable": false,
      "stateMutability": "view",
      "type": "function"
    },
    {
      "constant": true,
      "inputs": [],
      "name": "getTemplateNum",
      "outputs": [
        {
          "internalType": "uint256",
          "name": "totalTemplates",
          "type": "uint256"
        }
      ],
      "payable": false,
      "stateMutability": "view",
      "type": "function"
    }
  ],
  "bytecode": "0x608060405234801561001057600080fd5b50604051610f02380380610f028339818101604052602081101561003357600080fd5b5051600280546001600160a01b0319166001600160a01b03909216919091179055610e9f806100636000396000f3fe608060405234801561001057600080fd5b506004361061007d5760003560e01c8063a31528ff1161005b578063a31528ff146100ea578063b48aef9314610224578063b5a73e6e14610346578063bbc1dede1461047e5761007d565b806373919b86146100825780637ae19f00146100b35780637e6bec70146100e2575b600080fd5b61009f6004803603602081101561009857600080fd5b503561049b565b604080519115158252519081900360200190f35b6100d0600480360360208110156100c957600080fd5b50356104ae565b60408051918252519081900360200190f35b6100d06104cc565b6102226004803603608081101561010057600080fd5b81359190810190604081016020820135600160201b81111561012157600080fd5b82018360208201111561013357600080fd5b803590602001918460018302840111600160201b8311171561015457600080fd5b91908080601f01602080910402602001604051908101604052809392919081815260200183838082843760009201919091525092958435959094909350604081019250602001359050600160201b8111156101ae57600080fd5b8201836020820111156101c057600080fd5b803590602001918460018302840111600160201b831117156101e157600080fd5b91908080601f0160208091040260200160405190810160405280939291908181526020018383808284376000920191909152509295506104d2945050505050565b005b6102416004803603602081101561023a57600080fd5b5035610982565b6040518080602001866001600160a01b03166001600160a01b0316815260200185815260200180602001848152602001838103835288818151815260200191508051906020019080838360005b838110156102a657818101518382015260200161028e565b50505050905090810190601f1680156102d35780820380516001836020036101000a031916815260200191505b50838103825285518152855160209182019187019080838360005b838110156103065781810151838201526020016102ee565b50505050905090810190601f1680156103335780820380516001836020036101000a031916815260200191505b5097505050505050505060405180910390f35b6102226004803603608081101561035c57600080fd5b81359190810190604081016020820135600160201b81111561037d57600080fd5b82018360208201111561038f57600080fd5b803590602001918460018302840111600160201b831117156103b057600080fd5b91908080601f01602080910402602001604051908101604052809392919081815260200183838082843760009201919091525092958435959094909350604081019250602001359050600160201b81111561040a57600080fd5b82018360208201111561041c57600080fd5b803590602001918460018302840111600160201b8311171561043d57600080fd5b91908080601f016020809104026020016040519081016040528093929190818152602001838380828437600092019190915250929550610b0e945050505050565b6100d06004803603602081101561049457600080fd5b5035610da5565b6000818152602081905260409020541490565b600181815481106104bb57fe5b600091825260209091200154905081565b60015490565b6002546040805162ada6e160e21b815290516001600160a01b039092169163a1a63f6591339184916302b69b84916004808301926020929190829003018186803b15801561051f57600080fd5b505afa158015610533573d6000803e3d6000fd5b505050506040513d602081101561054957600080fd5b5051604080516001600160e01b031960e086901b1681526001600160a01b0390931660048401526024830191909152516044808301926020929190829003018186803b15801561059857600080fd5b505afa1580156105ac573d6000803e3d6000fd5b505050506040513d60208110156105c257600080fd5b505161076a57600260009054906101000a90046001600160a01b03166001600160a01b031663803aa5f66040518163ffffffff1660e01b815260040160206040518083038186803b15801561061657600080fd5b505afa15801561062a573d6000803e3d6000fd5b505050506040513d602081101561064057600080fd5b50516040518451859190819060208401908083835b602083106106745780518252601f199092019160209182019101610655565b6001836020036101000a0380198251168184511680821785525050505050509050019150506040518091039020857fc6bfff779b293b4b06b3dab72b809aada4be499ce477a6bfed811c2aa25a84ca3386864360405180856001600160a01b03166001600160a01b0316815260200184815260200180602001838152602001828103825284818151815260200191508051906020019080838360005b83811015610728578181015183820152602001610710565b50505050905090810190601f1680156107555780820380516001836020036101000a031916815260200191505b509550505050505060405180910390a461097c565b6107738461049b565b6107a957610bba83604051808280519060200190808383602083106106745780518252601f199092019160209182019101610655565b6040805160c0810182528581526020808201868152338385015260608301869052608083018590524260a084015260008881528083529390932082518155925180519293926107fe9260018501920190610dcf565b5060408201516002820180546001600160a01b0319166001600160a01b03909216919091179055606082015160038201556080820151805161084a916004840191602090910190610dcf565b5060a082015181600501559050506000836040518082805190602001908083835b6020831061088a5780518252601f19909201916020918201910161086b565b6001836020036101000a0380198251168184511680821785525050505050509050019150506040518091039020857fc6bfff779b293b4b06b3dab72b809aada4be499ce477a6bfed811c2aa25a84ca3386864360405180856001600160a01b03166001600160a01b0316815260200184815260200180602001838152602001828103825284818151815260200191508051906020019080838360005b8381101561093e578181015183820152602001610926565b50505050905090810190601f16801561096b5780820380516001836020036101000a031916815260200191505b509550505050505060405180910390a45b50505050565b6060600080606060006109948661049b565b61099d57600080fd5b60008681526020818152604091829020600190810180548451600293821615610100026000190190911692909204601f810184900484028301840190945283825290929091830182828015610a335780601f10610a0857610100808354040283529160200191610a33565b820191906000526020600020905b815481529060010190602001808311610a1657829003601f168201915b5050506000898152602081815260409182902060028082015460038301546004909301805486516101006001831615026000190190911693909304601f8101869004860284018601909652858352979c506001600160a01b03169a50909850949350909150830182828015610ae95780601f10610abe57610100808354040283529160200191610ae9565b820191906000526020600020905b815481529060010190602001808311610acc57829003601f168201915b5050506000988952505060208790526040909620600501549496939592949293915050565b6002546040805162ada6e160e21b815290516001600160a01b039092169163a1a63f6591339184916302b69b84916004808301926020929190829003018186803b158015610b5b57600080fd5b505afa158015610b6f573d6000803e3d6000fd5b505050506040513d6020811015610b8557600080fd5b5051604080516001600160e01b031960e086901b1681526001600160a01b0390931660048401526024830191909152516044808301926020929190829003018186803b158015610bd457600080fd5b505afa158015610be8573d6000803e3d6000fd5b505050506040513d6020811015610bfe57600080fd5b5051610c5257600260009054906101000a90046001600160a01b03166001600160a01b031663803aa5f66040518163ffffffff1660e01b815260040160206040518083038186803b15801561061657600080fd5b610c5b8461049b565b15610c9257610bb983604051808280519060200190808383602083106106745780518252601f199092019160209182019101610655565b6040805160c0810182528581526020808201868152338385015260608301869052608083018590524260a08401526000888152808352939093208251815592518051929392610ce79260018501920190610dcf565b5060408201516002820180546001600160a01b0319166001600160a01b039092169190911790556060820151600382015560808201518051610d33916004840191602090910190610dcf565b5060a0919091015160059091015560018054808201825560009182527fb10e2d527612073b26eecdfd717e6a320cf44b4afac2b0732d9fcbe2b7fa0cf6018590556040518451859190819060208401908083836020831061088a5780518252601f19909201916020918201910161086b565b6000610db08261049b565b610db957600080fd5b5060009081526020819052604090206005015490565b828054600181600116156101000203166002900490600052602060002090601f016020900481019282601f10610e1057805160ff1916838001178555610e3d565b82800160010185558215610e3d579182015b82811115610e3d578251825591602001919060010190610e22565b50610e49929150610e4d565b5090565b610e6791905b80821115610e495760008155600101610e53565b9056fea265627a7a72315820423361ec4bd4a294ed90a01b7db2d9ebcf4aa99b507293f8faa92606f25ebc7064736f6c63430005110032",
  "source": "pragma solidity 0.5.17;\n\n// Copyright 2021 The dt-contracts Authors\n// This file is part of the dt-contracts library.\n//\n// The dt-contracts library is free software: you can redistribute it and/or modify\n// it under the terms of the GNU Lesser General Public License as published by\n// the Free Software Foundation, either version 3 of the License, or\n// (at your option) any later version.\n//\n// The dt-contracts library is distributed in the hope that it will be useful,\n// but WITHOUT ANY WARRANTY; without even the implied warranty of\n// MERCHANTABILITY or FITNESS FOR A PARTICULAR PURPOSE. See the\n// GNU Lesser General Public License for more details.\n//\n// You should have received a copy of the GNU Lesser General Public License\n// along with the dt-contracts library. If not, see <http://www.gnu.org/licenses/>.\n\nimport \"./RoleController.sol\";\n\n/**\n * @title OpTemplate\n *\n * @dev OpTemplate provides trusted operations.\n */\ncontract OpTemplate {\n    uint256 private constant SUCCESS = 0;\n    uint256 private constant TEMPLATE_EXISTS = 3001;\n    uint256 private constant TEMPLATE_NOT_EXISTS = 3002;\n\n    struct Template {\n        bytes32 tid;\n        string name;\n        address publisher;\n        bytes32 checksum;\n        string ipfsPath;\n        uint256 blockUpdated;\n    }\n\n    mapping(bytes32 => Template) opTemplates;\n    bytes32[] public tids;\n\n    event TemplatePublished(\n        bytes32 indexed _tid,\n        string indexed _name,\n        address _publisher,\n        bytes32 _checksum,\n        string _ipfsPath,\n        uint256 _blockUpdated,\n        uint256 indexed _code\n    );\n\n    RoleController private rc;\n\n    /**\n     * @dev constructor\n     *      contract deployment\n     * @param rcAddr refers to the RoleController address\n     */\n    constructor(address rcAddr) public {\n        rc = RoleController(rcAddr);\n    }\n\n    /**\n     * @dev publishTemplate\n     *      creates new op template on-chain.\n     * @param _tid refers to the op template identifier\n     * @param _name refers to the op template name\n     * @param _checksum checksum associated with tid/metadata\n     * @param _ipfsPath referes to the metadata storage path\n     */\n    function publishTemplate(\n        bytes32 _tid,\n        string memory _name,\n        bytes32 _checksum,\n        string memory _ipfsPath\n    ) public {\n        if (!rc.checkPermission(msg.sender, rc.MODIFY_OP())) {\n            emit TemplatePublished(\n                _tid,\n                _name,\n                msg.sender,\n                _checksum,\n                _ipfsPath,\n                block.number,\n                rc.ERROR_NO_PERMISSION()\n            );\n            return;\n        }\n        if (isTemplateExist(_tid)) {\n            emit TemplatePublished(\n                _tid,\n                _name,\n                msg.sender,\n                _checksum,\n                _ipfsPath,\n                block.number,\n                TEMPLATE_EXISTS\n            );\n            return;\n        }\n\n        opTemplates[_tid] = Template({\n            tid: _tid,\n            name: _name,\n            publisher: msg.sender,\n            checksum: _checksum,\n            ipfsPath: _ipfsPath,\n            blockUpdated: block.timestamp\n        });\n        \n        tids.push(_tid);\n\n        emit TemplatePublished(\n            _tid,\n            _name,\n            msg.sender,\n            _checksum,\n            _ipfsPath,\n            block.number,\n            SUCCESS\n        );\n    }\n\n    /**\n     * @dev updateTemplate\n     *      update published op template on-chain.\n     * @param _tid refers to the op template identifier\n     * @param _name refers to the op template name\n     * @param _checksum checksum associated with tid/metadata\n     * @param _ipfsPath referes to the metadata storage path\n     */\n    function updateTemplate(\n        bytes32 _tid,\n        string memory _name,\n        bytes32 _checksum,\n        string memory _ipfsPath\n    ) public {\n        if (!rc.checkPermission(msg.sender, rc.MODIFY_OP())) {\n            emit TemplatePublished(\n                _tid,\n                _name,\n                msg.sender,\n                _checksum,\n                _ipfsPath,\n                block.number,\n                rc.ERROR_NO_PERMISSION()\n            );\n            return;\n        }\n        if (!isTemplateExist(_tid)) {\n            emit TemplatePublished(\n                _tid,\n                _name,\n                msg.sender,\n                _checksum,\n                _ipfsPath,\n                block.number,\n                TEMPLATE_NOT_EXISTS\n            );\n            return;\n        }\n\n        opTemplates[_tid] = Template({\n            tid: _tid,\n            name: _name,\n            publisher: msg.sender,\n            checksum: _checksum,\n            ipfsPath: _ipfsPath,\n            blockUpdated: block.timestamp\n        });\n\n        emit TemplatePublished(\n            _tid,\n            _name,\n            msg.sender,\n            _checksum,\n            _ipfsPath,\n            block.number,\n            SUCCESS\n        );\n    }\n\n    /**\n     * @dev isTemplateExist\n     *      checks template existence.\n     * @param _tid refers to the address identifier\n     * @return bool.\n     */\n    function isTemplateExist(bytes32 _tid) public view returns (bool) {\n        return opTemplates[_tid].tid == _tid;\n    }\n\n    /**\n     * @dev getBlockNumberUpdated\n     *      It returns the blockUpdated for a template.\n     * @param _tid refers to op template identifier\n     * @return blockUpdated.\n     */\n    function getBlockNumberUpdated(bytes32 _tid)\n        public\n        view\n        returns (uint256 blockUpdated)\n    {\n        require(isTemplateExist(_tid));\n\n        return opTemplates[_tid].blockUpdated;\n    }\n\n    /**\n     * @dev getTemplateById\n     *      It returns the template records.\n     * @param _tid refers to op template identifier\n     * @return Template struct.\n     */\n    function getTemplateById(bytes32 _tid)\n        public\n        view\n        returns (\n            string memory name,\n            address publisher,\n            bytes32 checksum,\n            string memory ipfsPath,\n            uint256 blockUpdated\n        )\n    {\n        require(isTemplateExist(_tid));\n\n        name = opTemplates[_tid].name;\n        publisher = opTemplates[_tid].publisher;\n        checksum = opTemplates[_tid].checksum;\n        ipfsPath = opTemplates[_tid].ipfsPath;\n        blockUpdated = opTemplates[_tid].blockUpdated;\n    }\n\n    /**\n     * @dev getTemplateNum\n     *      gets the total template numbers.\n     * @return uint256.\n     */\n    function getTemplateNum()\n        public\n        view\n        returns (\n            uint256 totalTemplates\n        )\n    {\n        totalTemplates = tids.length;\n    }\n}\n",
  "sourcePath": "/Users/liqibing/Research/blockchain/ownership/datatoken/dt-contracts/contracts/OpTemplate.sol",
  "compiler": {
    "name": "solc",
    "version": "0.5.17+commit.d117da36.Emscripten.clang"
  },
  "schemaVersion": "3.0.19",
  "updatedAt": "2021-04-10T16:24:03.121Z",
  "devdoc": {
    "details": "OpTemplate provides trusted operations.",
    "methods": {
      "constructor": {
        "details": "constructor     contract deployment",
        "params": {
          "rcAddr": "refers to the RoleController address"
        }
      },
      "getBlockNumberUpdated(bytes32)": {
        "details": "getBlockNumberUpdated     It returns the blockUpdated for a template.",
        "params": {
          "_tid": "refers to op template identifier"
        },
        "return": "blockUpdated."
      },
      "getTemplateById(bytes32)": {
        "details": "getTemplateById     It returns the template records.",
        "params": {
          "_tid": "refers to op template identifier"
        },
        "return": "Template struct."
      },
      "getTemplateNum()": {
        "details": "getTemplateNum     gets the total template numbers.",
        "return": "uint256."
      },
      "isTemplateExist(bytes32)": {
        "details": "isTemplateExist     checks template existence.",
        "params": {
          "_tid": "refers to the address identifier"
        },
        "return": "bool."
      },
      "publishTemplate(bytes32,string,bytes32,string)": {
        "details": "publishTemplate     creates new op template on-chain.",
        "params": {
          "_checksum": "checksum associated with tid/metadata",
          "_ipfsPath": "referes to the metadata storage path",
          "_name": "refers to the op template name",
          "_tid": "refers to the op template identifier"
        }
      },
      "updateTemplate(bytes32,string,bytes32,string)": {
        "details": "updateTemplate     update published op template on-chain.",
        "params": {
          "_checksum": "checksum associated with tid/metadata",
          "_ipfsPath": "referes to the metadata storage path",
          "_name": "refers to the op template name",
          "_tid": "refers to the op template identifier"
        }
      }
    },
    "title": "OpTemplate"
  },
  "userdoc": {
    "methods": {}
  }
}