{
  "contractName": "RoleController",
  "abi": [
    {
      "inputs": [],
      "payable": false,
      "stateMutability": "nonpayable",
      "type": "constructor"
    },
    {
      "anonymous": false,
      "inputs": [
        {
          "indexed": false,
          "internalType": "address",
          "name": "_id",
          "type": "address"
        },
        {
          "indexed": false,
          "internalType": "uint256",
          "name": "_role",
          "type": "uint256"
        },
        {
          "indexed": true,
          "internalType": "uint256",
          "name": "_code",
          "type": "uint256"
        }
      ],
      "name": "RoleAdded",
      "type": "event"
    },
    {
      "constant": true,
      "inputs": [],
      "name": "ERROR_NO_PERMISSION",
      "outputs": [
        {
          "internalType": "uint256",
          "name": "",
          "type": "uint256"
        }
      ],
      "payable": false,
      "stateMutability": "view",
      "type": "function"
    },
    {
      "constant": true,
      "inputs": [],
      "name": "MODIFY_ADMIN",
      "outputs": [
        {
          "internalType": "uint256",
          "name": "",
          "type": "uint256"
        }
      ],
      "payable": false,
      "stateMutability": "view",
      "type": "function"
    },
    {
      "constant": true,
      "inputs": [],
      "name": "MODIFY_ASSET",
      "outputs": [
        {
          "internalType": "uint256",
          "name": "",
          "type": "uint256"
        }
      ],
      "payable": false,
      "stateMutability": "view",
      "type": "function"
    },
    {
      "constant": true,
      "inputs": [],
      "name": "MODIFY_AUTHORIZE",
      "outputs": [
        {
          "internalType": "uint256",
          "name": "",
          "type": "uint256"
        }
      ],
      "payable": false,
      "stateMutability": "view",
      "type": "function"
    },
    {
      "constant": true,
      "inputs": [],
      "name": "MODIFY_ENTERPRIZE",
      "outputs": [
        {
          "internalType": "uint256",
          "name": "",
          "type": "uint256"
        }
      ],
      "payable": false,
      "stateMutability": "view",
      "type": "function"
    },
    {
      "constant": true,
      "inputs": [],
      "name": "MODIFY_OP",
      "outputs": [
        {
          "internalType": "uint256",
          "name": "",
          "type": "uint256"
        }
      ],
      "payable": false,
      "stateMutability": "view",
      "type": "function"
    },
    {
      "constant": true,
      "inputs": [],
      "name": "MODIFY_PROVIDER",
      "outputs": [
        {
          "internalType": "uint256",
          "name": "",
          "type": "uint256"
        }
      ],
      "payable": false,
      "stateMutability": "view",
      "type": "function"
    },
    {
      "constant": true,
      "inputs": [],
      "name": "MODIFY_TASK",
      "outputs": [
        {
          "internalType": "uint256",
          "name": "",
          "type": "uint256"
        }
      ],
      "payable": false,
      "stateMutability": "view",
      "type": "function"
    },
    {
      "constant": true,
      "inputs": [],
      "name": "ROLE_ADMIN",
      "outputs": [
        {
          "internalType": "uint256",
          "name": "",
          "type": "uint256"
        }
      ],
      "payable": false,
      "stateMutability": "view",
      "type": "function"
    },
    {
      "constant": true,
      "inputs": [],
      "name": "ROLE_ENTERPRISE",
      "outputs": [
        {
          "internalType": "uint256",
          "name": "",
          "type": "uint256"
        }
      ],
      "payable": false,
      "stateMutability": "view",
      "type": "function"
    },
    {
      "constant": true,
      "inputs": [],
      "name": "ROLE_PROVIDER",
      "outputs": [
        {
          "internalType": "uint256",
          "name": "",
          "type": "uint256"
        }
      ],
      "payable": false,
      "stateMutability": "view",
      "type": "function"
    },
    {
      "constant": true,
      "inputs": [],
      "name": "SUCCESS",
      "outputs": [
        {
          "internalType": "uint256",
          "name": "",
          "type": "uint256"
        }
      ],
      "payable": false,
      "stateMutability": "view",
      "type": "function"
    },
    {
      "constant": true,
      "inputs": [
        {
          "internalType": "address",
          "name": "id",
          "type": "address"
        },
        {
          "internalType": "uint256",
          "name": "operation",
          "type": "uint256"
        }
      ],
      "name": "checkPermission",
      "outputs": [
        {
          "internalType": "bool",
          "name": "",
          "type": "bool"
        }
      ],
      "payable": false,
      "stateMutability": "view",
      "type": "function"
    },
    {
      "constant": true,
      "inputs": [
        {
          "internalType": "address",
          "name": "id",
          "type": "address"
        },
        {
          "internalType": "uint256",
          "name": "role",
          "type": "uint256"
        }
      ],
      "name": "checkRole",
      "outputs": [
        {
          "internalType": "bool",
          "name": "",
          "type": "bool"
        }
      ],
      "payable": false,
      "stateMutability": "view",
      "type": "function"
    },
    {
      "constant": false,
      "inputs": [
        {
          "internalType": "address",
          "name": "id",
          "type": "address"
        },
        {
          "internalType": "uint256",
          "name": "role",
          "type": "uint256"
        }
      ],
      "name": "addRole",
      "outputs": [],
      "payable": false,
      "stateMutability": "nonpayable",
      "type": "function"
    }
  ],
  "bytecode": "0x608060405234801561001057600080fd5b50336000908152602081905260409020805460ff1916600117905561063a8061003a6000396000f3fe608060405234801561001057600080fd5b50600436106100f55760003560e01c8063803aa5f611610097578063d0a6d1a611610066578063d0a6d1a6146101e6578063d391014b146101ee578063e021607a146101f6578063e61bcaef146101fe576100f5565b8063803aa5f6146101a257806389572f8a146101aa578063a1a63f65146101b2578063a640bcb2146101de576100f5565b80632f94450b116100d35780632f94450b146101245780633b20a8c91461012c578063505ef22f146101345780637fde1c8a14610174576100f5565b806302b69b84146100fa5780631af0ab1d146101145780631faecc031461011c575b600080fd5b610102610206565b60408051918252519081900360200190f35b61010261020b565b610102610210565b610102610215565b61010261021a565b6101606004803603604081101561014a57600080fd5b506001600160a01b03813516906020013561021f565b604080519115158252519081900360200190f35b6101a06004803603604081101561018a57600080fd5b506001600160a01b0381351690602001356102ac565b005b610102610461565b610102610467565b610160600480360360408110156101c857600080fd5b506001600160a01b03813516906020013561046c565b6101026105cc565b6101026105d1565b6101026105d6565b6101026105db565b6101026105e0565b60cb81565b606681565b60ce81565b606581565b60c881565b6000606482141561024c57506001600160a01b03821660009081526020819052604090205460ff166102a6565b606582141561027757506001600160a01b03821660009081526001602052604090205460ff166102a6565b60668214156102a257506001600160a01b03821660009081526002602052604090205460ff166102a6565b5060005b92915050565b6102b6828261021f565b156102f357604080516001600160a01b03841681526020810183905281516103e9926000805160206105e6833981519152928290030190a261045d565b6064811415610359576103073260c861046c565b15610359576001600160a01b038216600081815260208181526040808320805460ff191660011790558051938452908301849052805191926000805160206105e6833981519152929081900390910190a25b60658114156103c15761036d3260c961046c565b156103c1576001600160a01b0382166000818152600160208181526040808420805460ff191690931790925581519384528301849052805191926000805160206105e6833981519152929081900390910190a25b6066811415610429576103d53260ca61046c565b15610429576001600160a01b0382166000818152600260209081526040808320805460ff191660011790558051938452908301849052805191926000805160206105e6833981519152929081900390910190a25b604080516001600160a01b0384168152602081018390528151612710926000805160206105e6833981519152928290030190a25b5050565b61271081565b60c981565b600060c88214156104a0576001600160a01b03831660009081526020819052604090205460ff16156104a0575060016102a6565b60cb8214156104d2576001600160a01b03831660009081526020819052604090205460ff16156104d2575060016102a6565b60c9821415610504576001600160a01b03831660009081526020819052604090205460ff1615610504575060016102a6565b60ca821415610536576001600160a01b03831660009081526020819052604090205460ff1615610536575060016102a6565b60cc821415610568576001600160a01b03831660009081526001602052604090205460ff1615610568575060016102a6565b60cd82141561059a576001600160a01b03831660009081526002602052604090205460ff161561059a575060016102a6565b60ce8214156102a2576001600160a01b03831660009081526001602052604090205460ff16156102a2575060016102a6565b60cd81565b600081565b606481565b60cc81565b60ca8156fe6fe6f387161341a212ed51404ec18a5cf21cc2d96af49e19d0e871cd6c78e08ba265627a7a7231582008c63ac23cf87b126ded4d61fd272ef7484a7b4f860c12f3488dc65242ac356864736f6c63430005110032",
  "source": "pragma solidity 0.5.17;\n\n// This file is modified from weidentity-contract.\n// We add the roles of enterprizes, asset providers and aggregators(future work).\n//\n// Copyright© (2018-2019) WeBank Co., Ltd.\n//\n// The weidentity-contract library is free software: you can redistribute it and/or modify\n// it under the terms of the GNU Lesser General Public License as published by\n// the Free Software Foundation, either version 3 of the License, or\n// (at your option) any later version.\n//\n// The weidentity-contract library is distributed in the hope that it will be useful,\n// but WITHOUT ANY WARRANTY; without even the implied warranty of\n// MERCHANTABILITY or FITNESS FOR A PARTICULAR PURPOSE. See the\n// GNU Lesser General Public License for more details.\n//\n// You should have received a copy of the GNU Lesser General Public License\n// along with the weidentity-contract library. If not, see <http://www.gnu.org/licenses/>.\n\n/**\n * @title RoleController\n */\ncontract RoleController {\n    uint256 public constant SUCCESS = 0;\n    uint256 public constant ERROR_NO_PERMISSION = 10000;\n\n    uint256 public constant ROLE_ADMIN = 100;\n    uint256 public constant ROLE_ENTERPRISE = 101;\n    uint256 public constant ROLE_PROVIDER = 102;\n\n    uint256 public constant MODIFY_ADMIN = 200;\n    uint256 public constant MODIFY_ENTERPRIZE = 201;\n    uint256 public constant MODIFY_PROVIDER = 202;\n    uint256 public constant MODIFY_OP = 203;\n    uint256 public constant MODIFY_ASSET = 204;\n    uint256 public constant MODIFY_AUTHORIZE = 205;\n    uint256 public constant MODIFY_TASK = 206;\n\n    uint256 private constant ROLE_EXISTS = 1001;\n\n    mapping(address => bool) private isAdmin;\n    mapping(address => bool) private isEnterprize;\n    mapping(address => bool) private isProvider;\n\n    event RoleAdded(address _id, uint256 _role, uint256 indexed _code);\n\n    constructor() public {\n        isAdmin[msg.sender] = true;\n    }\n\n    /**\n     * @dev checkPermission\n     *      checks operation permission for given id/role.\n     * @param id refers to caller identifier\n     * @param operation refers to the certain function\n     * @return permitted or not.\n     */\n    function checkPermission(address id, uint256 operation)\n        public\n        view\n        returns (bool)\n    {\n        if (operation == MODIFY_ADMIN) {\n            if (isAdmin[id]) {\n                return true;\n            }\n        }\n        if (operation == MODIFY_OP) {\n            if (isAdmin[id]) {\n                return true;\n            }\n        }\n        if (operation == MODIFY_ENTERPRIZE) {\n            if (isAdmin[id]) {\n                return true;\n            }\n        }\n        if (operation == MODIFY_PROVIDER) {\n            if (isAdmin[id]) {\n                return true;\n            }\n        }\n        if (operation == MODIFY_ASSET) {\n            if (isEnterprize[id]) {\n                return true;\n            }\n        }\n        if (operation == MODIFY_AUTHORIZE) {\n            if (isProvider[id]) {\n                return true;\n            }\n        }\n        if (operation == MODIFY_TASK) {\n            if (isEnterprize[id]) {\n                return true;\n            }\n        }\n        return false;\n    }\n\n    /**\n     * @dev checkRole\n     *      checks id-role pair.\n     * @param id refers to identifier\n     * @param role refers to the certain role\n     * @return bool.\n     */\n    function checkRole(address id, uint256 role) public view returns (bool) {\n        if (role == ROLE_ADMIN) {\n            return isAdmin[id];\n        }\n        if (role == ROLE_ENTERPRISE) {\n            return isEnterprize[id];\n        }\n        if (role == ROLE_PROVIDER) {\n            return isProvider[id];\n        }\n        return false;\n    }\n\n    /**\n     * @dev addRole\n     *      adds role for given id.\n     * @param id refers to identifier\n     * @param role refers to the certain role\n     */\n    function addRole(address id, uint256 role) public {\n        if (checkRole(id, role)) {\n            emit RoleAdded(id, role, ROLE_EXISTS);\n            return;\n        }\n        if (role == ROLE_ADMIN) {\n            if (checkPermission(tx.origin, MODIFY_ADMIN)) {\n                isAdmin[id] = true;\n                emit RoleAdded(id, role, SUCCESS);\n            }\n        }\n        if (role == ROLE_ENTERPRISE) {\n            if (checkPermission(tx.origin, MODIFY_ENTERPRIZE)) {\n                isEnterprize[id] = true;\n                emit RoleAdded(id, role, SUCCESS);\n            }\n        }\n        if (role == ROLE_PROVIDER) {\n            if (checkPermission(tx.origin, MODIFY_PROVIDER)) {\n                isProvider[id] = true;\n                emit RoleAdded(id, role, SUCCESS);\n            }\n        }\n        emit RoleAdded(id, role, ERROR_NO_PERMISSION);\n    }\n}\n",
  "sourcePath": "/Users/liqibing/Research/blockchain/ownership/datatoken/dt-contracts/contracts/RoleController.sol",
  "compiler": {
    "name": "solc",
    "version": "0.5.17+commit.d117da36.Emscripten.clang"
  },
  "schemaVersion": "3.0.19",
  "updatedAt": "2021-04-10T16:24:03.126Z",
  "devdoc": {
    "methods": {
      "addRole(address,uint256)": {
        "details": "addRole     adds role for given id.",
        "params": {
          "id": "refers to identifier",
          "role": "refers to the certain role"
        }
      },
      "checkPermission(address,uint256)": {
        "details": "checkPermission     checks operation permission for given id/role.",
        "params": {
          "id": "refers to caller identifier",
          "operation": "refers to the certain function"
        },
        "return": "permitted or not."
      },
      "checkRole(address,uint256)": {
        "details": "checkRole     checks id-role pair.",
        "params": {
          "id": "refers to identifier",
          "role": "refers to the certain role"
        },
        "return": "bool."
      }
    },
    "title": "RoleController"
  },
  "userdoc": {
    "methods": {}
  }
}