{
  "contractName": "TaskMarket",
  "abi": [
    {
      "inputs": [
        {
          "internalType": "address",
          "name": "rcAddr",
          "type": "address"
        },
        {
          "internalType": "address",
          "name": "dfAddr",
          "type": "address"
        }
      ],
      "payable": false,
      "stateMutability": "nonpayable",
      "type": "constructor"
    },
    {
      "anonymous": false,
      "inputs": [
        {
          "indexed": false,
          "internalType": "uint256",
          "name": "_taskId",
          "type": "uint256"
        },
        {
          "indexed": true,
          "internalType": "uint256",
          "name": "_jobId",
          "type": "uint256"
        },
        {
          "indexed": false,
          "internalType": "address",
          "name": "_solver",
          "type": "address"
        },
        {
          "indexed": true,
          "internalType": "bytes32",
          "name": "_cdt",
          "type": "bytes32"
        },
        {
          "indexed": true,
          "internalType": "uint256",
          "name": "_code",
          "type": "uint256"
        }
      ],
      "name": "JobAdded",
      "type": "event"
    },
    {
      "anonymous": false,
      "inputs": [
        {
          "indexed": true,
          "internalType": "uint256",
          "name": "_taskId",
          "type": "uint256"
        },
        {
          "indexed": false,
          "internalType": "address",
          "name": "_demander",
          "type": "address"
        },
        {
          "indexed": true,
          "internalType": "string",
          "name": "_name",
          "type": "string"
        },
        {
          "indexed": false,
          "internalType": "string",
          "name": "_desc",
          "type": "string"
        },
        {
          "indexed": true,
          "internalType": "uint256",
          "name": "_code",
          "type": "uint256"
        }
      ],
      "name": "TaskAdded",
      "type": "event"
    },
    {
      "constant": true,
      "inputs": [],
      "name": "jobNum",
      "outputs": [
        {
          "internalType": "uint256",
          "name": "",
          "type": "uint256"
        }
      ],
      "payable": false,
      "stateMutability": "view",
      "type": "function"
    },
    {
      "constant": true,
      "inputs": [],
      "name": "taskNum",
      "outputs": [
        {
          "internalType": "uint256",
          "name": "",
          "type": "uint256"
        }
      ],
      "payable": false,
      "stateMutability": "view",
      "type": "function"
    },
    {
      "constant": false,
      "inputs": [
        {
          "internalType": "string",
          "name": "_name",
          "type": "string"
        },
        {
          "internalType": "string",
          "name": "_desc",
          "type": "string"
        }
      ],
      "name": "createTask",
      "outputs": [],
      "payable": false,
      "stateMutability": "nonpayable",
      "type": "function"
    },
    {
      "constant": false,
      "inputs": [
        {
          "internalType": "bytes32",
          "name": "_cdt",
          "type": "bytes32"
        },
        {
          "internalType": "uint256",
          "name": "_taskId",
          "type": "uint256"
        }
      ],
      "name": "addJob",
      "outputs": [],
      "payable": false,
      "stateMutability": "nonpayable",
      "type": "function"
    },
    {
      "constant": true,
      "inputs": [
        {
          "internalType": "uint256",
          "name": "_taskId",
          "type": "uint256"
        }
      ],
      "name": "getTaskbyId",
      "outputs": [
        {
          "internalType": "address",
          "name": "demander",
          "type": "address"
        },
        {
          "internalType": "string",
          "name": "name",
          "type": "string"
        },
        {
          "internalType": "string",
          "name": "desc",
          "type": "string"
        },
        {
          "internalType": "uint256",
          "name": "status",
          "type": "uint256"
        },
        {
          "internalType": "uint256[]",
          "name": "jobIds",
          "type": "uint256[]"
        }
      ],
      "payable": false,
      "stateMutability": "view",
      "type": "function"
    },
    {
      "constant": true,
      "inputs": [
        {
          "internalType": "uint256",
          "name": "_jobId",
          "type": "uint256"
        }
      ],
      "name": "getJobbyId",
      "outputs": [
        {
          "internalType": "uint256",
          "name": "taskId",
          "type": "uint256"
        },
        {
          "internalType": "address",
          "name": "solver",
          "type": "address"
        },
        {
          "internalType": "bytes32",
          "name": "cdt",
          "type": "bytes32"
        },
        {
          "internalType": "uint256",
          "name": "status",
          "type": "uint256"
        }
      ],
      "payable": false,
      "stateMutability": "view",
      "type": "function"
    },
    {
      "constant": true,
      "inputs": [],
      "name": "getTaskNum",
      "outputs": [
        {
          "internalType": "uint256",
          "name": "totalTasks",
          "type": "uint256"
        }
      ],
      "payable": false,
      "stateMutability": "view",
      "type": "function"
    },
    {
      "constant": true,
      "inputs": [],
      "name": "getJobNum",
      "outputs": [
        {
          "internalType": "uint256",
          "name": "totalJobs",
          "type": "uint256"
        }
      ],
      "payable": false,
      "stateMutability": "view",
      "type": "function"
    }
  ],
  "bytecode": "0x60806040526000600255600060035534801561001a57600080fd5b506040516110193803806110198339818101604052604081101561003d57600080fd5b508051602090910151600480546001600160a01b039384166001600160a01b03199182161790915560058054939092169216919091179055610f95806100846000396000f3fe608060405234801561001057600080fd5b50600436106100885760003560e01c8063783c1e351161005b578063783c1e3514610244578063ac04277e1461024c578063b41ddaeb14610254578063ff5d2b7f146103b057610088565b8063292a45851461008d5780634950cfe5146101bc5780637190a1e1146101d65780637446ce1c14610221575b600080fd5b6101ba600480360360408110156100a357600080fd5b8101906020810181356401000000008111156100be57600080fd5b8201836020820111156100d057600080fd5b803590602001918460018302840111640100000000831117156100f257600080fd5b91908080601f016020809104026020016040519081016040528093929190818152602001838380828437600092019190915250929594936020810193503591505064010000000081111561014557600080fd5b82018360208201111561015757600080fd5b8035906020019184600183028401116401000000008311171561017957600080fd5b91908080601f0160208091040260200160405190810160405280939291908181526020018383808284376000920191909152509295506103b8945050505050565b005b6101c461081c565b60408051918252519081900360200190f35b6101f3600480360360208110156101ec57600080fd5b5035610822565b604080519485526001600160a01b039093166020850152838301919091526060830152519081900360800190f35b6101ba6004803603604081101561023757600080fd5b5080359060200135610855565b6101c4610cb2565b6101c4610cb8565b6102716004803603602081101561026a57600080fd5b5035610cbe565b60405180866001600160a01b03166001600160a01b03168152602001806020018060200185815260200180602001848103845288818151815260200191508051906020019080838360005b838110156102d45781810151838201526020016102bc565b50505050905090810190601f1680156103015780820380516001836020036101000a031916815260200191505b50848103835287518152875160209182019189019080838360005b8381101561033457818101518382015260200161031c565b50505050905090810190601f1680156103615780820380516001836020036101000a031916815260200191505b508481038252855181528551602091820191808801910280838360005b8381101561039657818101518382015260200161037e565b505050509050019850505050505050505060405180910390f35b6101c4610e85565b6002546004805460408051631faecc0360e01b815290516001909401936001600160a01b039092169263a1a63f659233928592631faecc03928282019260209290829003018186803b15801561040d57600080fd5b505afa158015610421573d6000803e3d6000fd5b505050506040513d602081101561043757600080fd5b5051604080516001600160e01b031960e086901b1681526001600160a01b0390931660048401526024830191909152516044808301926020929190829003018186803b15801561048657600080fd5b505afa15801561049a573d6000803e3d6000fd5b505050506040513d60208110156104b057600080fd5b505161063d57600480546040805163401d52fb60e11b815290516001600160a01b039092169263803aa5f6928282019260209290829003018186803b1580156104f857600080fd5b505afa15801561050c573d6000803e3d6000fd5b505050506040513d602081101561052257600080fd5b50516040518451859190819060208401908083835b602083106105565780518252601f199092019160209182019101610537565b6001836020036101000a0380198251168184511680821785525050505050509050019150506040518091039020827fea57bde9a33463241e1478bdb743074a912184842dbb840916443ec9ecb00a97338660405180836001600160a01b03166001600160a01b0316815260200180602001828103825283818151815260200191508051906020019080838360005b838110156105fc5781810151838201526020016105e4565b50505050905090810190601f1680156106295780820380516001836020036101000a031916815260200191505b50935050505060405180910390a450610818565b6002805460019081019091556040805160a081018252338152602080820187815282840187905260608301859052835160008082528184018652608085019190915286815280835293909320825181546001600160a01b0319166001600160a01b039091161781559251805192946106bd93908501929190910190610e8b565b50604082015180516106d9916002840191602090910190610e8b565b5060608201516003820155608082015180516106ff916004840191602090910190610f09565b509050506000836040518082805190602001908083835b602083106107355780518252601f199092019160209182019101610716565b6001836020036101000a0380198251168184511680821785525050505050509050019150506040518091039020827fea57bde9a33463241e1478bdb743074a912184842dbb840916443ec9ecb00a97338660405180836001600160a01b03166001600160a01b0316815260200180602001828103825283818151815260200191508051906020019080838360005b838110156107db5781810151838201526020016107c3565b50505050905090810190601f1680156108085780820380516001836020036101000a031916815260200191505b50935050505060405180910390a4505b5050565b60025481565b6000908152600160208190526040909120805491810154600282015460039092015492936001600160a01b039091169290565b6003546004805460408051631faecc0360e01b815290516001909401936001600160a01b039092169263a1a63f659233928592631faecc03928282019260209290829003018186803b1580156108aa57600080fd5b505afa1580156108be573d6000803e3d6000fd5b505050506040513d60208110156108d457600080fd5b5051604080516001600160e01b031960e086901b1681526001600160a01b0390931660048401526024830191909152516044808301926020929190829003018186803b15801561092357600080fd5b505afa158015610937573d6000803e3d6000fd5b505050506040513d602081101561094d57600080fd5b5051610a0557600480546040805163401d52fb60e11b815290516001600160a01b039092169263803aa5f6928282019260209290829003018186803b15801561099557600080fd5b505afa1580156109a9573d6000803e3d6000fd5b505050506040513d60208110156109bf57600080fd5b5051604080518481523360208201528151869285927f2d48c40efafe81a0914d873114251ce01ec734f700b9d174d5f438083929375d929081900390910190a450610818565b600082815260208190526040902060030154600114610a6057600480546040805163401d52fb60e11b815290516001600160a01b039092169263803aa5f6928282019260209290829003018186803b15801561099557600080fd5b60055460408051632730863d60e21b81526004810186905290516001600160a01b0390921691639cc218f491602480820192602092909190829003018186803b158015610aac57600080fd5b505afa158015610ac0573d6000803e3d6000fd5b505050506040513d6020811015610ad657600080fd5b5051610b1e57600480546040805163401d52fb60e11b815290516001600160a01b039092169263803aa5f6928282019260209290829003018186803b15801561099557600080fd5b60055460408051630f461fe160e21b815260048101869052905133926001600160a01b031691633d187f84916024808301926020929190829003018186803b158015610b6957600080fd5b505afa158015610b7d573d6000803e3d6000fd5b505050506040513d6020811015610b9357600080fd5b50516001600160a01b031614610be557600480546040805163401d52fb60e11b815290516001600160a01b039092169263803aa5f6928282019260209290829003018186803b15801561099557600080fd5b6003805460019081018255604080516080810182528581523360208083018281528385018a81526060850187815260008a815288855287812096518755925186890180546001600160a01b0319166001600160a01b03909216919091179055905160028601555193909601929092558685528482528285206004018054948501815585528185209093018590558151868152908101929092528051869285927f2d48c40efafe81a0914d873114251ce01ec734f700b9d174d5f438083929375d92918290030190a4505050565b60035490565b60025490565b6000818152602081815260408083208054600191820180548451600261010095831615959095026000190190911693909304601f81018690048602840186019094528383526001600160a01b039091169460609485949193859390929091830182828015610d6d5780601f10610d4257610100808354040283529160200191610d6d565b820191906000526020600020905b815481529060010190602001808311610d5057829003601f168201915b505050600089815260208181526040918290206002908101805484516001821615610100026000190190911692909204601f8101849004840283018401909452838252959950949350909150830182828015610e0a5780601f10610ddf57610100808354040283529160200191610e0a565b820191906000526020600020905b815481529060010190602001808311610ded57829003601f168201915b505050600089815260208181526040918290206003810154600490910180548451818502810185019095528085529699509097509194919350909150830182828015610e7557602002820191906000526020600020905b815481526020019060010190808311610e61575b5050505050905091939590929450565b60035481565b828054600181600116156101000203166002900490600052602060002090601f016020900481019282601f10610ecc57805160ff1916838001178555610ef9565b82800160010185558215610ef9579182015b82811115610ef9578251825591602001919060010190610ede565b50610f05929150610f43565b5090565b828054828255906000526020600020908101928215610ef95791602002820182811115610ef9578251825591602001919060010190610ede565b610f5d91905b80821115610f055760008155600101610f49565b9056fea265627a7a7231582043267ef02dd412c6ea0ec335b2183601e2e7aaade42cc8bbde0d532aadb95b3864736f6c63430005110032",
  "source": "pragma solidity 0.5.17;\n\n// Copyright 2021 The dt-contracts Authors\n// This file is part of the dt-contracts library.\n//\n// The dt-contracts library is free software: you can redistribute it and/or modify\n// it under the terms of the GNU Lesser General Public License as published by\n// the Free Software Foundation, either version 3 of the License, or\n// (at your option) any later version.\n//\n// The dt-contracts library is distributed in the hope that it will be useful,\n// but WITHOUT ANY WARRANTY; without even the implied warranty of\n// MERCHANTABILITY or FITNESS FOR A PARTICULAR PURPOSE. See the\n// GNU Lesser General Public License for more details.\n//\n// You should have received a copy of the GNU Lesser General Public License\n// along with the dt-contracts library. If not, see <http://www.gnu.org/licenses/>.\n\nimport \"./RoleController.sol\";\nimport \"./DTFactory.sol\";\n\n/**\n * @title TaskMarket\n */\ncontract TaskMarket {\n    uint256 private constant SUCCESS = 0;\n\n    struct Task {\n        address demander;\n        string name;\n        string desc;\n        uint256 status;\n        uint256[] jobIds;\n    }\n\n    struct Job {\n        uint256 taskId;\n        address solver;\n        bytes32 cdt;\n        uint256 status;\n    }\n\n    mapping(uint256 => Task) taskList;\n    mapping(uint256 => Job) jobList;\n\n    uint256 public taskNum = 0;\n    uint256 public jobNum = 0;\n\n    event TaskAdded(\n        uint256 indexed _taskId,\n        address _demander,\n        string indexed _name,\n        string _desc,\n        uint256 indexed _code\n    );\n\n    event JobAdded(\n        uint256 _taskId,\n        uint256 indexed _jobId,\n        address _solver,\n        bytes32 indexed _cdt,\n        uint256 indexed _code\n    );\n\n    RoleController private rc;\n    DTFactory private df;\n\n    /**\n     * @dev constructor\n     *      contract deployment\n     * @param rcAddr refers to the RoleController address\n     * @param dfAddr refers to the DTFactory address\n     */\n    constructor(address rcAddr, address dfAddr) public {\n        rc = RoleController(rcAddr);\n        df = DTFactory(dfAddr);\n    }\n\n    /**\n     * @dev createTask\n     *      adds a new task on-chain.\n     * @param _name refers to the task name\n     * @param _desc refers to the task description\n     */\n    function createTask(string memory _name, string memory _desc) public {\n        uint256 taskId = 0;\n        taskId = taskNum + 1;\n\n        if (!rc.checkPermission(msg.sender, rc.MODIFY_TASK())) {\n            emit TaskAdded(\n                taskId,\n                msg.sender,\n                _name,\n                _desc,\n                rc.ERROR_NO_PERMISSION()\n            );\n            return;\n        }\n\n        taskNum++;\n        taskList[taskId] = Task({\n            demander: msg.sender,\n            name: _name,\n            desc: _desc,\n            status: 1,\n            jobIds: new uint256[](0)\n        });\n\n        emit TaskAdded(taskId, msg.sender, _name, _desc, SUCCESS);\n    }\n\n    /**\n     * @dev addJob\n     *      creates new computation job on-chain with the algorithm dt.\n     * @param _cdt refers to the composable data token identifier\n     * @param _taskId refers to the task id\n     */\n    function addJob(bytes32 _cdt, uint256 _taskId) public {\n        uint256 jobId = 0;\n        jobId = jobNum + 1;\n\n        if (!rc.checkPermission(msg.sender, rc.MODIFY_TASK())) {\n            emit JobAdded(\n                _taskId,\n                jobId,\n                msg.sender,\n                _cdt,\n                rc.ERROR_NO_PERMISSION()\n            );\n            return;\n        }\n\n        if (taskList[_taskId].status != 1) {\n            emit JobAdded(\n                _taskId,\n                jobId,\n                msg.sender,\n                _cdt,\n                rc.ERROR_NO_PERMISSION()\n            );\n            return;\n        }\n\n        if (!df.isCDTAvailable(_cdt)) {\n            emit JobAdded(\n                _taskId,\n                jobId,\n                msg.sender,\n                _cdt,\n                rc.ERROR_NO_PERMISSION()\n            );\n            return;\n        }\n\n        if (df.getDTOwner(_cdt) != msg.sender) {\n            emit JobAdded(\n                _taskId,\n                jobId,\n                msg.sender,\n                _cdt,\n                rc.ERROR_NO_PERMISSION()\n            );\n            return;\n        }\n\n        jobNum++;\n        jobList[jobId] = Job({\n            taskId: _taskId,\n            solver: msg.sender,\n            cdt: _cdt,\n            status: 1\n        });\n\n        taskList[_taskId].jobIds.push(jobId);\n\n        emit JobAdded(_taskId, jobId, msg.sender, _cdt, SUCCESS);\n    }\n\n    /**\n     * @dev getTask\n     *      gets task status.\n     * @param _taskId refers to the task id\n     * @return Task struct.\n     */\n    function getTaskbyId(uint256 _taskId)\n        public\n        view\n        returns (\n            address demander,\n            string memory name,\n            string memory desc,\n            uint256 status,\n            uint256[] memory jobIds\n        )\n    {\n        demander = taskList[_taskId].demander;\n        name = taskList[_taskId].name;\n        desc = taskList[_taskId].desc;\n        status = taskList[_taskId].status;\n        jobIds = taskList[_taskId].jobIds;\n    }\n\n    /**\n     * @dev getJob\n     *      gets job status.\n     * @param _jobId refers to the job id\n     * @return Job struct.\n     */\n    function getJobbyId(uint256 _jobId)\n        public\n        view\n        returns (\n            uint256 taskId,\n            address solver,\n            bytes32 cdt,\n            uint256 status\n        )\n    {\n        taskId = jobList[_jobId].taskId;\n        solver = jobList[_jobId].solver;\n        cdt = jobList[_jobId].cdt;\n        status = jobList[_jobId].status;\n    }\n\n    /**\n     * @dev getTaskNum\n     *      gets the total task numbers.\n     * @return uint256.\n     */\n    function getTaskNum()\n        public\n        view\n        returns (\n            uint256 totalTasks\n        )\n    {\n        totalTasks = taskNum;\n    }\n\n    /**\n     * @dev getJobNum\n     *      gets the total job numbers.\n     * @return uint256.\n     */\n    function getJobNum()\n        public\n        view\n        returns (\n            uint256 totalJobs\n        )\n    {\n        totalJobs = jobNum;\n    }\n}\n",
  "sourcePath": "/Users/liqibing/Research/blockchain/ownership/datatoken/dt-contracts/contracts/TaskMarket.sol",
  "compiler": {
    "name": "solc",
    "version": "0.5.17+commit.d117da36.Emscripten.clang"
  },
  "schemaVersion": "3.0.19",
  "updatedAt": "2021-04-10T16:00:41.188Z",
  "devdoc": {
    "methods": {
      "addJob(bytes32,uint256)": {
        "details": "addJob     creates new computation job on-chain with the algorithm dt.",
        "params": {
          "_cdt": "refers to the composable data token identifier",
          "_taskId": "refers to the task id"
        }
      },
      "constructor": {
        "details": "constructor     contract deployment",
        "params": {
          "dfAddr": "refers to the DTFactory address",
          "rcAddr": "refers to the RoleController address"
        }
      },
      "createTask(string,string)": {
        "details": "createTask     adds a new task on-chain.",
        "params": {
          "_desc": "refers to the task description",
          "_name": "refers to the task name"
        }
      },
      "getJobNum()": {
        "details": "getJobNum     gets the total job numbers.",
        "return": "uint256."
      },
      "getJobbyId(uint256)": {
        "details": "getJob     gets job status.",
        "params": {
          "_jobId": "refers to the job id"
        },
        "return": "Job struct."
      },
      "getTaskNum()": {
        "details": "getTaskNum     gets the total task numbers.",
        "return": "uint256."
      },
      "getTaskbyId(uint256)": {
        "details": "getTask     gets task status.",
        "params": {
          "_taskId": "refers to the task id"
        },
        "return": "Task struct."
      }
    },
    "title": "TaskMarket"
  },
  "userdoc": {
    "methods": {}
  }
}